S02300007061726B696E675F73797374656D5F70726F6A6563745F302E31762E7372656357
S113000045C0000061C000005FC000005DC000008A
S11300105BC0000059C0000057C0000055C000007C
S113002053C0000051C000004FC000004DC000008C
S11300304BC0000049C0000048C000000C943209C5
S113004043C0000041C0000073C000003DC0000078
S11300503BC0000039C0000037C0000035C00000BC
S113006033C0000031C000002FC000002DC00000CC
S11300702BC0000029C000006AC0000025C0000099
S113008023C0000021C000001FC0000011241FBEB7
S1130090CFEFD0E1DEBFCDBF14E0A0E0B1E0EAE7EE
S11300A0F5E200E00BBF02C007900D92AA39B10738
S11300B0D9F726E0AAE9B4E001C01D92AD3EB2072B
S11300C0E1F7C8D70C94BB129BCF1F920F920FB6C7
S11300D00F9211248F939F938091BB049091BC0441
S11300E0883C910539F41092BC041092BB048BB384
S11300F089608BBB8091BB049091BC040A9709F47E
S1130100D8988091BB049091BC04449709F4DB987F
S11301108091BB049091BC0401969093BC0480939D
S1130120BB049F918F910F900FBE0F901F90189555
S11301301F920F920FB60F9211248F938CB180935C
S113014092058F910F900FBE0F901F9018951F92DC
S11301500F920FB60F9211240BB60F921F932F9389
S11301603F934F935F936F937F938F939F93AF933B
S1130170BF93EF93FF93CF93DF9300D01F92CDB73C
S1130180DEB710919C001E3321F481E08093C204F9
S113019042C01F3421F481E08093AA043CC01B3484
S11301A051F48091AA04813009F087C08093C0047F
S11301B01092AA0430C01092AA041B3221F481E0E8
S11301C08093A90476C0193441F48091A904813044
S11301D011F582E08093A9046CC0103541F480913C
S11301E0A9048230C1F483E08093A90462C014346A
S11301F041F48091A904833071F484E08093A904CC
S113020058C01C3241F48091A904843021F485E063
S11302108093A9044EC08091A904853091F4109371
S1130220BF0486E08093A9048091BF0489831A8265
S1130230CE0101960E94A00F9093D0068093CF0622
S113024038C08630C1F41A3371F08091BF048983B9
S11302501A831B82CE0101960E94A00F9093D006B0
S11302608093CF0626C01092A9041092A80481E0BE
S11302708093A7041EC08091A7048823C1F08091B5
S1130280A804E82FF0E0ED56FA4F10838F5F8093B7
S1130290A8042091CF063091D00690E082179307EE
S11302A041F481E08093C1041092A70402C010922B
S11302B0A904812F0E94510E03C01092AA04ABCF4F
S11302C00F900F900F90DF91CF91FF91EF91BF911D
S11302D0AF919F918F917F916F915F914F913F91DA
S11302E02F911F910F900BBE0F900FBE0F901F9078
S11302F01895CF938091A504811109C040E06DEA5F
S113030076E082E50E943E0D8093A4041DC0809196
S1130310A304882339F040E06DEA76E082E50E9488
S11303203E0D0CC040E06DEA76E082E50E943E0D91
S11303308093A404833011F41092A5049091A30433
S113034081E089278093A304C091A404C13029F0DB
S113035088E580930801C0E018C0809108018835C1
S113036099F48FE48093080181E08093A50480933D
S1130370A30460E08DEA96E00E94730D8093A404C8
S1130380813019F0CFEF01C0C0E08C2FCF910895D8
S1130390CF938091A204811109C041E06FEB76E014
S11303A082E50E943E0D8093A1041DC08091A004AB
S11303B0882339F041E06FEB76E082E50E943E0D40
S11303C00CC041E06FEB76E082E50E943E0D809325
S11303D0A104833011F41092A2049091A00481E04E
S11303E089278093A004C091A104C13029F088E535
S11303F080930701C0E018C080910701883599F403
S11304008FE48093070181E08093A2048093A00489
S113041061E08FEB96E00E94730D8093A10481301C
S113042019F0CFEF01C0C0E08C2FCF910895CF9386
S1130430DF93EC016091D1067091D2068091D306CE
S11304409091D40624E630E040E050E00E947E0F14
S1130450672B682B692B89F4988181E0892788832D
S1130460811106C046DF8093BD061092B10605C017
S11304708FDF8093BD061092C306DF91CF9108955C
S113048087EC94E04BE255E025E0E6E1F3E0DC01A3
S113049001900D922A95E1F7059684179507A1F727
S11304A047E451E060E082E00E94990A2FEF89E678
S11304B098E1215080409040E1F700C00000089589
S11304C01092D5061092D6061092D7061092D8062E
S11304D0823099F028F4882349F0813051F01CC00F
S11304E0843099F070F08530A1F016C010922B057D
S11304F013C081E080932B050FC082E080932B050D
S11305000BC083E080932B0507C084E080932B0508
S113051003C085E080932B051092D5061092D60671
S11305201092D7061092D8060895EBE8F0E0808187
S11305308F7B808310922B050895009741F0EBE8A0
S1130540F0E02081206420830C941F0E0895EBE8D2
S1130550F0E080818F7B8083089580912B05823029
S113056009F476C028F4882361F0813061F008959D
S1130570843009F437C108F4D0C0853009F475C15A
S11305800895D3CF08958091D5069091D606A09171
S1130590D706B091D806883C9105A105B10520F491
S11305A08BE996E0CACF08958091D5069091D6063E
S11305B0A091D706B091D806883C9105A105B10554
S11305C021F487EE95E0B9CF08958091D5069091F6
S11305D0D606A091D706B091D80680399140A105DE
S11305E0B10521F485E694E0A8CF08958091D5065D
S11305F09091D606A091D706B091D806883592403E
S1130600A105B10521F48DEF93E097CF0895809172
S1130610D5069091D606A091D706B091D80680321F
S11306209340A105B10521F488EF92E086CF0895A7
S11306308091D5069091D606A091D706B091D806A0
S1130640803B9440A105B10509F050C16ECF0895D7
S11306508091D5069091D606A091D706B091D80680
S1130660883C9105A105B10520F48BE996E065CF9E
S113067008958091D5069091D606A091D706B091A1
S1130680D806823D9105A105B10521F480E090E0F2
S113069054CF08958091D5069091D606A091D7069F
S11306A0B091D8068C3D9105A105B10521F487EEE2
S11306B095E043CF08958091D5069091D606A091F8
S11306C0D706B091D80680399140A105B10521F42F
S11306D080E090E032CF08958091D5069091D606BF
S11306E0A091D706B091D8068E3A9140A105B105E4
S11306F021F485E694E021CF08958091D506909168
S1130700D606A091D706B091D80688359240A105A7
S1130710B10509F0EBC009CF08958091D5069091F9
S1130720D606A091D706B091D8068B349105A105C1
S1130730B10520F482E194E000CF08958091D506BC
S11307409091D606A091D706B091D8068639910526
S1130750A105B10520F480E090E0EFCE08958091EA
S1130760D5069091D606A091D706B091D806813EC1
S11307709105A105B10520F482E194E0DECE08954F
S11307808091D5069091D606A091D706B091D8064F
S11307908C329140A105B10520F480E090E0CDCEEB
S11307A008958091D5069091D606A091D706B09170
S11307B0D80687379140A105B10520F482E194E081
S11307C0BCCE08958091D5069091D606A091D70607
S11307D0B091D806823C9140A105B10509F086C0CC
S11307E0A4CE08958091D5069091D606A091D706FF
S11307F0B091D80684369105A105B10520F482E1B3
S113080094E09BCE08958091D5069091D606A09150
S1130810D706B091D806883C9105A105B10520F40E
S113082080E090E08ACE08958091D5069091D60616
S1130830A091D706B091D8068C329140A105B1059C
S113084020F482E194E079CE08958091D5069091C8
S1130850D606A091D706B091D806823C9140A10556
S1130860B10509F043C061CE08958091D5069091F9
S1130870D606A091D706B091D80684369105A10575
S1130880B10520F487E490E158CE08958091D5060F
S11308909091D606A091D706B091D806883C9105D0
S11308A0A105B10520F480E090E047CE0895809141
S11308B0D5069091D606A091D706B091D8068C3271
S11308C09140A105B10520F484E298E036CE089564
S11308D08091D5069091D606A091D706B091D806FE
S11308E0823C9140A105B10509F41FCE08951092F0
S11308F0E9061092EA061092EB061092EC061092AA
S11309000201109201010895CF93DF93CDB7DEB7B2
S113091065970FB6F894DEBF0FBECDBFBC019AE059
S1130920EAE0F1E0DE01119601900D929A95E1F76B
S1130930FE013B968BE0DF011D928A95E9F7CE011B
S113094001960E94BD0F04D646E751E060E081E0C5
S1130950F0D543E851E060E082E0EBD5AE014F5FB3
S11309605F4F60E083E0E5D565960FB6F894DEBF8F
S11309700FBECDBFDF91CF9108954091E90650910C
S1130980EA066091EB067091EC064131574261052D
S1130990710538F021E030E0309302012093010129
S11309A0B3DF80910101909102010097F1F708955E
S11309B0CF92DF92EF92FF920F931F93CF93DF9327
S11309C07C016B01EA01890192DF86E991E00E94D2
S11309D06B0E2FEF81E19AE7215080409040E1F7C0
S11309E000C000008FE991E0C8DF46EA51E060E012
S11309F082E09FD57CDF8BEB91E00E946B0E8091AF
S1130A00C004811107C084EC91E0B7DF8091C00479
S1130A108823C9F31092C0046ADF8BEC91E00E9432
S1130A206B0E2FEF87EA91E6215080409040E1F76A
S1130A3000C000001092C00489ED91E09EDF43EEF7
S1130A4051E060E082E075D552DF88EF91E00E94CA
S1130A506B0E8091C004811107C085E092E08DDFA8
S1130A608091C0048823C9F31092C00440DF80E160
S1130A7092E00E946B0E8091C004811107C08BE14B
S1130A8092E07BDF8091C0048823C9F31092C004F4
S1130A9044E252E060E082E04CD529DFA601B701D0
S1130AA089E392E00E94D70E0E946B0E8091C004ED
S1130AB0811107C084E492E060DF8091C004882340
S1130AC0C9F31092C0044DE452E060E082E031D5F5
S1130AD00EDF82E692E00E946B0E8091C0048111C9
S1130AE007C08DE692E049DF8091C0048823C9F3F2
S1130AF01092C00446E752E060E082E01AD5F7DEC7
S1130B00B801CE010E942D0F0E946B0E8091C0048B
S1130B10811107C08BE892E030DF8091C004882304
S1130B20C9F31092C00447E952E060E082E001D5C5
S1130B302FEF81EE94E0215080409040E1F700C017
S1130B4000004CEA52E060E082E0F3D4DF91CF9100
S1130B501F910F91FF90EF90DF90CF900895AC9A82
S1130B600895AC9808950F931F93CF93DF93CDB757
S1130B70DEB764970FB6F894DEBF0FBECDBF78948E
S1130B8089E08ABBA49AF8940E94F90D0E94020E8F
S1130B900E940F0E78941092D1061092D2061092F1
S1130BA0D3061092D406DDDF60E875E280E090E0C1
S1130BB00E94240E60E875E281E090E00E94240E19
S1130BC080E0AAD681E0A8D629D441EC52E060E0C6
S1130BD080E0AFD446ED52E060E081E0AAD44AEE72
S1130BE052E060E082E0A5D441EC52E060E083E0B2
S1130BF0A0D481E065DC2FEF81E19AE721508040A9
S1130C009040E1F700C0000080E0CED680E022D71B
S1130C1081E0CAD681E01ED72FEF32E042E053E0F4
S1130C206EE073E08BE193E0C3DE2ADC8FE0EFE15A
S1130C30F1E08E010F5F1F4FD80101900D928A954C
S1130C40E1F7FE01709685E0DF011D928A95E9F7D0
S1130C50D8010D900020E9F7119786E0E2E2F3E075
S1130C6001900D928A95E1F741EC52E060E080E05A
S1130C7060D448E253E060E081E05BD4A80160E026
S1130C8082E057D441EC52E060E083E052D485E046
S1130C9017DCBFEF27EA81E6B15020408040E1F73E
S1130CA000C0000055D455D364960FB6F894DEBF47
S1130CB00FBECDBFDF91CF911F910F910895813069
S1130CC0910531F08230910569F10196C9F517C09B
S1130CD01092B4041092B3041092B6041092B504A6
S1130CE081E090E09093B8048093B7049093BA04A1
S1130CF08093B9049093B2048093B1040895109240
S1130D00B4041092B30481E090E09093B60480930D
S1130D10B5041092B8041092B7049093B20480936F
S1130D20B104089581E090E09093B4048093B304F7
S1130D301092B6041092B5041092B8041092B7043D
S1130D4008951092D1061092D2061092D3061092F2
S1130D50D4068230910599F01092DD061092DE06D9
S1130D601092DF061092E0068130910541F4109252
S1130D70D9061092DA061092DB061092DC069FCF99
S1130D800895CF92DF92EF92FF920F931F93CF9328
S1130D90DF93CDB7DEB76C970FB6F894DEBF0FBE06
S1130DA0CDBF9C019091BD06913009F042C1F9017B
S1130DB08081811113C18DE393E08DD78091C204AA
S1130DC08823E1F31092C20482E3E3E9F5E0DF0152
S1130DD01D928A95E9F70DEA16E00F2EF1EBEF2E3E
S1130DE0F6E0FF2EF02DF80181918F01B1D773D772
S1130DF080E269D70E151F05B1F78AEA93E06BD735
S1130E008091C1048823E1F31092C1048091930579
S1130E108F3409F0CDC080E290E2909394058093E2
S1130E2093051092C4041092C30407EC14E0E12C5F
S1130E30F12CCC24C394D12C66E173E0C8010E9448
S1130E40C80F892B49F4F092C604E092C504D092ED
S1130E50C404C092C3040CC06DEA76E0C8010E94C9
S1130E60C80F892B29F41092C4041092C30489C0BA
S1130E70FFEFEF1AFF0A0B5F1F4F84E1E816F1043E
S1130E80D9F68091C3049091C404892B09F479C0E4
S1130E908091C5049091C6049C01220F331F220F38
S1130EA0331F820F931F6DEA76E089539B4F0E9494
S1130EB0D10F80919E0490919F04843191052CF46C
S1130EC0019690939F0480939E0484E190E011D74F
S1130ED0BC01CE0149960E94D10F20919E0430910D
S1130EE09F0484E190E0821B930B03D7BC01CE01E5
S1130EF045960E94D10F8EE0E3E3F1E08E010F5F8F
S1130F001F4FD80101900D928A95E1F7FE013F969B
S1130F1086E0DF011D928A95E9F7BE016B5E7F4F83
S1130F20C8010E94BD0FF80101900020E9F7319734
S1130F308FE290E091838083BE01675E7F4FC8019A
S1130F400E94BD0FF80101900020E9F731978DE56B
S1130F5090E091838083FCD24DE453E060E080E034
S1130F60E8D243E955E060E081E0E3D2A80160E023
S1130F7082E0DFD282E0A4DA81E090E0E2DEEFDD1D
S1130F8058C0E6D24DE453E060E080E0D2D243E9B9
S1130F9055E062E081E0CDD246E553E060E082E0D6
S1130FA0C8D282E08DDA81E090E0CBDED8DD41C0AA
S1130FB0CFD249E653E060E080E0BBD240E753E0A3
S1130FC062E081E0B6D24DE753E062E082E0B1D264
S1130FD08FEF9FEFB6DE83E073DA2BC0813049F5E3
S1130FE007EC14E00F2EFBE2EF2EF5E0FF2EF02DC0
S1130FF06FEB76E0C801CCD7892BB1F485E0E6E14C
S1131000F3E0D80101900D928A95E1F780919E0456
S113101090919F04019790939F0480939E0482E093
S113102090E08FDE82E04CDA0B5F1F4FE016F10692
S1131030F9F61092BD066C960FB6F894DEBF0FBE9B
S1131040CDBFDF91CF911F910F91FF90EF90DF9073
S1131050CF90089588DDC1EDD6E086EA94E0E7D923
S113106086EA94E08EDE8091B9049091BA04892BCB
S113107071F088859985AA85BB8581339547A1053B
S1131080B10528F06EDD1092BA041092B904809173
S1131090B1049091B204892B71F08C859D85AE8545
S11310A0BF85803E9E42A105B10529F452D110921C
S11310B0B2041092B1048091B7049091B804892BC2
S11310C0B1F088819981AA81BB8180319742A105C1
S11310D0B10569F088819981AA81BB81803E9E42D5
S11310E0A105B10521F41092B8041092B7048091BF
S11310F0B3049091B404892B09F4AFCF888199810A
S1131100AA81BB8180319742A105B10509F4A5CF1D
S113111088819981AA81BB81803E9E42A105B10547
S113112009F09BCF1092B4041092B30496CF81308F
S11311309105A1F480919A0490919B04A0919C0440
S1131140B0919D040196A11DB11D80939A049093C2
S11311509B04A0939C04B0939D041AC08F3F2FEF6F
S11311609207A1F480919A0490919B04A0919C040D
S1131170B0919D040197A109B10980939A049093B9
S11311809B04A0939C04B0939D0402C0892B91F00E
S113119080919A0490919B04A0919C04B0919D0429
S11311A083709927AA27BB27FC01ED5FFE4F80813E
S11311B08BBB08951BBA08958091BD049091BE0421
S11311C0892B09F44EC06091D1067091D2068091AA
S11311D0D3069091D406409100012BE030E0241B0B
S11311E03109032E000C440B550B88D6672B682B52
S11311F0692BB9F52091AD043091AE048091AB0414
S11312009091AC04281739070CF58091AF049091A4
S1131210B004019721F481E090E089DF0DC0809152
S1131220AF049091B004019621F48FEF9FEF7FDF1C
S113123003C080E090E07BDF8091AD049091AE0428
S113124001969093AE048093AD0408951092BE0469
S11312501092BD041092AE041092AD0480E090E0B0
S113126066CF08951F920F920FB60F9211240BB6FA
S11312700F922F933F934F935F936F937F938F932B
S11312809F93AF93BF93EF93FF93E1EDF6E08481D7
S11312909581A681B7810196A11DB11D8483958393
S11312A0A683B78380819181A281B3810196A11D18
S11312B0B11D80839183A283B38380859185A285A8
S11312C0B3850196A11DB11D80879187A287B3873D
S11312D084859585A685B7850196A11DB11D848752
S11312E09587A687B78780899189A289B389019652
S11312F0A11DB11D808B918BA28BB38B84899589A1
S1131300A689B7890196A11DB11D848B958BA68BE7
S1131310B78B808D918DA28DB38D0196A11DB11DCA
S1131320808F918FA28FB38F18D946DFFF91EF91F1
S1131330BF91AF919F918F917F916F915F914F91E9
S11313403F912F910F900BBE0F900FBE0F901F90E7
S11313501895CF93DF9300D000D0CDB7DEB784E0EB
S113136089831A8284E18B8380E18C8344E050E09A
S1131370BE016F5F7F4F809109014AD18111F6CF81
S11313808FE39CE90197F1F700C000000F900F90E4
S11313900F900F90DF91CF910895CF93DF9300D0FA
S11313A0CDB7DEB7807F982F9C60998388608A834D
S11313B042E050E0BE016F5F7F4F8091090128D168
S11313C08111F6CF0F900F90DF91CF910895CF93B5
S11313D0DF9300D000D0CDB7DEB7982F907F292FB0
S11313E02C60298398609A8320E1829FC001112494
S11313F0982F9C609B8388608C8344E050E0BE01FE
S11314006F5F7F4F8091090103D18111F6CF0F9057
S11314100F900F900F90DF91CF910895BED02FEFD2
S113142089E698E1215080409040E1F700C0000037
S11314308DE893E03AD480E3B0DF8FE19EE4019736
S1131440F1F700C0000080E3A8DF8FE891E0019786
S1131450F1F700C0000080E3A0DF8FE891E001977E
S1131460F1F700C0000080E298DF8FE891E0019777
S1131470F1F700C0000088E2AADF87EC90E0019752
S1131480F1F700C0000088E0A2DF87EC90E001974C
S1131490F1F700C0000081E09ADF8FED9EE2019732
S11314A0F1F700C0000086E092DF87EC90E001973E
S11314B0F1F700C000008CE08ADF87EC90E0019730
S11314C0F1F700C000008DEA93E0EFC30895CF93D5
S11314D0DF9300D000D0CDB7DEB7982F907F292FAF
S11314E02D60298399609A8320E1829FC001112491
S11314F0982F9D609B8389608C8344E050E0BE01FB
S11315006F5F7F4F8091090183D08111F6CF0F90D7
S11315100F900F900F90DF91CF910895E82FF0E096
S1131520EE0FFF1FED53FC4F8081860F80684FCF75
S11315300895CF93DF93EA01F1DF8881882329F0AE
S11315402196C5DF89918111FCCFDF91CF91089558
S1131550CF93DF9300D000D0CDB7DEB78CE0898382
S113156088E08A838CE18B8388E18C8344E050E0BB
S1131570BE016F5F7F4F809109014AD08111F6CF80
S11315808FE39CE90197F1F700C000000F900F90E2
S11315900F900F90DF91CF91089588E480937000AD
S11315A00895E4E7F0E0108294EA9083908199230F
S11315B0ECF790917100987F9830A1F480937300B8
S11315C084E880937400E4E7F0E080818823ECF7FA
S11315D090917100987F983139F081E0903429F42A
S11315E080E0089581E0089580E008958093730079
S11315F084E880937400E4E7F0E080818823ECF7CA
S113160090917100987F81E0983209F480E0089508
S1131610CF92DF92FF920F931F93CF93DF936B01CF
S11316208A01BFDFF82E811117C00115110581F061
S1131630E6010C0D1D1D8991D9DF811110C08FE9C0
S11316409FE00197F1F700C000000C171D0799F700
S113165084E98093740005C0FF24F39402C0FF243E
S1131660F3948F2DDF91CF911F910F91FF90DF9015
S1131670CF9008951F93CF93DF93162F95B3C1E0B6
S1131680D0E002C0CC0FDD1F4A95E2F72C2F209545
S1131690922395BB880F8E77A3D2812FA1D285B3D5
S11316A0C82BC5BBDF91CF911F910895CF93DF93D2
S11316B095B3C1E0D0E002C0CC0FDD1F6A95E2F71C
S11316C02C2F2095922395BB880F8E77806888D223
S11316D08BD295B3C92BC5BBDF91CF9108952F92BF
S11316E03F924F925F926F927F928F929F92AF92AE
S11316F0BF92CF92DF92EF92FF920F931F93CF93FB
S1131700DF93F82EA62EB72E442E222ED32E8CE055
S1131710F81659F0EEE0FE1211C06894CC24C4F817
S11317200F2EF2E13F2EF02D0BC00F2EF0E3CF2E43
S1131730F02D0F2EF7E73F2EF02D02C0C12C312CD7
S11317404E2D632D606882E095DF6E2D84E0AEDF60
S1131750682F6F774E2D84E08DDF6E2D8AE0A6DF33
S1131760682F60684E2D8AE085DF4E2D60E081E0B1
S113177081DF512C612C712C4114510461047104DA
S113178099F0CA2DDB2D812C912C540169914E2D99
S113179089E070DFFFEF8F1A9F0AAF0ABF0A841433
S11317A09504A604B70490F34E2D6F2D81E062DFFB
S11317B08CE0F81208C06E2D8DE078DF682F606829
S11317C04E2D8DE057DF6E2D84E070DFB82EC0E023
S11317D0D0E0EC2DE160CE2E0AC06E2D84E066DFF1
S11317E0B82E2196CF3CF7E0DF0709F468C08C2DB2
S11317F08B2199F36EC0832D8170B82211F0C2E061
S113180001C0C1E08CE0F81273C06E2D8AE04EDF97
S1131810882E6E2D8CE04ADF282F2770A9F0882DA2
S113182090E00197880F991F880F991F880F991FBF
S1131830820F911D092E000CAA0BBB0BF8018083AB
S11318409183A283B38311C0882D90E0880F991FE0
S1131850880F991F880F991F092E000CAA0BBB0B28
S1131860F80180839183A283B383882071F0882D4B
S1131870813108F080E1882E912CA12CB12C8114A7
S11318809104A104B10429F433C0812C912C540196
S11318908394022D1D2D412C512C32016E2D89E093
S11318A005DFF80181938F01FFEF4F1A5F0A6F0A7A
S11318B07F0A481459046A047B0480F319C06E2D0E
S11318C08DE0F4DE682F6F774E2D8DE0D3DEC3E01C
S11318D00FC06E2D8DE0EADE682F6F774E2D8DE000
S11318E0C9DE6E2D86E0E2DE8B7109F484CFC3E09D
S11318F08C2FDF91CF911F910F91FF90EF90DF908C
S1131900CF90BF90AF909F908F907F906F905F909B
S11319104F903F902F900895CF93C82F1F921F92FE
S11319201F9281E08F9383E08F9317D184B38360F8
S113193084BB15BA2FEF89EF90E02150804090408E
S1131940E1F700C0000085B3836085BB4C2F6FE0D6
S113195081E090DE4C2F6DE88AE28CDE4C2F6EE342
S11319608BE288DE4C2F6EE18CE284DE4C2F60E04B
S11319708DE280DE4C2F60E485E17CDE4C2F6DE34C
S113198081E178DE6C2F84E191DE982F93700F90C3
S11319900F900F900F900F9029F4682F63604C2FD5
S11319A084E168DECF910895CF93DF93D82F682F19
S11319B087E37CDEC82F2FEF89EF90E02150804031
S11319C09040E1F700C00000D11106C08BEC93E019
S11319D06CD1C23959F50FC087ED93E066D1C23995
S11319E091F512C083EE93E060D146EF53E060E0DE
S11319F082E09FDDFFCF8AE094E057D14EE254E0CD
S1131A0060E082E096DD23C08AE094E04ED143E4B6
S1131A1054E060E082E08DDD1AC088E594E045D1B1
S1131A204EE254E060E082E084DD11C0C059C2306F
S1131A30C8F6F3CF88E594E038D143E454E060E09D
S1131A4082E077DD04C0C059C23060F6F3CFDF9185
S1131A50CF910895CF93C82F682F82E027DE682F97
S1131A6060624C2F82E006DE6C2F83E01FDE682F5D
S1131A7060684C2F83E0FEDDCF910895CF92DF9212
S1131A80EF920F931F93CF93DF9300D000D0CDB785
S1131A90DEB7182F6B01E42E67E08DE0EBDDF60175
S1131AA010838E010F5F1F4F960141E0B6018CE059
S1131AB016DE813059F449815A816B817C81403131
S1131AC051056105710519F083E001C083E00F90B1
S1131AD00F900F900F90DF91CF911F910F91EF9086
S1131AE0DF90CF900895CF92DF92EF920F931F93E0
S1131AF0CF93DF9300D000D0CDB7DEB76C01E62ED4
S1131B00462F60E08DE0B6DD83E9F601808380E254
S1131B1081838E010F5F1F4F960142E0B6018CE076
S1131B20DEDD813071F4F601A6014C5F5F4F90E079
S1131B30219192274E175F07D9F7F601248192135A
S1131B4083E00F900F900F900F90DF91CF911F9132
S1131B500F91EF90DF90CF900895CF93DF9300D053
S1131B601F92CDB7DEB78885833021F1811132C051
S1131B7029C09C9112969193E217F307D1F79B81A8
S1131B80923020F11B821DB8833071F4C09A87B360
S1131B90876087BB99818A81892B80652EB19B815F
S1131BA0922B9EB98DB916C0811114C0BB9A80E4E2
S1131BB08DB910C0DE011996FE0131969E012C5F8D
S1131BC03F4FD7CF9B819230E8F602C01DB8DECFDD
S1131BD01DB8ECCF0F900F900F90DF91CF91089527
S1131BE08FB9779BFECF08951FB8779BFECF8FB137
S1131BF00895BC9A8CE083BF8AEF81BF87B7826067
S1131C0087BF089582E08FBD8AE18EBD1DBC1CBCD8
S1131C1017BC87EC86BD87B7846087BF0895139A85
S1131C2080E480938B008AE180938A00109289007B
S1131C301092880010928100109280000895909371
S1131C408100809380000895CF93DF93EC019B0182
S1131C5040E050E060E472E48FE090E04FD1215026
S1131C603109209759F410983093900029B988E1EC
S1131C708AB9579A86E08093950010C0219771F431
S1131C803093980020939900EAE9F0E088E180839A
S1131C9080818068808386E080939D00DF91CF916E
S1131CA008955D9BFECF8CB90895CF93DF93EC012B
S1131CB08881882329F02196F4DF89918111FCCF52
S1131CC0DF91CF910895EBE9F0E0908195FFFDCF8E
S1131CD080939C000895CF93DF93EC01888188233F
S1131CE029F02196F0DF89918111FCCFDF91CF910A
S1131CF008950F931F93CF93DF93CDB7DEB7649707
S1131D000FB6F894DEBF0FBECDBF9F938F938CE7C1
S1131D1094E09F938F938E010F5F1F4F1F930F9338
S1131D204FD1B8018DE296E03CD10F900F900F9007
S1131D300F900F900F908DE296E064960FB6F89492
S1131D40DEBF0FBECDBFDF91CF911F910F910895DC
S1131D500F931F93CF93DF93CDB7DEB764970FB67E
S1131D60F894DEBF0FBECDBF1F928F9381E894E03D
S1131D709F938F938E010F5F1F4F1F930F9320D15B
S1131D80B8018DE296E00DD10F900F900F900F9057
S1131D900F900F908DE296E064960FB6F894DEBF34
S1131DA00FBECDBFDF91CF911F910F910895CF92B8
S1131DB0DF92EF92FF920F931F93CF93DF93CDB7F0
S1131DC0DEB7C054D1090FB6F894DEBF0FBECDBF45
S1131DD06B017A0120E4EDE6F6E0DF011D922A951D
S1131DE0E9F7BC018E010F5F1F4FC801DAD0B601BD
S1131DF0C801C3D0F80101900020E9F7319782E2CD
S1131E009CE29183808382E290E093838283B70192
S1131E10C801B3D0F80101900020E9F7319782E2BC
S1131E209DE0918380838AE090E093838283B8016C
S1131E308DE696E0B6D08DE696E0C05CDF4F0FB637
S1131E40F894DEBF0FBECDBFDF91CF911F910F91EC
S1131E50FF90EF90DF90CF900895EF92FF920F9351
S1131E601F93CF93DF93CDB7DEB7C054D1090FB61C
S1131E70F894DEBF0FBECDBF9C017B0180E4EDE68C
S1131E80F6E0DF011D928A95E9F794E1E6E8F4E0D3
S1131E908E010F5F1F4FD80101900D929A95E1F7C3
S1131EA0B901C8016AD0F80101900020E9F731971F
S1131EB082E29CE2918380831282B701C8015DD0E3
S1131EC0F80101900020E9F731978DE09AE09183C1
S1131ED080831282B8018DE696E063D08DE696E0A9
S1131EE0C05CDF4F0FB6F894DEBF0FBECDBFDF91ED
S1131EF0CF911F910F91FF90EF900895A1E21A2EB8
S1131F00AA1BBB1BFD010DC0AA1FBB1FEE1FFF1F99
S1131F10A217B307E407F50720F0A21BB30BE40BE9
S1131F20F50B661F771F881F991F1A9469F7609530
S1131F307095809590959B01AC01BD01CF010895EA
S1131F40FC0188279927E89421912032E9F329306C
S1131F5010F02E30C8F32B3239F02D3231F468945E
S1131F6003C026D0820F911D219120532A30C8F33B
S1131F701EF4909581959F4F0895FB01DC010D900F
S1131F800020E9F7119701900D920020E1F70895E0
S1131F90FB01DC018D91019080190110D9F3990B9B
S1131FA00895FB01DC0101900D920020E1F70895F2
S1131FB07AE0979F902D879F802D910D112408958D
S1131FC00F931F93CF93DF93CDB7DEB72E970FB642
S1131FD0F894DEBF0FBECDBF0D891E8986E08C83C9
S1131FE01A8309838FEF9FE79E838D83AE01475E3B
S1131FF05F4F6F89788DCE01019610D0EF81F885FF
S1132000E00FF11F10822E960FB6F894DEBF0FBEBC
S1132010CDBFDF91CF911F910F9108952F923F92E1
S11320204F925F926F927F928F929F92AF92BF92E4
S1132030CF92DF92EF92FF920F931F93CF93DF9390
S1132040CDB7DEB72B970FB6F894DEBF0FBECDBF6A
S11320506C017B018A01FC0117821682838181FF56
S1132060BFC1CE0101963C01F6019381F70193FDB6
S1132070859193FF81917F01882309F4ADC1853255
S113208039F493FD859193FF81917F01853221F489
S1132090B60190E0D6D1E8CF912C212C312CFFE170
S11320A0F315D8F08B3279F038F4803279F083323A
S11320B0A1F4232D20611DC08D3261F0803369F4B9
S11320C0232D216016C0832D8260382EE32DE46019
S11320D03E2E2AC0F32DF8601DC037FC2DC020ED24
S11320E0280F2A3040F08E32B9F436FC75C1232D06
S11320F02064322E19C036FE06C08AE0989E200D58
S11321001124922E11C0EAE02E9E200D1124222EBD
S1132110F32DF0623F2E08C08C3621F4832D8068A5
S1132120382E02C0883641F4F70193FD859193FF60
S113213081917F018111B3CF982F9F7D9554933066
S113214028F40C5F1F4F9FE399830DC0833631F051
S1132150833771F0833509F055C020C0F8018081C0
S113216089830E5F1F4F88248394912C530112C0DE
S11321702801F2E04F0E511CF801A080B18036FE18
S113218003C0692D70E002C06FEF7FEFC5014ED12F
S11321904C018201F32DFF773F2E15C0280122E068
S11321A0420E511CF801A080B18036FE03C0692D97
S11321B070E002C06FEF7FEFC5012DD14C01F32D0C
S11321C0F0683F2E820133FC19C0822D90E08816FE
S11321D09906A0F4B60180E290E033D12A94F5CFB9
S11321E0F50137FC859137FE81915F01B60190E0DE
S11321F028D121102A9421E0821A91088114910493
S113220079F7E1C0843611F0893639F5F80137FEE3
S113221007C060817181828193810C5F1F4F08C068
S113222060817181072E000C880B990B0E5F1F4F84
S1132230F32DFF763F2E97FF09C0909580957095FA
S113224061957F4F8F4F9F4FF0683F2E2AE030E01B
S1132250A30133D1882E861844C0853731F4232D49
S11322602F7EB22E2AE030E025C0932D997FB92E1F
S11322708F36C1F018F4883579F0AEC0803719F084
S1132280883721F0A9C0E92FE061BE2EB4FE0DC04D
S1132290FB2DF460BF2E09C034FE0AC0292F26602E
S11322A0B22E06C028E030E005C020E130E002C0D4
S11322B020E132E0F801B7FE07C0608171818281BC
S11322C093810C5F1F4F06C06081718180E090E0B4
S11322D00E5F1F4FA301F1D0882E8618FB2DFF77C8
S11322E03F2E36FE0DC0232D2E7FA22E891458F4C6
S11322F034FE0BC032FC09C0832D8E7EA82E05C08F
S1132300B82CA32C03C0B82C01C0B92CA4FE0FC058
S1132310FE01E80DF11D8081803321F49A2D997E10
S1132320A92E09C0A2FE06C0B394B39404C08A2D9A
S1132330867809F0B394A3FC10C0A0FE06C0B214C2
S113234080F4280C922C9B180DC0B21458F4B601DA
S113235080E290E076D0B394F8CFB21418F42B183E
S113236002C0982C212CA4FE0FC0B60180E390E09B
S113237068D0A2FE16C0A1FC03C088E790E002C0AA
S113238088E590E0B6010CC08A2D867851F0A1FE54
S113239002C08BE201C080E2A7FC8DE2B60190E0AE
S11323A050D0891430F4B60180E390E04AD09A9476
S11323B0F8CF8A94F301E80DF11D8081B60190E015
S11323C040D08110F6CF222009F44ECEB60180E22F
S11323D090E037D02A94F7CFF6018681978102C026
S11323E08FEF9FEF2B960FB6F894DEBF0FBECDBFD5
S11323F0DF91CF911F910F91FF90EF90DF90CF90DD
S1132400BF90AF909F908F907F906F905F904F9010
S11324103F902F900895FC01059061507040011089
S1132420D8F7809590958E0F9F1F0895FC016150F9
S1132430704001900110D8F7809590958E0F9F1FE2
S113244008950F931F93CF93DF93FB01238121FD05
S113245003C08FEF9FEF2CC022FF16C04681578127
S1132460248135814217530744F4A081B1819D0131
S11324702F5F3F4F318320838C93268137812F5FD9
S11324803F4F3783268314C08B01EC01FB0100848A
S1132490F185E02D0995892BE1F6D80116968D91E9
S11324A09C911797019617969C938E931697CE013D
S11324B0DF91CF911F910F910895FA01AA27283037
S11324C051F1203181F1E8946F936E7F6E5F7F4FFD
S11324D08F4F9F4FAF4FB1E03ED0B4E03CD0670F79
S11324E0781F891F9A1FA11D680F791F8A1F911DCC
S11324F0A11D6A0F711D811D911DA11D20D009F41C
S113250068943F912AE0269F11243019305D31935D
S1132510DEF6CF010895462F4770405D4193B3E046
S11325200FD0C9F7F6CF462F4F70405D4A3318F0ED
S1132530495D31FD4052419302D0A9F7EACFB4E09E
S1132540A6959795879577956795BA95C9F7009756
S11325506105710508959B01AC010A2E06945795F7
S1132560479537952795BA95C9F7620F731F841F4E
S10D2570951FA01D0895F894FFCFF5
S113257A09010005060A0958584E45525220436F6C
S113258A64653A000000000000000000000000201A
S113259A4669726D77617265205665722000000083
S11325AA000000456D7074792053706163653D5B6A
S11325BA0000000000000020202020204F4F4F4F31
S11325CA4F4F4F4F4F4F2020202020000A0961739C
S11325DA6369693A20000A096465633A20000A09B2
S11325EA6865783A2000496E697469616C2065727D
S11325FA722E00506C7A2C20547279696E6720729C
S113260A657365742E0041542B5253540D0A0041CC
S113261A542B5253540020202020204F4F4F5F5FE9
S113262A5F5F5F5F5F20202020200041542B474DCD
S113263A520D0A0041542B474D520041542B435723
S113264A4D4F44453D310D0A0041542B43574D4FDC
S113265A44450020202020204F4F4F4F5F5F5F5F8B
S113266A5F5F20202020200041542B43574D4F44C4
S113267A453F0D0A0041542B43574D4F44453F00F3
S113268A41542B43574C41500D0A0041542B435794
S113269A4C41500020202020204F4F4F4F4F5F5F66
S11326AA5F5F5F20202020200041542B43574A417A
S11326BA503D220041542B43574A415000202020C8
S11326CA20204F4F4F4F4F4F5F5F5F5F20202020E6
S11326DA200041542B43494653520D0A0041542BBE
S11326EA43494653520020202020204F4F4F4F4F3A
S11326FA4F4F5F5F5F20202020200041542B434925
S113270A5053544152540020202020204F4F4F4F01
S113271A4F4F4F4F5F5F2020202020002020202091
S113272A204F4F4F4F4F4F4F4F4F5F2020202020B5
S113273A003D3D3D3D3D3D3D3D3D3D3D3D3D3D3DF8
S113274A3D3D3D3D3D00202053595354454D2042C3
S113275A4F4F54494E472E2E2E0020202020205F12
S113276A5F5F5F5F5F5F5F5F5F2020202020003232
S113277A33003137322E32302E31302E330068771F
S113278A687768776877303030300043686F694813
S113279A5700312E3930760020205061726B696EF1
S11327AA672053797374656D202020200041542BCF
S11327BA43495053454E443D31310D0A0057656C27
S11327CA636F6D652C00416C726561647920526592
S11327DA636F676E697A656400536F7272792C004D
S11327EA546869732063617264206973006E6F743C
S11327FA20726567697374657265642E0042656642
S113280A6F726520693263206C636420496E69744F
S113281A69616C697A652E2E2E200D0A006932636D
S113282A20434C434420436F6E6E656374204F6BA0
S113283A0D0A0000004000140054000A5B6368613A
S113284A6E6E656C2030000A5B6368616E6E656C3F
S113285A203100204E6F2072656164657220666FB4
S113286A756E645D0A004572726F722C20506C7A20
S113287A2043484B2052464944002044657465630A
S113288A7465642056657273696F6E5D3A204D49AA
S113289A4641524520524335323276320A002020CC
S11328AA2020204F5F5F5F5F5F5F5F5F5F202020B4
S11328BA20200020202020204F4F5F5F5F5F5F5F52
S11328CA5F5F2020202020002044657465637465BE
S11328DA642056657273696F6E5D3A204D494641AC
S11328EA524520524335323276310A002530326459
S11328FA00253032580041542B4349505354415215
S10D290A543D22544350222C2200B5
S9030000FC
