S02300007061726B696E675F73797374656D5F70726F6A6563745F302E31762E7372656357
S113000045C0000062C0000060C000005EC0000087
S11300105CC000005AC0000058C0000056C0000078
S113002054C0000052C0000050C000004EC0000088
S11300304CC000004AC0000049C0000003C50000D5
S113004044C0000042C000008FC000003EC0000059
S11300503CC000003AC0000038C0000036C00000B8
S113006034C0000032C0000030C000002EC00000C8
S11300702CC000002AC0000086C0000026C000007A
S113008024C0000022C0000020C0000011241FBEB4
S1130090CFEFD0E1DEBFCDBF14E0A0E0B1E0E2E4F9
S11300A0F8E200E00BBF02C007900D92AA3CB10732
S11300B0D9F727E0AAECB4E001C01D92A631B2073B
S11300C0E1F70E94370A0C941F149ACF1F920F92E3
S11300D00FB60F9211242F933F934F938F939F93B7
S11300E08091D7048436D9F48091E4059091E50594
S11300F031E020E0892B09F430E0832F922F209106
S1130100F4063091F5062115310511F028E030E0B0
S11301104BB3822B932B842B8BBB1092D7048091EF
S1130120D7042091E4053091E50590E08217930708
S113013009F4D8988091D7042091F4063091F506FB
S113014090E08217930709F4DB988091D7048F5FBE
S11301508093D7049F918F914F913F912F910F904E
S11301600FBE0F901F9018951F920F920FB60F920B
S113017011248F938CB18093AD058F910F900FBE96
S11301800F901F9018951F920F920FB60F92112483
S11301900BB60F921F932F933F934F935F936F93DD
S11301A07F938F939F93AF93BF93EF93FF93CF93DB
S11301B0DF9300D01F92CDB7DEB710919C001E33A1
S11301C021F481E08093DB0442C01F3421F481E0F8
S11301D08093D6043CC01B3451F48091D604813002
S11301E009F087C08093D9041092D60430C01092CD
S11301F0D6041B3221F481E08093D50476C01934EF
S113020041F48091D504813011F582E08093D504C6
S11302106CC0103541F48091D5048230C1F483E080
S11302208093D50462C0143441F48091D5048330A2
S113023071F484E08093D50458C01C3241F4809159
S1130240D504843021F485E08093D5044EC0809198
S1130250D504853091F41093D80486E08093D504B6
S11302608091D80489831A82CE0101960E940411D8
S11302709093F7068093F60638C08630C1F41A339B
S113028071F08091D80489831A831B82CE01019670
S11302900E9404119093F7068093F60626C01092EC
S11302A0D5041092D40481E08093D3041EC08091BD
S11302B0D3048823C1F08091D404E82FF0E0E05502
S11302C0FA4F10838F5F8093D4042091F606309107
S11302D0F70690E08217930741F481E08093DA04F3
S11302E01092D30402C01092D504812F0E94B50F3E
S11302F003C01092D604ABCF0F900F900F90DF91F4
S1130300CF91FF91EF91BF91AF919F918F917F9189
S11303106F915F914F913F912F911F910F900BBE61
S11303200F900FBE0F901F90189580EE94E044E458
S113033055E025E0E6E9F3E0DC0101900D922A9511
S1130340E1F7059684179507A1F742E451E060E0D0
S113035082E00E94FC0B2FEF89E698E12150804057
S11303609040E1F700C000000895CF92DF92EF9231
S1130370FF920F931F93CF93C62F8130910569F19C
S11303808230910509F455C0892B09F07EC087E5B8
S113039091E00E94B90F0CEC16E00F2EFEEDEF2E4B
S11303A0F6E0FF2EF02D0F2EF0EDCF2EF6E0DF2E2F
S11303B0F02DC11105C0F80180810E94B50F04C061
S11303C0F70180810E94B50F0F5F1F4FFFEFEF1AF7
S11303D0FF0A0C151D0569F758C081E691E00E94DB
S11303E0B90F0CEC16E00F2EFEEDEF2EF6E0FF2E0B
S11303F0F02D0F2EF0EDCF2EF6E0DF2EF02DC111F3
S113040008C0F801808190E00E94DD0F0E94B90FBE
S113041007C0F701808190E00E94DD0F0E94B90FB0
S11304200F5F1F4FFFEFEF1AFF0A0C151D0539F779
S11304302CC089E691E00E94B90F0CEC16E00F2E57
S1130440FEEDEF2EF6E0FF2EF02D0F2EF0EDCF2E69
S1130450F6E0DF2EF02DC11107C0F80180810E9463
S11304600C100E94B90F06C0F70180810E940C1085
S11304700E94B90F80E20E94B50F0F5F1F4FFFEF7C
S1130480EF1AFF0A0C151D0531F7CF911F910F913B
S1130490FF90EF90DF90CF900895CF938091D10497
S11304A0811109C040E06CEC76E082E50E94A10E67
S11304B08093D0041DC08091CF04882339F040E09C
S11304C06CEC76E082E50E94A10E0CC040E06CEC7E
S11304D076E082E50E94A10E8093D004833011F46B
S11304E01092D1049091CF0481E089278093CF04A6
S11304F0C091D004C13029F088E580930301C0E0A5
S11305002CC080910301883529F58FE48093030181
S113051081E08093D1048093CF0460E08CEC96E07A
S11305200E94D60E8093D0048130B1F481E791E02B
S11305300E94B90F60E080E090E017DF60E081E0A6
S113054090E013DF60E082E090E00FDF8AE00E9439
S1130550B50F03C0C0E001C0CFEF8C2FCF91089539
S1130560CF938091CE04811109C041E06EED76E015
S113057082E50E94A10E8093CD041DC08091CC041D
S1130580882339F041E06EED76E082E50E94A10E09
S11305900CC041E06EED76E082E50E94A10E8093EE
S11305A0CD04833011F41092CE049091CC0481E0F8
S11305B089278093CC04C091CD04C13029F088E50B
S11305C080930201C0E02CC080910201883529F596
S11305D08FE48093020181E08093CE048093CC0465
S11305E061E08EED96E00E94D60E8093CD048130BA
S11305F0B1F484E891E00E94B90F61E080E090E0FA
S1130600B4DE61E081E090E0B0DE61E082E090E0A1
S1130610ACDE8AE00E94B50F03C0C0E001C0CFEF9A
S11306208C2FCF910895CF93DF93EC016091F8065E
S11306307091F9068091FA069091FB0624E630E069
S113064040E050E00E94E210672B682B692B89F48C
S1130650988181E089278883811106C01EDF8093F9
S1130660DC061092D00605C07BDF8093DC06109276
S1130670E206DF91CF910895EBE8F0E080818F7B73
S11306808083109244051092F3061092F2060895A6
S1130690009741F0EBE8F0E02081206420830C9483
S11306A0830F0895EBE8F0E080818F7B80830895C9
S11306B080914405823009F476C028F4882361F0DF
S11306C0813061F00895843009F437C108F4D0C052
S11306D0853009F475C10895CFCF08958091FC0643
S11306E09091FD06A091FE06B091FF06883C91050D
S11306F0A105B10520F48BE996E0CACF0895809155
S1130700FC069091FD06A091FE06B091FF06883C80
S11307109105A105B10521F487EE95E0B9CF0895BF
S11307208091FC069091FD06A091FE06B091FF0613
S113073080399140A105B10521F485E694E0A8CF64
S113074008958091FC069091FD06A091FE06B0915B
S1130750FF0688359240A105B10521F48DEF93E0A1
S113076097CF08958091FC069091FD06A091FE0616
S1130770B091FF0680329340A105B10521F488EFC2
S113078092E086CF08958091FC069091FD06A09199
S1130790FE06B091FF06803B9440A105B10509F027
S11307A050C16ACF08958091FC069091FD06A091F6
S11307B0FE06B091FF06883C9105A105B10520F421
S11307C08BE996E065CF08958091FC069091FD0633
S11307D0A091FE06B091FF06823D9105A105B105E9
S11307E021F480E090E054CF08958091FC0690912C
S11307F0FD06A091FE06B091FF068C3D9105A10572
S1130800B10521F487EE95E043CF08958091FC066D
S11308109091FD06A091FE06B091FF0680399140AB
S1130820A105B10521F480E090E032CF08958091D4
S1130830FC069091FD06A091FE06B091FF068E3A4B
S11308409140A105B10521F485E694E021CF0895F6
S11308508091FC069091FD06A091FE06B091FF06E2
S113086088359240A105B10509F0EBC005CF089584
S11308708091FC069091FD06A091FE06B091FF06C2
S11308808B349105A105B10520F482E194E000CFF9
S113089008958091FC069091FD06A091FE06B0910A
S11308A0FF0686399105A105B10520F480E090E0AA
S11308B0EFCE08958091FC069091FD06A091FE066E
S11308C0B091FF06813E9105A105B10520F482E1B6
S11308D094E0DECE08958091FC069091FD06A091EF
S11308E0FE06B091FF068C329140A105B10520F4BB
S11308F080E090E0CDCE08958091FC069091FD06B5
S1130900A091FE06B091FF0687379140A105B1057D
S113091020F482E194E0BCCE08958091FC0690918D
S1130920FD06A091FE06B091FF06823C9140A10510
S1130930B10509F086C0A0CE08958091FC0690917F
S1130940FD06A091FE06B091FF0684369105A1052F
S1130950B10520F482E194E09BCE08958091FC06D9
S11309609091FD06A091FE06B091FF06883C91058A
S1130970A105B10520F480E090E08ACE089580912D
S1130980FC069091FD06A091FE06B091FF068C3204
S11309909140A105B10520F482E194E079CE089557
S11309A08091FC069091FD06A091FE06B091FF0691
S11309B0823C9140A105B10509F043C05DCE089584
S11309C08091FC069091FD06A091FE06B091FF0671
S11309D084369105A105B10520F487E490E158CE51
S11309E008958091FC069091FD06A091FE06B091B9
S11309F0FF06883C9105A105B10520F480E090E054
S1130A0047CE08958091FC069091FD06A091FE06C4
S1130A10B091FF068C329140A105B10520F484E227
S1130A2098E036CE08958091FC069091FD06A09141
S1130A30FE06B091FF06823C9140A105B10509F480
S1130A401BCE08951F920F920FB60F9211240BB66E
S1130A500F922F933F934F935F936F937F938F9353
S1130A609F93AF93BF93EF93FF93E8EFF6E08081FA
S1130A709181A281B3810196A11DB11D80839183CF
S1130A80A283B3838091AE059091AF05892B59F071
S1130A9080859185A285B3850196A11DB11D8087AE
S1130AA09187A287B3878091140790911507892BAA
S1130AB069F0E8EFF6E084859585A685B78501960B
S1130AC0A11DB11D84879587A687B7878091F006FD
S1130AD09091F106892B69F0E8EFF6E0808991891D
S1130AE0A289B3890196A11DB11D808B918BA28B24
S1130AF0B38B8091EE069091EF06892B69F0E8EFB5
S1130B00F6E084899589A689B7890196A11DB11D4E
S1130B10848B958BA68BB78B809145059091460568
S1130B20892B69F0E8EFF6E0808D918DA28DB38D6D
S1130B300196A11DB11D808F918FA28FB38F8091DB
S1130B40F2069091F306892B71F0E8EFF6E08481C8
S1130B509581A681B7810196A11DB11D84839583DA
S1130B60A683B783A5DDFF91EF91BF91AF919F91CC
S1130B708F917F916F915F914F913F912F910F9042
S1130B800BBE0F900FBE0F901F9018951092100778
S1130B90109211071092120710921307109201017C
S1130BA0109200010895CF93DF93CDB7DEB7659718
S1130BB00FB6F894DEBF0FBECDBFBC019AE0E5E0EE
S1130BC0F1E0DE01119601900D929A95E1F7FE0194
S1130BD03B968BE0DF011D928A95E9F7CE010196E1
S1130BE00E94211118D647E951E060E081E004D663
S1130BF044EA51E060E082E0FFD5AE014F5F5F4F11
S1130C0060E083E0F9D565960FB6F894DEBF0FBEB9
S1130C10CDBFDF91CF9108954091100750911107F6
S1130C2060911207709113074131574261057105B4
S1130C3038F021E030E03093010120930001B3DF6C
S1130C4080910001909101010097F1F70895CF92EE
S1130C50DF92EF92FF920F931F93CF93DF937C0168
S1130C606B01EA01890192DF87EB91E00E94CF0FCB
S1130C702FEF81E19AE7215080409040E1F700C0D6
S1130C80000080EC91E0C8DF47EC51E060E082E0D6
S1130C90B3D57CDF8CED91E00E94CF0F8091D90415
S1130CA0811107C085EE91E0B7DF8091D9048823D4
S1130CB0C9F31092D9046ADF8CEE91E00E94CF0F41
S1130CC02FEF87EA91E6215080409040E1F700C081
S1130CD000001092D9048AEF91E09EDF44E052E0D4
S1130CE060E082E089D552DF89E192E00E94CF0F73
S1130CF08091D904811107C086E292E08DDF809152
S1130D00D9048823C9F31092D90440DF81E392E027
S1130D100E94CF0F8091D904811107C08CE392E027
S1130D207BDF8091D9048823C9F31092D90445E468
S1130D3052E060E082E060D529DFA601B7018AE5D0
S1130D4092E00E943B100E94CF0F8091D904811140
S1130D5007C085E692E060DF8091D9048823C9F357
S1130D601092D9044EE652E060E082E045D50EDFF1
S1130D7083E892E00E94CF0F8091D904811107C0CB
S1130D808EE892E049DF8091D9048823C9F3109258
S1130D90D90447E952E060E082E02ED5F7DEB801DD
S1130DA0CE010E9491100E94CF0F8091D90481112D
S1130DB007C08CEA92E030DF8091D9048823C9F31C
S1130DC01092D90448EB52E060E082E015D52FEF91
S1130DD081EE94E0215080409040E1F700C0000093
S1130DE04DEC52E060E082E007D5DF91CF911F9196
S1130DF00F91FF90EF90DF90CF900895AC9A0895F3
S1130E00AC9808958430910559F134F481309105FA
S1130E1049F00297B1F008958530910581F1069764
S1130E20E9F108951092FC061092FD061092FE0658
S1130E301092FF0681E090E09093F3068093F2060F
S1130E400895109200071092010710920207109261
S1130E50030781E090E09093AF058093AE05089579
S1130E60109208071092090710920A0710920B07B4
S1130E7081E090E09093F1068093F006089510923B
S1130E800C0710920D0710920E0710920F0781E0C5
S1130E9090E09093EF068093EE0608951092100769
S1130EA010921107109212071092130781E090E03C
S1130EB090934605809345050895823099F028F46F
S1130EC0882349F0813051F01CC0843099F070F0CF
S1130ED08530A1F016C01092440513C081E08093C0
S1130EE044050FC082E0809344050BC083E08093E7
S1130EF0440507C084E08093440503C085E08093E3
S1130F00440581E090E07ECF08951092F806109297
S1130F10F9061092FA061092FB068430910571F0DE
S1130F201092040710920507109206071092070703
S1130F3021E030E0309315072093140763CF089520
S1130F40AF92BF92CF92DF92EF92FF920F931F93D3
S1130F50CF93DF93CDB7DEB76C970FB6F894DEBFAF
S1130F600FBECDBF9C019091DC06913009F0BDC14C
S1130F70F9018081811157C182EE92E00E94CF0F66
S1130F808091DB048823E1F31092DB0482E3E0EB3D
S1130F90F5E0DF011D928A95E9F70CEC16E00F2EBF
S1130FA0F0EDEF2EF6E0FF2EF02DF80181918F0188
S1130FB00E940C10F4D780E2EAD70E151F05A9F79A
S1130FC08AED93E0ECD78091DA048823E1F3109260
S1130FD0DA048091B0058F3409F0D9C080E290E240
S1130FE09093B1058093B0051092DD041092DC0457
S1130FF000EE14E0E12CF12CCC24C394D12C66E94E
S113100073E0C8010E942C11892B49F4F092DF048B
S1131010E092DE04D092DD04C092DC040CC06CECDF
S113102076E0C8010E942C11892B29F41092DD046A
S11310301092DC048FC0FFEFEF1AFF0A0B5F1F4F03
S113104084E1E816F104D9F68091DC049091DD0482
S1131050892B09F47FC08091DE049091DF049C0108
S1131060220F331F220F331F820F931F6CEC76E085
S113107080529B4F0E9435118091CA049091CB04F9
S1131080843191052CF401969093CB048093CA0487
S113109084E190E092D7BC01CE0149960E943511BB
S11310A02091CA043091CB0484E190E0821B930B1D
S11310B084D7BC01CE0145960E9435118EE0EAE149
S11310C0F1E08E010F5F1F4FD80101900D928A95B8
S11310D0E1F7FE013F9686E0DF011D928A95E9F76C
S11310E0BE016B5E7F4FC8010E942111F80101907F
S11310F00020E9F731978FE290E091838083BE016D
S1131100675E7F4FC8010E942111F8010190002001
S1131110E9F731978DE590E0918380838AE090E050
S11311209093E5058093E40585E090E0EEDE66DECD
S113113072D342EF52E060E080E05ED340EB55E0D2
S113114060E081E059D3A80160E082E055D382E0F9
S1131150B4DE32C08AE090E09093E5058093E40524
S113116085E090E0D2DE4ADE56D342EF52E060E002
S113117080E042D340EB55E062E081E03DD34BEFA9
S113118052E060E082E038D382E097DE15C083E06D
S113119090E0BBDE83E091DE3ED34EE053E060E0BE
S11311A080E02AD345E153E062E081E025D342E2C6
S11311B053E062E082E020D38AE0D7D682E393E072
S11311C0D8D680EB95E0D5D68AE0CFD60F2EF1EEB7
S11311D0CF2EF4E0DF2EF02D0F2EF5E4AF2EF5E048
S11311E0BF2EF02D8BE5C1D6F6013197808114D73F
S11311F0C0D6760100E010E080E2B7D60F5F1F4F43
S1131200F70181917F0108D7B4D603301105A1F706
S11312108DE5ABD68AE0A9D6F5E0CF0ED11CAC148F
S1131220BD0401F762C0813009F05FC000EE14E034
S11312300F2EF4E4EF2EF5E0FF2EF02D0F2EFAE042
S1131240CF2ED12CF02D6EED76E0C8010E942C112A
S1131250892BD1F485E0E6E9F3E0D80101900D9201
S11312608A95E1F78091CA049091CB0401979093F9
S1131270CB048093CA04D092F506C092F40684E0AD
S113128090E043DE82E019DE0B5F1F4F0E151F0551
S1131290D1F60F2EF1EECF2EF4E0DF2EF02D0F2E2F
S11312A0F5E4AF2EF5E0BF2EF02D8BE55ED6F6010A
S11312B031978081B1D65DD6760100E010E080E2FE
S11312C054D60F5F1F4FD7018D917D01A5D651D6FE
S11312D003301105A1F78DE548D68AE046D6B5E07E
S11312E0CB0ED11CCA14DB0401F71092DC066C96F9
S11312F00FB6F894DEBF0FBECDBFDF91CF911F9123
S11313000F91FF90EF90DF90CF90BF90AF90089532
S11313100F931F93CF93DF93CDB7DEB764970FB6C8
S1131320F894DEBF0FBECDBF789489E08ABBA49A3F
S1131330F894C2D5CAD5D7D586E090E063DD789419
S11313401092F8061092F9061092FA061092FB0613
S113135057DD60E875E280E090E0DAD560E875E298
S113136081E090E0D5D580E03AD481E038D4B9D199
S113137041E453E060E080E03FD246E553E060E0C2
S113138081E03AD24AE653E060E082E035D241E4BB
S113139053E060E083E030D281E08FDD2FEF81E124
S11313A09AE7215080409040E1F700C0000080E0BF
S11313B05ED480E0B2D481E05AD481E0AED42FE789
S11313C033E042E853E06EE873E08BE993E03FDCFE
S11313D00E9495018FE0EEE2F1E08E010F5F1F4F56
S11313E0D80101900D928A95E1F7FE01709685E08F
S11313F0DF011D928A95E9F7D8010D900020E9F7E5
S1131400119786E0E2EAF3E001900D928A95E1F704
S113141041E453E060E080E0EFD148EA53E060E06B
S113142081E0EAD1A80160E082E0E6D141E453E042
S113143060E083E0E1D185E040DDBFEF27EA81E6AB
S1131440B15020408040E1F700C00000E4D1E4D076
S1131450109246051092450564960FB6F894DEBFC7
S11314600FBECDBFDF91CF911F910F91089550DF33
S113147085E090E09093F5068093F4069093E5055B
S11314808093E4052FEF89E698E121508040904055
S1131490E1F700C000001092E5051092E4051092F7
S11314A0F5061092F406D79AC8EFD6E005E010E0EE
S11314B082ED94E0B8D882ED94E042DD8091AE05EF
S11314C09091AF05892B91F088859985AA85BB8574
S11314D081339547A105B10548F092DC1092AF0520
S11314E01092AE051092AF051092AE0580911407CC
S11314F090911507892B91F08C859D85AE85BF85CC
S1131500803E9E42A105B10549F486D0109215078C
S11315101092140710921507109214078091EE068A
S11315209091EF06892BE1F18C899D89AE89BF8961
S1131530883E9340A105B10529F41092E505109267
S1131540E4052EC08C899D89AE89BF89803197427C
S1131550A105B10539F485E0B0DC1093E5050093ED
S1131560E4051EC08C899D89AE89BF89803E9E4258
S1131570A105B105A9F41092E5051092E4058FEFD9
S113158095EA2EE0815090402040E1F700C0000031
S11315901092EF061092EE061092EF061092EE06ED
S11315A08091F0069091F106892B09F481CF888906
S11315B09989AA89BB89883E9340A105B10529F47C
S11315C01092F5061092F40673CF88899989AA8936
S11315D0BB8980319742A105B10539F485E06DDC02
S11315E01093F5060093F40663CF88899989AA8934
S11315F0BB89803E9E42A105B10509F059CF1092E6
S1131600F5061092F4061092F1061092F00610926C
S1131610F1061092F0064CCFCF93DF9300D000D0A8
S1131620CDB7DEB784E089831A8284E18B8380E1BD
S11316308C8344E050E0BE016F5F7F4F80910401D2
S11316404AD18111F6CF8FE39CE90197F1F700C0ED
S113165000000F900F900F900F90DF91CF9108959D
S1131660CF93DF9300D0CDB7DEB7807F982F9C60F7
S1131670998388608A8342E050E0BE016F5F7F4FA8
S11316808091040128D18111F6CF0F900F90DF9142
S1131690CF910895CF93DF9300D000D0CDB7DEB7BC
S11316A0982F907F292F2C60298398609A8320E1BA
S11316B0829FC0011124982F9C609B8388608C8337
S11316C044E050E0BE016F5F7F4F8091040103D17D
S11316D08111F6CF0F900F900F900F90DF91CF9163
S11316E00895BED02FEF89E698E1215080409040C4
S11316F0E1F700C000008DEB93E03BD480E3B0DF62
S11317008FE19EE40197F1F700C0000080E3A8DFB9
S11317108FE891E00197F1F700C0000080E3A0DFBB
S11317208FE891E00197F1F700C0000080E298DFB4
S11317308FE891E00197F1F700C0000088E2AADF8A
S113174087EC90E00197F1F700C0000088E0A2DF89
S113175087EC90E00197F1F700C0000081E09ADF88
S11317608FED9EE20197F1F700C0000086E092DF62
S113177087EC90E00197F1F700C000008CE08ADF6D
S113178087EC90E00197F1F700C000008DED93E045
S1131790F0C30895CF93DF9300D000D0CDB7DEB768
S11317A0982F907F292F2D60298399609A8320E1B7
S11317B0829FC0011124982F9D609B8389608C8334
S11317C044E050E0BE016F5F7F4F8091040183D0FD
S11317D08111F6CF0F900F900F900F90DF91CF9162
S11317E00895E82FF0E0EE0FFF1FED50FC4F8081CD
S11317F0860F80684FCF0895CF93DF93EA01F1DF1E
S11318008881882329F02196C5DF89918111FCCF35
S1131810DF91CF910895CF93DF9300D000D0CDB75F
S1131820DEB78CE0898388E08A838CE18B8388E14E
S11318308C8344E050E0BE016F5F7F4F80910401D0
S11318404AD08111F6CF8FE39CE90197F1F700C0EC
S113185000000F900F900F900F90DF91CF9108959B
S113186088E4809370000895E4E7F0E0108294EA3D
S1131870908390819923ECF790917100987F983030
S1131880A1F48093730084E880937400E4E7F0E0AB
S113189080818823ECF790917100987F983139F01A
S11318A081E0903429F480E0089581E0089580E097
S11318B008958093730084E880937400E4E7F0E073
S11318C080818823ECF790917100987F81E09832B1
S11318D009F480E00895CF92DF92FF920F931F9353
S11318E0CF93DF936B018A01BFDFF82E811117C0FC
S11318F00115110581F0E6010C0D1D1D8991D9DF3B
S1131900811110C08FE99FE00197F1F700C000003A
S11319100C171D0799F784E98093740005C0FF2410
S1131920F39402C0FF24F3948F2DDF91CF911F9184
S11319300F91FF90DF90CF9008951F93CF93DF9383
S1131940162F95B3C1E0D0E002C0CC0FDD1F4A953D
S1131950E2F72C2F2095922395BB880F8E77A3D284
S1131960812FA1D285B3C82BC5BBDF91CF911F9125
S11319700895CF93DF9395B3C1E0D0E002C0CC0FBC
S1131980DD1F6A95E2F72C2F2095922395BB880FD3
S11319908E77806888D28BD295B3C92BC5BBDF9173
S11319A0CF9108952F923F924F925F926F927F92C0
S11319B08F929F92AF92BF92CF92DF92EF92FF925B
S11319C00F931F93CF93DF93F82EA62EB72E442E9A
S11319D0222ED32E8CE0F81659F0EEE0FE1211C040
S11319E06894CC24C4F80F2EF2E13F2EF02D0BC0E6
S11319F00F2EF0E3CF2EF02D0F2EF7E73F2EF02D14
S1131A0002C0C12C312C4E2D632D606882E095DF1D
S1131A106E2D84E0AEDF682F6F774E2D84E08DDF6E
S1131A206E2D8AE0A6DF682F60684E2D8AE085DF80
S1131A304E2D60E081E081DF512C612C712C41142A
S1131A4051046104710499F0CA2DDB2D812C912C71
S1131A50540169914E2D89E070DFFFEF8F1A9F0AC0
S1131A60AF0ABF0A84149504A604B70490F34E2D5C
S1131A706F2D81E062DF8CE0F81208C06E2D8DE0DE
S1131A8078DF682F60684E2D8DE057DF6E2D84E07F
S1131A9070DFB82EC0E0D0E0EC2DE160CE2E0AC09D
S1131AA06E2D84E066DFB82E2196CF3CF7E0DF0789
S1131AB009F468C08C2D8B2199F36EC0832D81703D
S1131AC0B82211F0C2E001C0C1E08CE0F81273C08A
S1131AD06E2D8AE04EDF882E6E2D8CE04ADF282F93
S1131AE02770A9F0882D90E00197880F991F880F1F
S1131AF0991F880F991F820F911D092E000CAA0BA4
S1131B00BB0BF80180839183A283B38311C0882D1A
S1131B1090E0880F991F880F991F880F991F092E2D
S1131B20000CAA0BBB0BF80180839183A283B383BF
S1131B30882071F0882D813108F080E1882E912C65
S1131B40A12CB12C81149104A104B10429F433C053
S1131B50812C912C54018394022D1D2D412C512C48
S1131B6032016E2D89E005DFF80181938F01FFEFCB
S1131B704F1A5F0A6F0A7F0A481459046A047B04E7
S1131B8080F319C06E2D8DE0F4DE682F6F774E2D33
S1131B908DE0D3DEC3E00FC06E2D8DE0EADE682F4A
S1131BA06F774E2D8DE0C9DE6E2D86E0E2DE8B71FF
S1131BB009F484CFC3E08C2FDF91CF911F910F9153
S1131BC0FF90EF90DF90CF90BF90AF909F908F9059
S1131BD07F906F905F904F903F902F900895CF9398
S1131BE0C82F1F921F921F9281E08F9383E08F93DF
S1131BF017D184B3836084BB15BA2FEF89EF90E0CB
S1131C00215080409040E1F700C0000085B383601C
S1131C1085BB4C2F6FE081E090DE4C2F6DE88AE2AB
S1131C208CDE4C2F6EE38BE288DE4C2F6EE18CE26F
S1131C3084DE4C2F60E08DE280DE4C2F60E485E191
S1131C407CDE4C2F6DE381E178DE6C2F84E191DE44
S1131C50982F93700F900F900F900F900F9029F47E
S1131C60682F63604C2F84E168DECF910895CF9391
S1131C70DF93D82F682F87E37CDEC82F2FEF89EFFF
S1131C8090E0215080409040E1F700C00000D11165
S1131C9006C08BEF93E06DD1C23959F50FC087E0D0
S1131CA094E067D1C23991F512C083E194E061D127
S1131CB046E254E060E082E09FDDFFCF8AE394E0F7
S1131CC058D14EE554E060E082E096DD23C08AE31B
S1131CD094E04FD143E754E060E082E08DDD1AC028
S1131CE088E894E046D14EE554E060E082E084DD8B
S1131CF011C0C059C230C8F6F3CF88E894E039D196
S1131D0043E754E060E082E077DD04C0C059C230AC
S1131D1060F6F3CFDF91CF910895CF93C82F682F4A
S1131D2082E027DE682F60624C2F82E006DE6C2F93
S1131D3083E01FDE682F60684C2F83E0FEDDCF91C7
S1131D400895CF92DF92EF920F931F93CF93DF9377
S1131D5000D000D0CDB7DEB7182F6B01E42E67E0BA
S1131D608DE0EBDDF60110838E010F5F1F4F9601AE
S1131D7041E0B6018CE016DE813059F449815A8184
S1131D806B817C81403151056105710519F083E057
S1131D9001C083E00F900F900F900F90DF91CF91CF
S1131DA01F910F91EF90DF90CF900895CF92DF9223
S1131DB0EF920F931F93CF93DF9300D000D0CDB752
S1131DC0DEB76C01E62E462F60E08DE0B6DD83E9D8
S1131DD0F601808380E281838E010F5F1F4F96019D
S1131DE042E0B6018CE0DEDD813071F4F601A6013B
S1131DF04C5F5F4F90E0219192274E175F07D9F710
S1131E00F6012481921383E00F900F900F900F90AE
S1131E10DF91CF911F910F91EF90DF90CF900895B4
S1131E20CF93DF9300D01F92CDB7DEB78885833080
S1131E3021F1811132C029C09C9112969193E2172D
S1131E40F307D1F79B81923020F11B821DB88330B8
S1131E5071F4C09A87B3876087BB99818A81892B83
S1131E6080652EB19B81922B9EB98DB916C08111CC
S1131E7014C0BB9A80E48DB910C0DE011996FE012E
S1131E8031969E012C5F3F4FD7CF9B819230E8F66D
S1131E9002C01DB8DECF1DB8ECCF0F900F900F908D
S1131EA0DF91CF9108958FB9779BFECF08951FB826
S1131EB0779BFECF8FB10895BC9A8CE083BF8AEFE5
S1131EC081BF87B7826087BF089582E08FBD8AE1B2
S1131ED08EBD1DBC1CBC81E087BD8FE886BD87B765
S1131EE0846087BF0895139A80E480938B008AE10D
S1131EF080938A00109289001092880010928100C9
S1131F00109280000895909381008093800008953A
S1131F10CF93DF93EC019B0140E050E060E472E476
S1131F208FE090E04FD121503109209759F4109857
S1131F303093900029B988E18AB9579A86E0809352
S1131F40950010C0219771F4309398002093990064
S1131F50EAE9F0E088E1808380818068808386E01C
S1131F6080939D00DF91CF9108955D9BFECF8CB946
S1131F700895CF93DF93EC018881882329F021967B
S1131F80F4DF89918111FCCFDF91CF910895EBE9C2
S1131F90F0E0908195FFFDCF80939C000895CF934E
S1131FA0DF93EC018881882329F02196F0DF899161
S1131FB08111FCCFDF91CF9108950F931F93CF939D
S1131FC0DF93CDB7DEB764970FB6F894DEBF0FBECC
S1131FD0CDBF9F938F938CEA94E09F938F938E0150
S1131FE00F5F1F4F1F930F934FD1B8018CE496E0FE
S1131FF03CD10F900F900F900F900F900F908CE4A6
S113200096E064960FB6F894DEBF0FBECDBFDF91A5
S1132010CF911F910F9108950F931F93CF93DF9347
S1132020CDB7DEB764970FB6F894DEBF0FBECDBF51
S11320301F928F9381EB94E09F938F938E010F5F98
S11320401F4F1F930F9320D1B8018CE496E00DD15C
S11320500F900F900F900F900F900F908CE496E0DC
S113206064960FB6F894DEBF0FBECDBFDF91CF915B
S11320701F910F910895CF92DF92EF92FF920F93E9
S11320801F93CF93DF93CDB7DEB7C054D1090FB6FA
S1132090F894DEBF0FBECDBF6B017A0120E4ECE8FB
S11320A0F6E0DF011D922A95E9F7BC018E010F5F6E
S11320B01F4FC801DAD0B601C801C3D0F80101909E
S11320C00020E9F7319782E29CE29183808382E2E7
S11320D090E093838283B701C801B3D0F8010190E3
S11320E00020E9F7319782E29DE0918380838AE0C2
S11320F090E093838283B8018CE896E0B6D08CE8B4
S113210096E0C05CDF4F0FB6F894DEBF0FBECDBFC4
S1132110DF91CF911F910F91FF90EF90DF90CF90BF
S11321200895EF92FF920F931F93CF93DF93CDB750
S1132130DEB7C054D1090FB6F894DEBF0FBECDBFD1
S11321409C017B0180E4ECE8F6E0DF011D928A95B6
S1132150E9F794E1E6EBF4E08E010F5F1F4FD8013D
S113216001900D929A95E1F7B901C8016AD0F8017E
S113217001900020E9F7319782E29CE29183808309
S11321801282B701C8015DD0F80101900020E9F77F
S113219031978DE09AE0918380831282B8018CE8B4
S11321A096E063D08CE896E0C05CDF4F0FB6F894FD
S11321B0DEBF0FBECDBFDF91CF911F910F91FF9076
S11321C0EF900895A1E21A2EAA1BBB1BFD010DC0BE
S11321D0AA1FBB1FEE1FFF1FA217B307E407F507D3
S11321E020F0A21BB30BE40BF50B661F771F881FAF
S11321F0991F1A9469F760957095809590959B0145
S1132200AC01BD01CF010895FC0188279927E8940A
S113221021912032E9F3293010F02E30C8F32B320B
S113222039F02D3231F4689403C026D0820F911D09
S1132230219120532A30C8F31EF4909581959F4F25
S11322400895FB01DC010D900020E9F7119701903E
S11322500D920020E1F70895FB01DC018D910190BE
S113226080190110D9F3990B0895FB01DC01019049
S11322700D920020E1F708957AE0979F902D879FB3
S1132280802D910D112408950F931F93CF93DF9305
S1132290CDB7DEB72E970FB6F894DEBF0FBECDBF15
S11322A00D891E8986E08C831A8309838FEF9FE74B
S11322B09E838D83AE01475E5F4F6F89788DCE011B
S11322C0019610D0EF81F885E00FF11F10822E9651
S11322D00FB6F894DEBF0FBECDBFDF91CF911F9133
S11322E00F9108952F923F924F925F926F927F9237
S11322F08F929F92AF92BF92CF92DF92EF92FF9212
S11323000F931F93CF93DF93CDB7DEB72B970FB601
S1132310F894DEBF0FBECDBF6C017B018A01FC01C6
S113232017821682838181FFBFC1CE0101963C01D1
S1132330F6019381F70193FD859193FF81917F01CC
S1132340882309F4ADC1853239F493FD859193FF57
S113235081917F01853221F4B60190E0D6D1E8CF96
S1132360912C212C312CFFE1F315D8F08B3279F02C
S113237038F4803279F08332A1F4232D20611DC01A
S11323808D3261F0803369F4232D216016C0832DD2
S11323908260382EE32DE4603E2E2AC0F32DF860CF
S11323A01DC037FC2DC020ED280F2A3040F08E329E
S11323B0B9F436FC75C1232D2064322E19C036FEC3
S11323C006C08AE0989E200D1124922E11C0EAE0E6
S11323D02E9E200D1124222EF32DF0623F2E08C0D4
S11323E08C3621F4832D8068382E02C0883641F45F
S11323F0F70193FD859193FF81917F018111B3CF03
S1132400982F9F7D9554933028F40C5F1F4F9FE3C2
S113241099830DC0833631F0833771F0833509F029
S113242055C020C0F801808189830E5F1F4F882426
S11324308394912C530112C02801F2E04F0E511CD9
S1132440F801A080B18036FE03C0692D70E002C09F
S11324506FEF7FEFC5014ED14C018201F32DFF7761
S11324603F2E15C0280122E0420E511CF801A08025
S1132470B18036FE03C0692D70E002C06FEF7FEFBC
S1132480C5012DD14C01F32DF0683F2E820133FCA0
S113249019C0822D90E088169906A0F4B60180E256
S11324A090E033D12A94F5CFF50137FC859137FEBE
S11324B081915F01B60190E028D121102A9421E096
S11324C0821A91088114910479F7E1C0843611F0DD
S11324D0893639F5F80137FE07C060817181828140
S11324E093810C5F1F4F08C060817181072E000C1F
S11324F0880B990B0E5F1F4FF32DFF763F2E97FF2E
S113250009C090958095709561957F4F8F4F9F4F2F
S1132510F0683F2E2AE030E0A30133D1882E8618DC
S113252044C0853731F4232D2F7EB22E2AE030E0CB
S113253025C0932D997FB92E8F36C1F018F48835B4
S113254079F0AEC0803719F0883721F0A9C0E92F9F
S1132550E061BE2EB4FE0DC0FB2DF460BF2E09C099
S113256034FE0AC0292F2660B22E06C028E030E0CF
S113257005C020E130E002C020E132E0F801B7FEFE
S113258007C060817181828193810C5F1F4F06C0F7
S11325906081718180E090E00E5F1F4FA301F1D054
S11325A0882E8618FB2DFF773F2E36FE0DC0232D77
S11325B02E7FA22E891458F434FE0BC032FC09C0BD
S11325C0832D8E7EA82E05C0B82CA32C03C0B82C56
S11325D001C0B92CA4FE0FC0FE01E80DF11D8081DD
S11325E0803321F49A2D997EA92E09C0A2FE06C03B
S11325F0B394B39404C08A2D867809F0B394A3FCF1
S113260010C0A0FE06C0B21480F4280C922C9B18B3
S11326100DC0B21458F4B60180E290E076D0B394C1
S1132620F8CFB21418F42B1802C0982C212CA4FE55
S11326300FC0B60180E390E068D0A2FE16C0A1FCF2
S113264003C088E790E002C088E590E0B6010CC0C2
S11326508A2D867851F0A1FE02C08BE201C080E28F
S1132660A7FC8DE2B60190E050D0891430F4B60195
S113267080E390E04AD09A94F8CF8A94F301E80D6D
S1132680F11D8081B60190E040D08110F6CF222068
S113269009F44ECEB60180E290E037D02A94F7CF09
S11326A0F6018681978102C08FEF9FEF2B960FB6BC
S11326B0F894DEBF0FBECDBFDF91CF911F910F9174
S11326C0FF90EF90DF90CF90BF90AF909F908F904E
S11326D07F906F905F904F903F902F900895FC01F2
S11326E00590615070400110D8F7809590958E0F39
S11326F09F1F0895FC016150704001900110D8F7AC
S1132700809590958E0F9F1F08950F931F93CF93DD
S1132710DF93FB01238121FD03C08FEF9FEF2CC0CA
S113272022FF16C046815781248135814217530701
S113273044F4A081B1819D012F5F3F4F31832083F9
S11327408C93268137812F5F3F4F3783268314C0B4
S11327508B01EC01FB010084F185E02D0995892BA7
S1132760E1F6D80116968D919C91179701961796CC
S11327709C938E931697CE01DF91CF911F910F9169
S11327800895FA01AA27283051F1203181F1E89403
S11327906F936E7F6E5F7F4F8F4F9F4FAF4FB1E050
S11327A03ED0B4E03CD0670F781F891F9A1FA11D4B
S11327B0680F791F8A1F911DA11D6A0F711D811D4C
S11327C0911DA11D20D009F468943F912AE0269F11
S11327D011243019305D3193DEF6CF010895462F70
S11327E04770405D4193B3E00FD0C9F7F6CF462F51
S11327F04F70405D4A3318F0495D31FD40524193BA
S113280002D0A9F7EACFB4E0A69597958795779576
S11328106795BA95C9F700976105710508959B01FD
S1132820AC010A2E06945795479537952795BA9586
S1132830C9F7620F731F841F951FA01D0895F89494
S1052840FFCFC4
S1132842010058584E45525220436F64653A0000C5
S113285200000000000000000000456D7074792043
S113286253706163653D5B00000000000000204678
S113287269726D77617265205665722000000000EE
S1132882000020202020204F4F4F4F4F4F4F4F4FDB
S11328924F2020202020000A0961736369693A20CD
S11328A2000A096465633A20000A096865783A20D7
S11328B2005B434845434B2055494428434830294B
S11328C25D3A20005B434845434B20554944284325
S11328D24831295D3A2000496E697469616C20654A
S11328E272722E00506C7A2C20547279696E6720B1
S11328F272657365742E0041542B5253540D0A00B1
S113290241542B5253540020202020204F4F4F5F1C
S11329125F5F5F5F5F5F20202020200041542B47D0
S11329224D520D0A0041542B474D520041542B4342
S1132932574D4F44453D310D0A0041542B43574DE9
S11329424F44450020202020204F4F4F4F5F5F5FB0
S11329525F5F5F20202020200041542B43574D4FBE
S113296244453F0D0A0041542B43574D4F44453FC4
S11329720041542B43574C41500D0A0041542B4300
S1132982574C41500020202020204F4F4F4F4F5F83
S11329925F5F5F5F20202020200041542B43574A71
S11329A241503D220041542B43574A4150002020BC
S11329B22020204F4F4F4F4F4F5F5F5F5F202020FB
S11329C220200041542B43494653520D0A004154DE
S11329D22B43494653520020202020204F4F4F4F73
S11329E24F4F4F5F5F5F20202020200041542B4334
S11329F2495053544152540020202020204F4F4F1D
S1132A024F4F4F4F4F5F5F20202020200020202077
S1132A1220204F4F4F4F4F4F4F4F4F5F20202020CA
S1132A22200041542B43495053454E443D31310D0E
S1132A320A0057656C636F6D652C00416C726561A9
S1132A426479205265636F676E697A656400536FB7
S1132A527272792C0054686973206361726420690C
S1132A6273006E6F7420726567697374657265644E
S1132A722E0046726F6D20736572766572203A205D
S1132A82003D3D3D3D3D3D3D3D3D3D3D3D3D3D3DAD
S1132A923D3D3D3D3D00202053595354454D204278
S1132AA24F4F54494E472E2E2E0020202020205FC7
S1132AB25F5F5F5F5F5F5F5F5F20202020200032E7
S1132AC233003137322E32302E31302E33006877D4
S1132AD2687768776877303030300043686F6948C8
S1132AE25700312E3930760020205061726B696EA6
S1132AF2672053797374656D202020200042656637
S1132B026F726520693263206C636420496E697454
S1132B1269616C697A652E2E2E200D0A0069326372
S1132B2220434C434420436F6E6E656374204F6BA5
S1132B320D0A0000004000140054000A5B6368613F
S1132B426E6E656C2030000A5B6368616E6E656C44
S1132B52203100204E6F2072656164657220666FB9
S1132B62756E645D0A004572726F722C20506C7A25
S1132B722043484B2052464944002044657465630F
S1132B827465642056657273696F6E5D3A204D49AF
S1132B924641524520524335323276320A002020D1
S1132BA22020204F5F5F5F5F5F5F5F5F5F202020B9
S1132BB220200020202020204F4F5F5F5F5F5F5F57
S1132BC25F5F2020202020002044657465637465C3
S1132BD2642056657273696F6E5D3A204D494641B1
S1132BE2524520524335323276310A00253032645E
S1132BF200253032580041542B434950535441521A
S10D2C02543D22544350222C2200BA
S9030000FC
