S02300007061726B696E675F73797374656D5F70726F6A6563745F302E31762E7372656357
S113000045C0000062C0000060C000005EC0000087
S11300105CC000005AC0000058C0000056C0000078
S113002054C0000052C0000050C000004EC0000088
S11300304CC000004AC0000048C0000002C50000D7
S113004044C0000042C0000041C000003EC00000A7
S11300503CC000003AC0000038C0000036C00000B8
S113006034C0000032C0000030C000002EC00000C8
S11300702CC000002AC0000054C0000026C00000AC
S113008024C0000022C0000020C0000011241FBEB4
S1130090CFEFD0E1DEBFCDBF14E0A0E0B1E0EAE5F0
S11300A0F4E200E00BBF02C007900D92AA3EB10734
S11300B0D9F726E0AAEEB4E001C01D92A63CB2072F
S11300C0E1F70E94F1080C942B129ACF1F920F9221
S11300D00FB60F9211240BB60F922F933F934F93A9
S11300E05F936F937F938F939F93AF93BF93EF939C
S11300F0FF938CB180937D050E94D30DFF91EF9106
S1130100BF91AF919F918F917F916F915F914F912B
S11301103F912F910F900BBE0F900FBE0F901F9029
S113012018951F920F920FB60F9211240BB60F92CF
S11301301F932F933F934F935F936F937F938F936B
S11301409F93AF93BF93EF93FF93CF93DF9300D02D
S11301501F92CDB7DEB710919C001E3321F481E0CD
S11301608093F80442C01F3421F481E08093F404A6
S11301703CC01B3451F48091F404813009F087C0F1
S11301808093F6041092F40430C01092F4041B32ED
S113019021F481E08093F30476C0193441F4809112
S11301A0F304813011F582E08093F3046CC01035C0
S11301B041F48091F3048230C1F483E08093F3042A
S11301C062C0143441F48091F304833071F484E008
S11301D08093F30458C01C3241F48091F3048430BA
S11301E021F485E08093F3044EC08091F3048530BC
S11301F091F41093F50486E08093F3048091F50460
S113020089831A82CE0101960E94100F9093B90639
S11302108093B80638C08630C1F41A3371F08091E7
S1130220F50489831A831B82CE0101960E94100F64
S11302309093B9068093B80626C01092F3041092E6
S1130240F20481E08093F1041EC08091F1048823BC
S1130250C1F08091F204E82FF0E0E258FA4F1083E5
S11302608F5F8093F2042091B8063091B90690E034
S11302708217930741F481E08093F7041092F1040C
S113028002C01092F304812F0E94C10D03C010928A
S1130290F404ABCF0F900F900F90DF91CF91FF91AB
S11302A0EF91BF91AF919F918F917F916F915F91EA
S11302B04F913F912F911F910F900BBE0F900FBE46
S11302C00F901F9018958DEF94E046E155E025E0DE
S11302D0E4E4F1E0DC0101900D922A95E1F7059642
S11302E084179507A1F749E451E060E082E00E9499
S11302F0160A2FEF89E698E1215080409040E1F7FB
S113030000C000000895CF92DF92EF92FF920F9306
S11303101F93CF93C62F8130910569F182309105E7
S113032009F455C0892B09F07EC08EE591E00E9446
S1130330C50D06E916E00F2EF8EAEF2EF6E0FF2EC3
S1130340F02D0F2EFAE9CF2EF6E0DF2EF02DC1119D
S113035005C0F80180810E94C10D04C0F7018081AD
S11303600E94C10D0F5F1F4FFFEFEF1AFF0A0C151C
S11303701D0569F758C088E691E00E94C50D06E99D
S113038016E00F2EF8EAEF2EF6E0FF2EF02D0F2EDA
S1130390FAE9CF2EF6E0DF2EF02DC11108C0F801E6
S11303A0808190E00E94E90D0E94C50D07C0F7010D
S11303B0808190E00E94E90D0E94C50D0F5F1F4FE0
S11303C0FFEFEF1AFF0A0C151D0539F72CC080E763
S11303D091E00E94C50D06E916E00F2EF8EAEF2E13
S11303E0F6E0FF2EF02D0F2EFAE9CF2EF6E0DF2EE9
S11303F0F02DC11107C0F80180810E94180E0E94DF
S1130400C50D06C0F70180810E94180E0E94C50D1B
S113041080E20E94C10D0F5F1F4FFFEFEF1AFF0A2A
S11304200C151D0531F7CF911F910F91FF90EF909F
S1130430DF90CF900895CF938091EF04811109C08C
S113044040E066E976E082E50E94BB0C8093EE040E
S11304501DC08091ED04882339F040E066E976E020
S113046082E50E94BB0C0CC040E066E976E082E5C0
S11304700E94BB0C8093EE04833011F41092EF04BD
S11304809091ED0481E089278093ED04C091EE04FE
S1130490C13029F088E580930501C0E02CC080912B
S11304A00501883529F58FE48093050181E0809367
S11304B0EF048093ED0460E086E996E00E94F00C7E
S11304C08093EE048130B1F488E791E00E94C50D79
S11304D060E080E090E017DF60E081E090E013DF0F
S11304E060E082E090E00FDF8AE00E94C10D03C06B
S11304F0C0E001C0CFEF8C2FCF910895CF938091AE
S1130500EC04811109C041E068EA76E082E50E94CA
S1130510BB0C8093EB041DC08091EA04882339F05E
S113052041E068EA76E082E50E94BB0C0CC041E041
S113053068EA76E082E50E94BB0C8093EB0483308A
S113054011F41092EC049091EA0481E089278093DD
S1130550EA04C091EB04C13029F088E580930401DA
S1130560C0E02CC080910401883529F58FE4809384
S1130570040181E08093EC048093EA0461E088EA5A
S113058096E00E94F00C8093EB048130B1F48BE888
S113059091E00E94C50D61E080E090E0B4DE61E08E
S11305A081E090E0B0DE61E082E090E0ACDE8AE0E1
S11305B00E94C10D03C0C0E001C0CFEF8C2FCF91CA
S11305C00895CF93DF93EC016091BA067091BB0656
S11305D08091BC069091BD0624E630E040E050E0F6
S11305E00E94EE0E672B682B692B89F4988181E0B9
S11305F089278883811106C01EDF8093A606109286
S11306009A0605C07BDF8093A6061092AC06DF91A4
S1130610CF9108951092BE061092BF061092C006A4
S11306201092C106823099F028F4882349F0813071
S113063051F01CC0843099F070F08530A1F016C0E0
S11306401092160513C081E0809316050FC082E056
S1130650809316050BC083E08093160507C084E0E1
S11306608093160503C085E0809316051092BE069C
S11306701092BF061092C0061092C1060895EBE8CE
S1130680F0E080818F7B8083109216050895009797
S113069041F0EBE8F0E02081206420830C948F0D7E
S11306A00895EBE8F0E080818F7B8083089580914A
S11306B01605823009F476C028F4882361F081306D
S11306C061F00895843009F437C108F4D0C085304E
S11306D009F475C10895D3CF08958091BE06909111
S11306E0BF06A091C006B091C106883C9105A10542
S11306F0B10520F48BE996E0CACF08958091BE0637
S11307009091BF06A091C006B091C106883C9105A6
S1130710A105B10521F487EE95E0B9CF0895809144
S1130720BE069091BF06A091C006B091C106803963
S11307309140A105B10521F485E694E0A8CF089580
S11307408091BE069091BF06A091C006B091C106EB
S113075088359240A105B10521F48DEF93E097CF40
S113076008958091BE069091BF06A091C006B091F5
S1130770C10680329340A105B10521F488EF92E0CF
S113078086CF08958091BE069091BF06A091C006C1
S1130790B091C106803B9440A105B10509F050C158
S11307A06ECF08958091BE069091BF06A091C006B9
S11307B0B091C106883C9105A105B10520F48BE9EF
S11307C096E065CF08958091BE069091BF06A091F2
S11307D0C006B091C106823D9105A105B10521F481
S11307E080E090E054CF08958091BE069091BF06BA
S11307F0A091C006B091C1068C3D9105A105B1053B
S113080021F487EE95E043CF08958091BE06909140
S1130810BF06A091C006B091C10680399140A105E0
S1130820B10521F480E090E032CF08958091BE06B6
S11308309091BF06A091C006B091C1068E3A914036
S1130840A105B10521F485E694E021CF08958091B6
S1130850BE069091BF06A091C006B091C10688352E
S11308609240A105B10509F0EBC009CF089580912C
S1130870BE069091BF06A091C006B091C1068B340C
S11308809105A105B10520F482E194E000CF08951B
S11308908091BE069091BF06A091C006B091C1069A
S11308A086399105A105B10520F480E090E0EFCEF2
S11308B008958091BE069091BF06A091C006B091A4
S11308C0C106813E9105A105B10520F482E194E0C1
S11308D0DECE08958091BE069091BF06A091C00619
S11308E0B091C1068C329140A105B10520F480E09D
S11308F090E0CDCE08958091BE069091BF06A09160
S1130900C006B091C10687379140A105B10520F416
S113091082E194E0BCCE08958091BE069091BF061A
S1130920A091C006B091C106823C9140A105B105D9
S113093009F086C0A4CE08958091BE069091BF06AA
S1130940A091C006B091C10684369105A105B105F8
S113095020F482E194E09BCE08958091BE069091AC
S1130960BF06A091C006B091C106883C9105A105BF
S1130970B10520F480E090E08ACE08958091BE060F
S11309809091BF06A091C006B091C1068C329140EF
S1130990A105B10520F482E194E079CE0895809117
S11309A0BE069091BF06A091C006B091C106823CDC
S11309B09140A105B10509F043C061CE089580912D
S11309C0BE069091BF06A091C006B091C1068436C0
S11309D09105A105B10520F487E490E158CE08956E
S11309E08091BE069091BF06A091C006B091C10649
S11309F0883C9105A105B10520F480E090E047CE44
S1130A0008958091BE069091BF06A091C006B09152
S1130A10C1068C329140A105B10520F484E298E02E
S1130A2036CE08958091BE069091BF06A091C0066F
S1130A30B091C106823C9140A105B10509F41FCED5
S1130A4008951F920F920FB60F9211240BB60F92B6
S1130A502F933F934F935F936F937F938F939F93C2
S1130A60AF93BF93EF93FF93EAEBF6E08481958114
S1130A70A681B7810196A11DB11D84839583A683A8
S1130A80B78380819181A281B3810196A11DB11D9B
S1130A9080839183A283B38380859185A285B38566
S1130AA00196A11DB11D80879187A287B387FFDDC1
S1130AB0FF91EF91BF91AF919F918F917F916F9132
S1130AC05F914F913F912F910F900BBE0F900FBEEE
S1130AD00F901F9018951092BA061092BB061092B0
S1130AE0BC061092BD0681E090E0909303018093D0
S1130AF0020108951092C2061092C3061092C40611
S1130B001092C50610920101109200010895CF932E
S1130B10DF93CDB7DEB765970FB6F894DEBF0FBE8F
S1130B20CDBFBC019AE0E7E0F1E0DE01119601904F
S1130B300D929A95E1F7FE013B968BE0DF011D9241
S1130B408A95E9F7CE0101960E942D0F7ED44EE9D5
S1130B5051E060E081E06AD44BEA51E060E082E079
S1130B6065D4AE014F5F5F4F60E083E05FD465966C
S1130B700FB6F894DEBF0FBECDBFDF91CF910895BD
S1130B804091C2065091C3066091C4067091C50697
S1130B90413157426105710538F021E030E030936E
S1130BA0010120930001B3DF8091000190910101C4
S1130BB00097F1F70895CF92DF92EF92FF920F938F
S1130BC01F93CF93DF937C016B01EA01890192DFCC
S1130BD08EEB91E0F0D72FEF81E19AE7215080402E
S1130BE09040E1F700C0000087EC91E0C9DF4EECD3
S1130BF051E060E082E01AD47DDF83EE91E0DBD740
S1130C008091F604811107C08CEE91E0B9DF8091E8
S1130C10F6048823C9F31092F6046CDF83EF91E0A5
S1130C20CAD72FEF87EA91E6215080409040E1F740
S1130C3000C000001092F60481E092E0A1DF4BE0D6
S1130C4052E060E082E0F2D355DF80E292E0B3D775
S1130C508091F604811107C08DE292E091DF8091CA
S1130C60F6048823C9F31092F60444DF88E392E083
S1130C70A2D78091F604811107C083E492E080DF5B
S1130C808091F6048823C9F31092F6044CE452E0F0
S1130C9060E082E0CBD32EDFA601B70181E692E0CB
S1130CA0F6D789D78091F604811107C08CE692E0CB
S1130CB067DF8091F6048823C9F31092F60445E7B0
S1130CC052E060E082E0B2D315DF8AE892E073D7A5
S1130CD08091F604811107C085E992E051DF80918B
S1130CE0F6048823C9F31092F6044EE952E060E05A
S1130CF082E09CD3FFDEB801CE010E949D0E5BD73B
S1130D008091F604811107C083EB92E039DF809172
S1130D10F6048823C9F31092F6044FEB52E060E026
S1130D2082E084D32FEF81EE94E021508040904004
S1130D30E1F700C0000044ED52E060E082E076D3C9
S1130D40DF91CF911F910F91FF90EF90DF90CF90A3
S1130D500895AC9A0895AF92BF92CF92DF92EF922A
S1130D60FF920F931F93CF93DF93CDB7DEB7CE548B
S1130D70D1090FB6F894DEBF0FBECDBF9C01909190
S1130D80A606913009F071C1F9018081811128C151
S1130D9089EE92E010D78091F8048823E1F3109251
S1130DA0F80482E3EEE7F5E0DF011D928A95E9F7A6
S1130DB006E916E00F2EFAE9EF2EF6E0FF2EF02DED
S1130DC0F80181918F0134D7F6D680E2ECD60E1566
S1130DD01F05B1F788EF93E0EED68091F7048823DE
S1130DE0E1F31092F70480917E058F3409F0B0C0CE
S1130DF06EE775E0CE0101960E94410F88E499E404
S1130E009A83898368DEA5DF1092FA041092F904AC
S1130E100DEF14E0E12CF12CCC24C394D12C64E428
S1130E2071E0C8010E94380F892B49F4F092FC0448
S1130E30E092FB04D092FA04C092F9040CC066E973
S1130E4076E0C8010E94380F892B29F41092FA0425
S1130E501092F9046BC0FFEFEF1AFF0A0B5F1F4FEC
S1130E6085E0E816F104D9F68091F9049091FA042A
S1130E70892B09F45BC08091FB049091FC049C01D4
S1130E80220F331F220F331F820F931F66E976E070
S1130E9083509B4FF6D785E090E09BD6BC01CE01F2
S1130EA0855B9F4FEED784E090E093D6BC01CE01E2
S1130EB0895B9F4FE6D78EE0ECE1F1E0DE01D3964B
S1130EC001900D928A95E1F7FE01EF5BFF4F86E0FA
S1130ED0DF011D928A95E9F78E010D5C1F4FBE015B
S1130EE0695B7F4FC801B9D7F80101900020E9F789
S1130EF031978FE290E091838083A7D249EF52E04B
S1130F0060E080E093D2AE014F5F5F4F62E081E02A
S1130F108DD242E053E060E082E088D247E153E0C2
S1130F206DE082E083D282E075DB24C08ED249EF8B
S1130F3052E060E080E07AD2AE014F5F5F4F62E042
S1130F4081E074D24AE153E060E082E06FD212C0E3
S1130F507CD24DE253E060E080E068D244E353E0A9
S1130F6062E081E063D241E453E062E082E05ED279
S1130F7084E050DB8AE005D681E593E006D68EE76F
S1130F8095E003D68AE0FDD50F2EFDEFCF2EF4E0D9
S1130F90DF2EF02D0F2EF6E1AF2EF5E0BF2EF02D53
S1130FA08BE5EFD5F60181917F0142D6EED500E0C5
S1130FB010E080E2E6D50F5F1F4FD7018D917D01D0
S1130FC037D6E3D503301105A1F78DE5DAD58AE0EC
S1130FD0D8D5B5E0CB0ED11CAC14BD0409F745C07F
S1130FE0813009F042C00F2EFDEFCF2EF4E0DF2E4A
S1130FF0F02D0F2EF6E1AF2EF5E0BF2EF02D860179
S113100068EA76E0C80134D7892B59F485E0E4E432
S1131010F1E0D80101900D928A95E1F75CDD82E060
S1131020F9DA0B5F1F4F0A151B0551F78BE5A9D59C
S1131030F60181917F01FCD5A8D500E010E080E2A3
S1131040A0D50F5F1F4FD7018D917D01F1D59DD59F
S113105003301105A1F78DE594D58AE092D5B5E06A
S1131060CB0ED11CCA14DB0409F71092A606C25B8E
S1131070DF4F0FB6F894DEBF0FBECDBFDF91CF9127
S11310801F910F91FF90EF90DF90CF90BF90AF90A2
S11310900895AC9808950F931F93CF93DF93CDB722
S11310A0DEB764970FB6F894DEBF0FBECDBF789459
S11310B08FE08ABBA49AF89419D521D5789410921C
S11310C0BA061092BB061092BC061092BD06E1DF70
S11310D080E09FD381E09DD360E875E280E090E0FA
S11310E023D560E875E281E090E01ED514D140E696
S11310F053E060E080E09AD145E753E060E081E0AE
S113110095D149E853E060E082E090D140E653E0B5
S113111060E083E08BD181E07DDA2FEF81E19AE713
S1131120215080409040E1F700C0000080E0B9D336
S113113080E00DD481E0B5D381E009D42EE933E019
S113114043EA53E061EB73E08AEB93E034DDBBD810
S11311508FE0E0E3F1E08E010F5F1F4FD8010190B3
S11311600D928A95E1F7FE01709685E0DF011D92EC
S11311708A95E9F7D8010D900020E9F7119786E0E8
S1131180E0ECF3E001900D928A95E1F740E653E03C
S113119060E080E04BD146EC53E060E081E046D172
S11311A0A80160E082E042D140E653E060E083E0E1
S11311B03DD185E02FDABFEF27EA81E6B150204028
S11311C08040E1F700C0000040D140D064960FB6E3
S11311D0F894DEBF0FBECDBFDF91CF911F910F9169
S11311E0089559DFCAEBD6E080EF94E0EAD980EFA6
S11311F094E0B1DD80910201909103010197A1F780
S113120088819981AA81BB8188359B41A105B1055B
S113121019F484E0FFD9E8CF88819981AA81BB8140
S113122080319742A105B10511F410D0DDCF88813A
S11312309981AA81BB81813E9E42A105B105A0F29C
S113124028DF1092030110920201CECFCF93DF93D7
S113125000D000D0CDB7DEB784E089831A8284E160
S11312608B8380E18C8344E050E0BE016F5F7F4F4D
S1131270809106014AD18111F6CF8FE39CE9019751
S1131280F1F700C000000F900F900F900F90DF91C6
S1131290CF910895CF93DF9300D0CDB7DEB7807F91
S11312A0982F9C60998388608A8342E050E0BE0155
S11312B06F5F7F4F8091060128D18111F6CF0F9087
S11312C00F90DF91CF910895CF93DF9300D000D09A
S11312D0CDB7DEB7982F907F292F2C602983986093
S11312E09A8320E1829FC0011124982F9C609B83E4
S11312F088608C8344E050E0BE016F5F7F4F809133
S1131300060103D18111F6CF0F900F900F900F902B
S1131310DF91CF910895BED02FEF89E698E1215057
S113132080409040E1F700C000008BED93E02DD4A5
S113133080E3B0DF8FE19EE40197F1F700C0000085
S113134080E3A8DF8FE891E00197F1F700C0000087
S113135080E3A0DF8FE891E00197F1F700C000007F
S113136080E298DF8FE891E00197F1F700C0000078
S113137088E2AADF87EC90E00197F1F700C0000053
S113138088E0A2DF87EC90E00197F1F700C000004D
S113139081E09ADF8FED9EE20197F1F700C0000033
S11313A086E092DF87EC90E00197F1F700C000003F
S11313B08CE08ADF87EC90E00197F1F700C0000031
S11313C08BEF93E0E2C30895CF93DF9300D000D076
S11313D0CDB7DEB7982F907F292F2D602983996090
S11313E09A8320E1829FC0011124982F9D609B83E2
S11313F089608C8344E050E0BE016F5F7F4F809131
S1131400060183D08111F6CF0F900F900F900F90AB
S1131410DF91CF910895E82FF0E0EE0FFF1FEF5E0C
S1131420FB4F8081860F80684FCF0895CF93DF9361
S1131430EA01F1DF8881882329F02196C5DF8991AB
S11314408111FCCFDF91CF910895CF93DF9300D02A
S113145000D0CDB7DEB78CE0898388E08A838CE145
S11314608B8388E18C8344E050E0BE016F5F7F4F43
S1131470809106014AD08111F6CF8FE39CE9019750
S1131480F1F700C000000F900F900F900F90DF91C4
S1131490CF91089588E4809370000895E4E7F0E024
S11314A0108294EA908390819923ECF790917100D3
S11314B0987F9830A1F48093730084E8809374003B
S11314C0E4E7F0E080818823ECF790917100987F45
S11314D0983139F081E0903429F480E0089581E076
S11314E0089580E008958093730084E880937400E5
S11314F0E4E7F0E080818823ECF790917100987F15
S113150081E0983209F480E00895CF92DF92FF924F
S11315100F931F93CF93DF936B018A01BFDFF82EE4
S1131520811117C00115110581F0E6010C0D1D1D77
S11315308991D9DF811110C08FE99FE00197F1F7FC
S113154000C000000C171D0799F784E9809374000C
S113155005C0FF24F39402C0FF24F3948F2DDF9180
S1131560CF911F910F91FF90DF90CF9008951F931B
S1131570CF93DF93162F95B3C1E0D0E002C0CC0F18
S1131580DD1F4A95E2F72C2F2095922395BB880FF7
S11315908E77A3D2812FA1D285B3C82BC5BBDF918F
S11315A0CF911F910895CF93DF9395B3C1E0D0E01D
S11315B002C0CC0FDD1F6A95E2F72C2F20959223F1
S11315C095BB880F8E77806888D28BD295B3C92B50
S11315D0C5BBDF91CF9108952F923F924F925F92B6
S11315E06F927F928F929F92AF92BF92CF92DF922F
S11315F0EF92FF920F931F93CF93DF93F82EA62EB3
S1131600B72E442E222ED32E8CE0F81659F0EEE09D
S1131610FE1211C06894CC24C4F80F2EF2E13F2EC0
S1131620F02D0BC00F2EF0E3CF2EF02D0F2EF7E789
S11316303F2EF02D02C0C12C312C4E2D632D60683D
S113164082E095DF6E2D84E0AEDF682F6F774E2D3C
S113165084E08DDF6E2D8AE0A6DF682F60684E2D52
S11316608AE085DF4E2D60E081E081DF512C612C22
S1131670712C411451046104710499F0CA2DDB2DBD
S1131680812C912C540169914E2D89E070DFFFEF7C
S11316908F1A9F0AAF0ABF0A84149504A604B704DC
S11316A090F34E2D6F2D81E062DF8CE0F81208C0BC
S11316B06E2D8DE078DF682F60684E2D8DE057DF4A
S11316C06E2D84E070DFB82EC0E0D0E0EC2DE16038
S11316D0CE2E0AC06E2D84E066DFB82E2196CF3C54
S11316E0F7E0DF0709F468C08C2D8B2199F36EC0F5
S11316F0832D8170B82211F0C2E001C0C1E08CE0FA
S1131700F81273C06E2D8AE04EDF882E6E2D8CE0A9
S11317104ADF282F2770A9F0882D90E00197880FC1
S1131720991F880F991F880F991F820F911D092EE9
S1131730000CAA0BBB0BF80180839183A283B383B3
S113174011C0882D90E0880F991F880F991F880F6A
S1131750991F092E000CAA0BBB0BF80180839183FF
S1131760A283B383882071F0882D813108F080E151
S1131770882E912CA12CB12C81149104A104B104C4
S113178029F433C0812C912C54018394022D1D2DF6
S1131790412C512C32016E2D89E005DFF801819333
S11317A08F01FFEF4F1A5F0A6F0A7F0A481459042A
S11317B06A047B0480F319C06E2D8DE0F4DE682F7B
S11317C06F774E2D8DE0D3DEC3E00FC06E2D8DE01C
S11317D0EADE682F6F774E2D8DE0C9DE6E2D86E030
S11317E0E2DE8B7109F484CFC3E08C2FDF91CF91BB
S11317F01F910F91FF90EF90DF90CF90BF90AF902B
S11318009F908F907F906F905F904F903F902F901C
S11318100895CF93C82F1F921F921F9281E08F9338
S113182083E08F9317D184B3836084BB15BA2FEF01
S113183089EF90E0215080409040E1F700C0000023
S113184085B3836085BB4C2F6FE081E090DE4C2F25
S11318506DE88AE28CDE4C2F6EE38BE288DE4C2F3F
S11318606EE18CE284DE4C2F60E08DE280DE4C2F52
S113187060E485E17CDE4C2F6DE381E178DE6C2F42
S113188084E191DE982F93700F900F900F900F903A
S11318900F9029F4682F63604C2F84E168DECF91A8
S11318A00895CF93DF93D82F682F87E37CDEC82F6A
S11318B02FEF89EF90E0215080409040E1F700C085
S11318C00000D11106C089E194E05FD1C23959F515
S11318D00FC085E294E059D1C23991F512C081E379
S11318E094E053D144E454E060E082E09FDDFFCF14
S11318F088E594E04AD14CE754E060E082E096DD6C
S113190023C088E594E041D141E954E060E082E0FD
S11319108DDD1AC086EA94E038D14CE754E060E0EB
S113192082E084DD11C0C059C230C8F6F3CF86EA24
S113193094E02BD141E954E060E082E077DD04C01B
S1131940C059C23060F6F3CFDF91CF910895CF93A1
S1131950C82F682F82E027DE682F60624C2F82E058
S113196006DE6C2F83E01FDE682F60684C2F83E057
S1131970FEDDCF910895CF92DF92EF920F931F93E4
S1131980CF93DF9300D000D0CDB7DEB7182F6B0113
S1131990E42E67E08DE0EBDDF60110838E010F5F2E
S11319A01F4F960141E0B6018CE016DE813059F4F8
S11319B049815A816B817C814031510561057105F2
S11319C019F083E001C083E00F900F900F900F9007
S11319D0DF91CF911F910F91EF90DF90CF900895F9
S11319E0CF92DF92EF920F931F93CF93DF9300D0A8
S11319F000D0CDB7DEB76C01E62E462F60E08DE057
S1131A00B6DD83E9F601808380E281838E010F5F76
S1131A101F4F960142E0B6018CE0DEDD813071F4A7
S1131A20F601A6014C5F5F4F90E0219192274E177B
S1131A305F07D9F7F6012481921383E00F900F908A
S1131A400F900F90DF91CF911F910F91EF90DF9046
S1131A50CF900895CF93DF9300D01F92CDB7DEB718
S1131A608885833021F1811132C029C09C9112965E
S1131A709193E217F307D1F79B81923020F11B82F7
S1131A801DB8833071F4C09A87B3876087BB99818E
S1131A908A81892B80652EB19B81922B9EB98DB949
S1131AA016C0811114C0BB9A80E48DB910C0DE0148
S1131AB01996FE0131969E012C5F3F4FD7CF9B8133
S1131AC09230E8F602C01DB8DECF1DB8ECCF0F90FF
S1131AD00F900F90DF91CF9108958FB9779BFECF30
S1131AE008951FB8779BFECF8FB10895BC9A8CE000
S1131AF083BF8AEF81BF87B7826087BF0895139A37
S1131B0080E480938B008AE180938A00109289009C
S1131B101092880010928100109280000895909392
S1131B208100809380000895CF93DF93EC019B01A3
S1131B3040E050E060E472E48FE090E04FD1215047
S1131B403109209759F410983093900029B988E10D
S1131B508AB9579A86E08093950010C0219771F452
S1131B603093980020939900EAE9F0E088E18083BB
S1131B7080818068808386E080939D00DF91CF918F
S1131B8008955D9BFECF8CB90895CF93DF93EC014C
S1131B908881882329F02196F4DF89918111FCCF73
S1131BA0DF91CF910895EBE9F0E0908195FFFDCFAF
S1131BB080939C000895CF93DF93EC018881882360
S1131BC029F02196F0DF89918111FCCFDF91CF912B
S1131BD008950F931F93CF93DF93CDB7DEB7649728
S1131BE00FB6F894DEBF0FBECDBF9F938F938AECE0
S1131BF094E09F938F938E010F5F1F4F1F930F935A
S1131C004FD1B80186E196E03CD10F900F900F9030
S1131C100F900F900F9086E196E064960FB6F894BB
S1131C20DEBF0FBECDBFDF91CF911F910F910895FD
S1131C300F931F93CF93DF93CDB7DEB764970FB69F
S1131C40F894DEBF0FBECDBF1F928F9380ED94E05A
S1131C509F938F938E010F5F1F4F1F930F9320D17C
S1131C60B80186E196E00DD10F900F900F900F9080
S1131C700F900F9086E196E064960FB6F894DEBF5D
S1131C800FBECDBFDF91CF911F910F910895CF92D9
S1131C90DF92EF92FF920F931F93CF93DF93CDB711
S1131CA0DEB7C054D1090FB6F894DEBF0FBECDBF66
S1131CB06B017A0120E4E6E5F6E0DF011D922A9546
S1131CC0E9F7BC018E010F5F1F4FC801DAD0B601DE
S1131CD0C801C3D0F80101900020E9F7319782E2EE
S1131CE09CE29183808382E290E093838283B701B4
S1131CF0C801B3D0F80101900020E9F7319782E2DE
S1131D009DE0918380838AE090E093838283B8018D
S1131D1086E596E0B6D086E596E0C05CDF4F0FB668
S1131D20F894DEBF0FBECDBFDF91CF911F910F910D
S1131D30FF90EF90DF90CF900895EF92FF920F9372
S1131D401F93CF93DF93CDB7DEB7C054D1090FB63D
S1131D50F894DEBF0FBECDBF9C017B0180E4E6E5B5
S1131D60F6E0DF011D928A95E9F794E1E5EDF4E0F0
S1131D708E010F5F1F4FD80101900D929A95E1F7E4
S1131D80B901C8016AD0F80101900020E9F7319740
S1131D9082E29CE2918380831282B701C8015DD004
S1131DA0F80101900020E9F731978DE09AE09183E2
S1131DB080831282B80186E596E063D086E596E0DA
S1131DC0C05CDF4F0FB6F894DEBF0FBECDBFDF910E
S1131DD0CF911F910F91FF90EF900895A1E21A2ED9
S1131DE0AA1BBB1BFD010DC0AA1FBB1FEE1FFF1FBB
S1131DF0A217B307E407F50720F0A21BB30BE40B0B
S1131E00F50B661F771F881F991F1A9469F7609551
S1131E107095809590959B01AC01BD01CF0108950B
S1131E20FC0188279927E89421912032E9F329308D
S1131E3010F02E30C8F32B3239F02D3231F468947F
S1131E4003C026D0820F911D219120532A30C8F35C
S1131E501EF4909581959F4F0895FB01DC010D9030
S1131E600020E9F7119701900D920020E1F7089501
S1131E70FB01DC018D91019080190110D9F3990BBC
S1131E800895FB01DC0101900D920020E1F7089513
S1131E907AE0979F902D879F802D910D11240895AE
S1131EA00F931F93CF93DF93CDB7DEB72E970FB663
S1131EB0F894DEBF0FBECDBF0D891E8986E08C83EA
S1131EC01A8309838FEF9FE79E838D83AE01475E5C
S1131ED05F4F6F89788DCE01019610D0EF81F88520
S1131EE0E00FF11F10822E960FB6F894DEBF0FBEDE
S1131EF0CDBFDF91CF911F910F9108952F923F9203
S1131F004F925F926F927F928F929F92AF92BF9205
S1131F10CF92DF92EF92FF920F931F93CF93DF93B1
S1131F20CDB7DEB72B970FB6F894DEBF0FBECDBF8B
S1131F306C017B018A01FC0117821682838181FF77
S1131F40BFC1CE0101963C01F6019381F70193FDD7
S1131F50859193FF81917F01882309F4ADC1853276
S1131F6039F493FD859193FF81917F01853221F4AA
S1131F70B60190E0D6D1E8CF912C212C312CFFE191
S1131F80F315D8F08B3279F038F4803279F083325B
S1131F90A1F4232D20611DC08D3261F0803369F4DA
S1131FA0232D216016C0832D8260382EE32DE4603A
S1131FB03E2E2AC0F32DF8601DC037FC2DC020ED45
S1131FC0280F2A3040F08E32B9F436FC75C1232D27
S1131FD02064322E19C036FE06C08AE0989E200D79
S1131FE01124922E11C0EAE02E9E200D1124222EDF
S1131FF0F32DF0623F2E08C08C3621F4832D8068C7
S1132000382E02C0883641F4F70193FD859193FF81
S113201081917F018111B3CF982F9F7D9554933087
S113202028F40C5F1F4F9FE399830DC0833631F072
S1132030833771F0833509F055C020C0F8018081E1
S113204089830E5F1F4F88248394912C530112C0FF
S11320502801F2E04F0E511CF801A080B18036FE39
S113206003C0692D70E002C06FEF7FEFC5014ED150
S11320704C018201F32DFF773F2E15C0280122E089
S1132080420E511CF801A080B18036FE03C0692DB8
S113209070E002C06FEF7FEFC5012DD14C01F32D2D
S11320A0F0683F2E820133FC19C0822D90E088161F
S11320B09906A0F4B60180E290E033D12A94F5CFDA
S11320C0F50137FC859137FE81915F01B60190E0FF
S11320D028D121102A9421E0821A910881149104B4
S11320E079F7E1C0843611F0893639F5F80137FE05
S11320F007C060817181828193810C5F1F4F08C08A
S113210060817181072E000C880B990B0E5F1F4FA5
S1132110F32DFF763F2E97FF09C09095809570951B
S113212061957F4F8F4F9F4FF0683F2E2AE030E03C
S1132130A30133D1882E861844C0853731F4232D6A
S11321402F7EB22E2AE030E025C0932D997FB92E40
S11321508F36C1F018F4883579F0AEC0803719F0A5
S1132160883721F0A9C0E92FE061BE2EB4FE0DC06E
S1132170FB2DF460BF2E09C034FE0AC0292F26604F
S1132180B22E06C028E030E005C020E130E002C0F5
S113219020E132E0F801B7FE07C0608171818281DD
S11321A093810C5F1F4F06C06081718180E090E0D5
S11321B00E5F1F4FA301F1D0882E8618FB2DFF77E9
S11321C03F2E36FE0DC0232D2E7FA22E891458F4E7
S11321D034FE0BC032FC09C0832D8E7EA82E05C0B0
S11321E0B82CA32C03C0B82C01C0B92CA4FE0FC07A
S11321F0FE01E80DF11D8081803321F49A2D997E32
S1132200A92E09C0A2FE06C0B394B39404C08A2DBB
S1132210867809F0B394A3FC10C0A0FE06C0B214E3
S113222080F4280C922C9B180DC0B21458F4B601FB
S113223080E290E076D0B394F8CFB21418F42B185F
S113224002C0982C212CA4FE0FC0B60180E390E0BC
S113225068D0A2FE16C0A1FC03C088E790E002C0CB
S113226088E590E0B6010CC08A2D867851F0A1FE75
S113227002C08BE201C080E2A7FC8DE2B60190E0CF
S113228050D0891430F4B60180E390E04AD09A9497
S1132290F8CF8A94F301E80DF11D8081B60190E036
S11322A040D08110F6CF222009F44ECEB60180E250
S11322B090E037D02A94F7CFF6018681978102C047
S11322C08FEF9FEF2B960FB6F894DEBF0FBECDBFF6
S11322D0DF91CF911F910F91FF90EF90DF90CF90FE
S11322E0BF90AF909F908F907F906F905F904F9032
S11322F03F902F900895FC010590615070400110AB
S1132300D8F7809590958E0F9F1F0895FC0161501A
S1132310704001900110D8F7809590958E0F9F1F03
S113232008950F931F93CF93DF93FB01238121FD26
S113233003C08FEF9FEF2CC022FF16C04681578148
S1132340248135814217530744F4A081B1819D0152
S11323502F5F3F4F318320838C93268137812F5FFA
S11323603F4F3783268314C08B01EC01FB010084AB
S1132370F185E02D0995892BE1F6D80116968D910A
S11323809C911797019617969C938E931697CE015E
S1132390DF91CF911F910F910895FA01AA27283058
S11323A051F1203181F1E8946F936E7F6E5F7F4F1E
S11323B08F4F9F4FAF4FB1E03ED0B4E03CD0670F9A
S11323C0781F891F9A1FA11D680F791F8A1F911DED
S11323D0A11D6A0F711D811D911DA11D20D009F43D
S11323E068943F912AE0269F11243019305D31937F
S11323F0DEF6CF010895462F4770405D4193B3E068
S11324000FD0C9F7F6CF462F4F70405D4A3318F00E
S1132410495D31FD4052419302D0A9F7EACFB4E0BF
S1132420A6959795879577956795BA95C9F7009777
S11324306105710508959B01AC010A2E0694579518
S1132440479537952795BA95C9F7620F731F841F6F
S10D2450951FA01D0895F894FFCF16
S113245A0100010058584E45525220436F64653AB0
S113246A000000000000000000000000456D7074C8
S113247A792053706163653D5B0000000000000031
S113248A204669726D776172652056657220000074
S113249A00000000303030300020202020204F4F30
S11324AA4F4F4F4F4F4F4F4F2020202020000A09F3
S11324BA61736369693A20000A096465633A200012
S11324CA0A096865783A20005B434845434B20551E
S11324DA494428434830295D3A20005B4348454330
S11324EA4B2055494428434831295D3A2000496E16
S11324FA697469616C206572722E00506C7A2C20A2
S113250A547279696E672072657365742E0041543A
S113251A2B5253540D0A0041542B52535400202079
S113252A2020204F4F4F5F5F5F5F5F5F5F20202057
S113253A20200041542B474D520D0A0041542B4789
S113254A4D520041542B43574D4F44453D310D0ADA
S113255A0041542B43574D4F44450020202020204E
S113256A4F4F4F4F5F5F5F5F5F5F20202020200047
S113257A41542B43574D4F44453F0D0A0041542BB8
S113258A43574D4F44453F0041542B43574C415008
S113259A0D0A0041542B43574C415000202020205F
S11325AA204F4F4F4F4F5F5F5F5F5F2020202020F7
S11325BA0041542B43574A41503D220041542B4376
S11325CA574A41500020202020204F4F4F4F4F4F51
S11325DA5F5F5F5F20202020200041542B4349463F
S11325EA53520D0A0041542B4349465352002020AA
S11325FA2020204F4F4F4F4F4F4F5F5F5F202020C7
S113260A20200041542B4349505354415254002032
S113261A202020204F4F4F4F4F4F4F4F5F5F2020B6
S113262A2020200020202020204F4F4F4F4F4F4F73
S113263A4F4F5F20202020200041542B4349505300
S113264A454E443D31310D0A0057656C636F6D6523
S113265A2C00456D7074792053706163653D5B305D
S113266A30202F34325D00343000416C726561646D
S113267A79205265636F676E697A656400536F7275
S113268A72792C00546869732063617264206973D7
S113269A006E6F7420726567697374657265642E5F
S11326AA0046726F6D20736572766572203A200057
S11326BA3D3D3D3D3D3D3D3D3D3D3D3D3D3D3D3D3C
S11326CA3D3D3D3D00202053595354454D20424F32
S11326DA4F54494E472E2E2E0020202020205F5F83
S11326EA5F5F5F5F5F5F5F5F2020202020003930DB
S11326FA3030003139322E3136382E34332E3237D7
S113270A0031393939303330350061626364650028
S113271A312E3930760020205061726B696E672041
S113272A53797374656D20202020004265666F72A8
S113273A6520693263206C636420496E6974696137
S113274A6C697A652E2E2E200D0A006932632043A5
S113275A4C434420436F6E6E656374204F6B0D0ABD
S113276A0000004000140054000A5B6368616E6E46
S113277A656C2030000A5B6368616E6E656C20319B
S113278A00204E6F2072656164657220666F756EF3
S113279A645D0A004572726F722C20506C7A204371
S11327AA484B205246494400204465746563746565
S11327BA642056657273696F6E5D3A204D494641CD
S11327CA524520524335323276320A0020202020E4
S11327DA204F5F5F5F5F5F5F5F5F5F202020202085
S11327EA0020202020204F4F5F5F5F5F5F5F5F5FA5
S11327FA20202020200020446574656374656420C9
S113280A56657273696F6E5D3A204D494641524569
S113281A20524335323276310A00253032642000A0
S113282A253032580041542B434950535441525491
S10D283A3D22544350222C220000DA
S9030000FC
