:1000000045C0000062C0000060C000005EC000008B
:100010005CC000005AC0000058C0000056C000007C
:1000200054C0000052C0000050C000004EC000008C
:100030004CC000004AC0000049C000006CC4000071
:1000400044C0000042C000008FC000003EC000005D
:100050003CC000003AC0000038C0000036C00000BC
:1000600034C0000032C0000030C000002EC00000CC
:100070002CC000002AC00000AFC0000026C0000055
:1000800024C0000022C0000020C0000011241FBEB8
:10009000CFEFD0E1DEBFCDBF14E0A0E0B1E0E0E4FF
:1000A000F6E200E00BBF02C007900D92A639B1073F
:1000B000D9F726E0A6E9B4E001C01D92A23EB2073E
:1000C000E1F70E9445090C941E139ACF1F920F92DC
:1000D0000FB60F9211242F933F934F938F939F93BB
:1000E0008091A3048436D9F48091B0059091B10534
:1000F00031E020E0892B09F430E0832F922F20910A
:10010000C0063091C1062115310511F028E030E01C
:100110004BB3822B932B842B8BBB1092A304809127
:10012000A3042091B0053091B10590E082179307A8
:1001300009F4D8988091A3042091C0063091C1069B
:1001400090E08217930709F4DB988091A3048F5FF6
:100150008093A3049F918F914F913F912F910F9086
:100160000FBE0F901F9018951F920F920FB60F920F
:1001700011240BB60F922F933F934F935F936F937E
:100180007F938F939F93AF93BF93EF93FF938CB124
:1001900080937905813669F48091B0059091B1051D
:1001A000892B21F081E60E94B40E03C088E70E94EB
:1001B000B40EFF91EF91BF91AF919F918F917F917D
:1001C0006F915F914F913F912F910F900BBE0F90C8
:1001D0000FBE0F901F9018951F920F920FB60F929F
:1001E00011240BB60F921F932F933F934F935F935E
:1001F0006F937F938F939F93AF93BF93EF93FF93EF
:10020000CF93DF9300D01F92CDB7DEB710919C0043
:100210001E3321F481E08093A70442C01F3421F4EF
:1002200081E08093A2043CC01B3451F48091A2046D
:10023000813009F087C08093A5041092A20430C0D9
:100240001092A2041B3221F481E08093A10476C0B5
:10025000193441F48091A104813011F582E080933A
:10026000A1046CC0103541F48091A1048230C1F426
:1002700083E08093A10462C0143441F48091A1040E
:10028000833071F484E08093A10458C01C3241F49F
:100290008091A104843021F485E08093A1044EC0B4
:1002A0008091A104853091F41093A40486E080939A
:1002B000A1048091A40489831A82CE0101960E9430
:1002C00003109093C3068093C20638C08630C1F4F1
:1002D0001A3371F08091A40489831A831B82CE01A2
:1002E00001960E9403109093C3068093C20626C015
:1002F0001092A1041092A00481E080939F041EC07C
:1003000080919F048823C1F08091A004E82FF0E041
:10031000E458FA4F10838F5F8093A0042091C206A7
:100320003091C30690E08217930741F481E08093F7
:10033000A60410929F0402C01092A104812F0E9473
:10034000B40E03C01092A204ABCF0F900F900F9089
:10035000DF91CF91FF91EF91BF91AF919F918F91DD
:100360007F916F915F914F913F912F911F910F90CE
:100370000BBE0F900FBE0F901F901895CF938091DA
:100380009D04811109C040E068E976E082E50E94A1
:10039000A00D80939C041DC080919B04882339F09C
:1003A00040E068E976E082E50E94A00D0CC040E0E4
:1003B00068E976E082E50E94A00D80939C0483307A
:1003C00011F410929D0490919B0481E08927809301
:1003D0009B04C0919C04C13029F088E580930301FF
:1003E000C0E018C080910301883599F48FE48093B0
:1003F000030181E080939D0480939B0460E088E981
:1004000096E00E94D50D80939C04813019F0CFEFC7
:1004100001C0C0E08C2FCF910895CF9380919A04B2
:10042000811109C041E06AEA76E082E50E94A00DF0
:10043000809399041DC080919804882339F041E08D
:100440006AEA76E082E50E94A00D0CC041E06AEA0B
:1004500076E082E50E94A00D80939904833011F428
:1004600010929A049091980481E0892780939804CF
:10047000C0919904C13029F088E580930201C0E061
:1004800018C080910201883599F48FE480930201AD
:1004900081E080939A048093980461E08AEA96E070
:1004A0000E94D50D80939904813019F0CFEF01C0DF
:1004B000C0E08C2FCF910895CF93DF93EC01609132
:1004C000C4067091C5068091C6069091C70624E6C1
:1004D00030E040E050E00E94E10F672B682B692B71
:1004E00089F4988181E089278883811106C046DFDD
:1004F0008093A80610929C0605C08FDF8093A80603
:100500001092AE06DF91CF9108958CEA94E040E11D
:1005100055E025E0E1E6F3E0DC0101900D922A953B
:10052000E1F7059684179507A1F742E451E060E0F2
:1005300082E00E94FB0A2FEF89E698E1215080407B
:100540009040E1F700C000000895EBE8F0E0808102
:100550008F7B8083109210051092BF061092BE060A
:100560000895009741F0EBE8F0E0208120642083BB
:100570000C94820E0895EBE8F0E080818F7B8083FD
:10058000089580911005823009F476C028F48823FC
:1005900061F0813061F00895843009F437C108F4C6
:1005A000D0C0853009F475C10895CFCF08958091EA
:1005B000C8069091C906A091CA06B091CB06883CA6
:1005C0009105A105B10520F48BE996E0CACF089505
:1005D0008091C8069091C906A091CA06B091CB0639
:1005E000883C9105A105B10521F487EE95E0B9CFCE
:1005F00008958091C8069091C906A091CA06B0914D
:10060000CB0680399140A105B10521F485E694E03F
:10061000A8CF08958091C8069091C906A091CA06F6
:10062000B091CB0688359240A105B10521F48DEF3C
:1006300093E097CF08958091C8069091C906A09144
:10064000CA06B091CB0680329340A105B10521F4D2
:1006500088EF92E086CF08958091C8069091C906F0
:10066000A091CA06B091CB06803B9440A105B1058C
:1006700009F050C16ACF08958091C8069091C906CB
:10068000A091CA06B091CB06883C9105A105B105A1
:1006900020F48BE996E065CF08958091C80690918B
:1006A000C906A091CA06B091CB06823D9105A1056D
:1006B000B10521F480E090E054CF08958091C80600
:1006C0009091C906A091CA06B091CB068C3D9105C8
:1006D000A105B10521F487EE95E043CF08958091FF
:1006E000C8069091C906A091CA06B091CB06803980
:1006F0009140A105B10521F480E090E032CF08954A
:100700008091C8069091C906A091CA06B091CB0607
:100710008E3A9140A105B10521F485E694E021CF00
:1007200008958091C8069091C906A091CA06B0911B
:10073000CB0688359240A105B10509F0EBC005CF85
:1007400008958091C8069091C906A091CA06B091FB
:10075000CB068B349105A105B10520F482E194E02C
:1007600000CF08958091C8069091C906A091CA064D
:10077000B091CB0686399105A105B10520F480E042
:1007800090E0EFCE08958091C8069091C906A0919F
:10079000CA06B091CB06813E9105A105B10520F4B2
:1007A00082E194E0DECE08958091C8069091C9065A
:1007B000A091CA06B091CB068C329140A105B1053B
:1007C00020F480E090E0CDCE08958091C80690910D
:1007D000C906A091CA06B091CB0687379140A10502
:1007E000B10520F482E194E0BCCE08958091C80662
:1007F0009091C906A091CA06B091CB06823C914067
:10080000A105B10509F086C0A0CE08958091C80663
:100810009091C906A091CA06B091CB068436910585
:10082000A105B10520F482E194E09BCE089580916A
:10083000C8069091C906A091CA06B091CB06883C23
:100840009105A105B10520F480E090E08ACE0895DD
:100850008091C8069091C906A091CA06B091CB06B6
:100860008C329140A105B10520F482E194E079CE6B
:1008700008958091C8069091C906A091CA06B091CA
:10088000CB06823C9140A105B10509F043C05DCE85
:1008900008958091C8069091C906A091CA06B091AA
:1008A000CB0684369105A105B10520F487E490E1DB
:1008B00058CE08958091C8069091C906A091CA06A5
:1008C000B091CB06883C9105A105B10520F480E0EC
:1008D00090E047CE08958091C8069091C906A091F6
:1008E000CA06B091CB068C329140A105B10520F427
:1008F00084E298E036CE08958091C8069091C906AA
:10090000A091CA06B091CB06823C9140A105B105E9
:1009100009F41BCE08951F920F920FB60F92112467
:100920000BB60F922F933F934F935F936F937F93E9
:100930008F939F93AF93BF93EF93FF93E4ECF6E015
:1009400080819181A281B3810196A11DB11D808317
:100950009183A283B38380917A0590917B05892B43
:1009600059F080859185A285B3850196A11DB11DA1
:1009700080879187A287B3878091E0069091E106F6
:10098000892B69F0E4ECF6E084859585A685B7852A
:100990000196A11DB11D84879587A687B787809191
:1009A000BC069091BD06892B69F0E4ECF6E08089E5
:1009B0009189A289B3890196A11DB11D808B918B6C
:1009C000A28BB38B8091BA069091BB06892B69F0FC
:1009D000E4ECF6E084899589A689B7890196A11D82
:1009E000B11D848B958BA68BB78B8091110590914F
:1009F0001205892B69F0E4ECF6E0808D918DA28DD3
:100A0000B38D0196A11DB11D808F918FA28FB38FE1
:100A10008091BE069091BF06892B71F0E4ECF6E060
:100A200084819581A681B7810196A11DB11D848322
:100A30009583A683B783A5DDFF91EF91BF91AF9119
:100A40009F918F917F916F915F914F913F912F91E6
:100A50000F900BBE0F900FBE0F901F901895109225
:100A6000DC061092DD061092DE061092DF06109270
:100A70000101109200010895CF93DF93CDB7DEB747
:100A800065970FB6F894DEBF0FBECDBFBC019AE0EC
:100A9000E5E0F1E0DE01119601900D929A95E1F703
:100AA000FE013B968BE0DF011D928A95E9F7CE01AE
:100AB00001960E942010AED541E751E060E081E050
:100AC0009AD54EE751E060E082E095D5AE014F5FE8
:100AD0005F4F60E083E08FD565960FB6F894DEBF78
:100AE0000FBECDBFDF91CF9108954091DC065091AC
:100AF000DD066091DE067091DF06413157426105E7
:100B0000710538F021E030E03093010120930001BD
:100B1000B3DF80910001909101010097F1F70895F2
:100B2000CF92DF92EF92FF920F931F93CF93DF93B9
:100B30007C016B01EA01890192DF81E991E00E9469
:100B4000CE0E2FEF81E19AE7215080409040E1F7EF
:100B500000C000008AE991E0C8DF41EA51E060E0AE
:100B600082E049D57CDF86EB91E00E94CE0E809139
:100B7000A504811107C08FEB91E0B7DF8091A50438
:100B80008823C9F31092A5046ADF86EC91E00E94E5
:100B9000CE0E2FEF87EA91E6215080409040E1F79A
:100BA00000C000001092A50484ED91E09EDF4EEDA0
:100BB00051E060E082E01FD552DF83EF91E00E94B8
:100BC000CE0E8091A504811107C080E092E08DDFF8
:100BD0008091A5048823C9F31092A50440DF8BE01F
:100BE00092E00E94CE0E8091A504811107C086E19B
:100BF00092E07BDF8091A5048823C9F31092A504BD
:100C00004FE152E060E082E0F6D429DFA601B701AF
:100C100084E392E00E943A0F0E94CE0E8091A504D8
:100C2000811107C08FE392E060DF8091A5048823E3
:100C3000C9F31092A50448E452E060E082E0DBD4FE
:100C40000EDF8DE592E00E94CE0E8091A504811109
:100C500007C088E692E049DF8091A5048823C9F3A4
:100C60001092A50441E752E060E082E0C4D4F7DED0
:100C7000B801CE010E94900F0E94CE0E8091A50473
:100C8000811107C086E892E030DF8091A5048823B7
:100C9000C9F31092A50442E952E060E082E0ABD4CF
:100CA0002FEF81EE94E0215080409040E1F700C0AA
:100CB000000047EA52E060E082E09DD4DF91CF91EE
:100CC0001F910F91FF90EF90DF90CF900895AC9A15
:100CD0000895AC980895F894009729F41092B105FE
:100CE0001092B00506C0019721F41092C10610922F
:100CF000C006789408958430910559F134F4813018
:100D0000910549F00297B1F008958530910581F180
:100D10000697E9F108951092C8061092C90610923C
:100D2000CA061092CB0681E090E09093BF068093B4
:100D3000BE0608951092CC061092CD061092CE06F3
:100D40001092CF0681E090E090937B0580937A0526
:100D500008951092D4061092D5061092D6061092DD
:100D6000D70681E090E09093BD068093BC0608957D
:100D70001092D8061092D9061092DA061092DB066D
:100D800081E090E09093BB068093BA06089510929C
:100D9000DC061092DD061092DE061092DF0681E07E
:100DA00090E090931205809311050895823099F098
:100DB00028F4882349F0813051F01CC0843099F028
:100DC00070F08530A1F016C01092100513C081E0BC
:100DD000809310050FC082E0809310050BC083E064
:100DE0008093100507C084E08093100503C085E060
:100DF0008093100581E090E07ECF08951092C406A4
:100E00001092C5061092C6061092C706843091054E
:100E100071F01092D0061092D1061092D206109264
:100E2000D30621E030E03093E1062093E00663CF63
:100E30000895CF92DF92EF92FF920F931F93CF937B
:100E4000DF93CDB7DEB76C970FB6F894DEBF0FBE59
:100E5000CDBF9C019091A806913009F057C1F901CE
:100E6000808181111FC18CEB92E098D78091A704FB
:100E70008823E1F31092A70482E3ECE7F5E0DF01B9
:100E80001D928A95E9F708E916E00F2EFCE9EF2E8E
:100E9000F6E0FF2EF02DF80181918F01BCD77ED7AF
:100EA00080E274D70E151F05B1F785EA93E076D777
:100EB0008091A6048823E1F31092A60480917C051A
:100EC0008F3409F0D9C080E290E290937D05809341
:100ED0007C051092A9041092A8040CEA14E0E12CFD
:100EE000F12CCC24C394D12C61E673E0C8010E949C
:100EF0002B10892B49F4F092AB04E092AA04D09213
:100F0000A904C092A8040CC068E976E0C8010E9458
:100F10002B10892B29F41092A9041092A8048FC0D9
:100F2000FFEFEF1AFF0A0B5F1F4F84E1E816F10491
:100F3000D9F68091A8049091A904892B09F47FC067
:100F40008091AA049091AB049C01220F331F220FC1
:100F5000331F820F931F68E976E084559B4F0E94F0
:100F600034108091960490919704843191052CF46B
:100F70000196909397048093960484E190E01CD7A7
:100F8000BC01CE0149960E94341020919604309104
:100F9000970484E190E0821B930B0ED7BC01CE0135
:100FA00045960E9434108EE0EAE1F1E08E010F5F79
:100FB0001F4FD80101900D928A95E1F7FE013F96EF
:100FC00086E0DF011D928A95E9F7BE016B5E7F4FD7
:100FD000C8010E942010F80101900020E9F7319724
:100FE0008FE290E091838083BE01675E7F4FC801EE
:100FF0000E942010F80101900020E9F731978DE55B
:1010000090E0918380838AE090E09093B105809393
:10101000B00585E090E0F2DE5ADEFCD24CEC52E006
:1010200060E080E0E8D24CE755E060E081E0E3D2A8
:10103000A80160E082E0DFD282E0B8DE67C08AE02B
:1010400090E09093B1058093B00585E090E0D6DE06
:101050003EDEE0D24CEC52E060E080E0CCD24CE7E7
:1010600055E062E081E0C7D245ED52E060E082E009
:10107000C2D282E09BDE4AC083E090E0BFDE83E024
:1010800095DEC8D248EE52E060E080E0B4D24FEE88
:1010900052E062E081E0AFD24CEF52E062E082E0E9
:1010A000AAD234C0813091F50CEA14E00F2EF0E1A1
:1010B000EF2EF5E0FF2EF02D0F2EFAE0CF2ED12CE3
:1010C000F02D6AEA76E0C801C6D7892BD1F485E015
:1010D000E1E6F3E0D80101900D928A95E1F7809165
:1010E00096049091970401979093970480939604A7
:1010F000D092C106C092C00684E090E07FDE82E01C
:1011000055DE0B5F1F4FE016F106D9F61092A806C8
:101110006C960FB6F894DEBF0FBECDBFDF91CF91B6
:101120001F910F91FF90EF90DF90CF9008950F9354
:101130001F93CF93DF93CDB7DEB764970FB6F894C4
:10114000DEBF0FBECDBF789489E08ABBA49AF89425
:10115000B2D5BAD5C7D586E090E0CDDD78941092AF
:10116000C4061092C5061092C6061092C706B1DDDD
:1011700060E875E280E090E0CAD560E875E281E061
:1011800090E0C5D580E02AD481E028D4A9D14CE0F4
:1011900053E060E080E02FD241E253E060E081E084
:1011A0002AD245E353E060E082E025D24CE053E0F0
:1011B00060E083E020D281E0F9DD2FEF81E19AE762
:1011C000215080409040E1F700C0000080E04ED404
:1011D00080E0A2D481E04AD481E09ED42AE433E0C6
:1011E0004DE453E069E573E086E693E099DC8DD940
:1011F0008FE0EEE2F1E08E010F5F1F4FD80101900A
:101200000D928A95E1F7FE01709685E0DF011D924F
:101210008A95E9F7D8010D900020E9F7119786E04B
:10122000EDE6F3E001900D928A95E1F74CE053E092
:1012300060E080E0E0D143E753E060E081E0DBD1B3
:10124000A80160E082E0D7D14CE053E060E083E0A9
:10125000D2D185E0ABDDBFEF27EA81E6B150204077
:101260008040E1F700C00000D5D1D5D01092120522
:101270001092110564960FB6F894DEBF0FBECDBF75
:10128000DF91CF911F910F91089551DF85E090E09C
:101290009093C1068093C0069093B1058093B005EA
:1012A0002FEF89E698E1215080409040E1F700C09F
:1012B000000080E090E00FDD81E090E00CDDD79A47
:1012C000C4ECD6E005E010E08EE994E0F5D88EE9B4
:1012D00094E0AFDD80917A0590917B05892B91F0A8
:1012E00088859985AA85BB8581339547A105B10578
:1012F00048F0EFDC10927B0510927A0510927B0586
:1013000010927A058091E0069091E106892B91F088
:101310008C859D85AE85BF85803E9E42A105B10529
:1013200049F479D01092E1061092E0061092E1069D
:101330001092E0068091BA069091BB06892B89F144
:101340008C899D89AE89BF89883E9340A105B105EE
:1013500021F480E090E0BFDC24C08C899D89AE89B7
:10136000BF8980319742A105B10539F485E01EDDC2
:101370001093B1050093B00514C08C899D89AE8986
:10138000BF89803E9E42A105B10559F480E090E0FE
:10139000A2DC1092BB061092BA061092BB06109205
:1013A000BA068091BC069091BD06892B09F48CCFBA
:1013B00088899989AA89BB89883E9340A105B1058E
:1013C00021F481E090E087DC7FCF88899989AA8920
:1013D000BB8980319742A105B10539F485E0E6DC8F
:1013E0001093C1060093C0066FCF88899989AA8996
:1013F000BB89803E9E42A105B10509F065CF81E021
:1014000090E069DC1092BD061092BC061092BD06F9
:101410001092BC0659CFCF93DF9300D000D0CDB748
:10142000DEB784E089831A8284E18B8380E18C8338
:1014300044E050E0BE016F5F7F4F809104014AD1CC
:101440008111F6CF8FE39CE90197F1F700C000000E
:101450000F900F900F900F90DF91CF910895CF9341
:10146000DF9300D0CDB7DEB7807F982F9C60998343
:1014700088608A8342E050E0BE016F5F7F4F8091B9
:10148000040128D18111F6CF0F900F90DF91CF91F9
:101490000895CF93DF9300D000D0CDB7DEB7982F5B
:1014A000907F292F2C60298398609A8320E1829F66
:1014B000C0011124982F9C609B8388608C8344E03A
:1014C00050E0BE016F5F7F4F8091040103D1811115
:1014D000F6CF0F900F900F900F90DF91CF9108955E
:1014E000BED02FEF89E698E1215080409040E1F78F
:1014F00000C0000088E893E03BD480E3B0DF8FE1D8
:101500009EE40197F1F700C0000080E3A8DF8FE8B8
:1015100091E00197F1F700C0000080E3A0DF8FE8C1
:1015200091E00197F1F700C0000080E298DF8FE8BA
:1015300091E00197F1F700C0000088E2AADF87EC94
:1015400090E00197F1F700C0000088E0A2DF87EC8F
:1015500090E00197F1F700C0000081E09ADF8FED85
:101560009EE20197F1F700C0000086E092DF87EC71
:1015700090E00197F1F700C000008CE08ADF87EC73
:1015800090E00197F1F700C0000088EA93E0F0C313
:101590000895CF93DF9300D000D0CDB7DEB7982F5A
:1015A000907F292F2D60298399609A8320E1829F63
:1015B000C0011124982F9D609B8389608C8344E037
:1015C00050E0BE016F5F7F4F8091040183D0811195
:1015D000F6CF0F900F900F900F90DF91CF9108955D
:1015E000E82FF0E0EE0FFF1FE254FC4F8081860FE2
:1015F00080684FCF0895CF93DF93EA01F1DF8881B0
:10160000882329F02196C5DF89918111FCCFDF91D4
:10161000CF910895CF93DF9300D000D0CDB7DEB740
:101620008CE0898388E08A838CE18B8388E18C83DA
:1016300044E050E0BE016F5F7F4F809104014AD0CB
:101640008111F6CF8FE39CE90197F1F700C000000C
:101650000F900F900F900F90DF91CF91089588E435
:10166000809370000895E4E7F0E0108294EA90839C
:1016700090819923ECF790917100987F9830A1F4B4
:101680008093730084E880937400E4E7F0E0808145
:101690008823ECF790917100987F983139F081E0C0
:1016A000903429F480E0089581E0089580E0089561
:1016B0008093730084E880937400E4E7F0E0808115
:1016C0008823ECF790917100987F81E0983209F4BB
:1016D00080E00895CF92DF92FF920F931F93CF93F4
:1016E000DF936B018A01BFDFF82E811117C001154E
:1016F000110581F0E6010C0D1D1D8991D9DF8111C5
:1017000010C08FE99FE00197F1F700C000000C17AF
:101710001D0799F784E98093740005C0FF24F394B2
:1017200002C0FF24F3948F2DDF91CF911F910F9171
:10173000FF90DF90CF9008951F93CF93DF93162FE4
:1017400095B3C1E0D0E002C0CC0FDD1F4A95E2F7AF
:101750002C2F2095922395BB880F8E77A3D2812FB3
:10176000A1D285B3C82BC5BBDF91CF911F9108953E
:10177000CF93DF9395B3C1E0D0E002C0CC0FDD1F63
:101780006A95E2F72C2F2095922395BB880F8E77D0
:10179000806888D28BD295B3C92BC5BBDF91CF911E
:1017A00008952F923F924F925F926F927F928F9205
:1017B0009F92AF92BF92CF92DF92EF92FF920F93E0
:1017C0001F93CF93DF93F82EA62EB72E442E222EF2
:1017D000D32E8CE0F81659F0EEE0FE1211C068949A
:1017E000CC24C4F80F2EF2E13F2EF02D0BC00F2EAB
:1017F000F0E3CF2EF02D0F2EF7E73F2EF02D02C095
:10180000C12C312C4E2D632D606882E095DF6E2D4A
:1018100084E0AEDF682F6F774E2D84E08DDF6E2D74
:101820008AE0A6DF682F60684E2D8AE085DF4E2DA6
:1018300060E081E081DF512C612C712C4114510456
:101840006104710499F0CA2DDB2D812C912C540177
:1018500069914E2D89E070DFFFEF8F1A9F0AAF0A62
:10186000BF0A84149504A604B70490F34E2D6F2D7F
:1018700081E062DF8CE0F81208C06E2D8DE078DF29
:10188000682F60684E2D8DE057DF6E2D84E070DF8D
:10189000B82EC0E0D0E0EC2DE160CE2E0AC06E2D57
:1018A00084E066DFB82E2196CF3CF7E0DF0709F42D
:1018B00068C08C2D8B2199F36EC0832D8170B82266
:1018C00011F0C2E001C0C1E08CE0F81273C06E2DCF
:1018D0008AE04EDF882E6E2D8CE04ADF282F27709D
:1018E000A9F0882D90E00197880F991F880F991F04
:1018F000880F991F820F911D092E000CAA0BBB0B9C
:10190000F80180839183A283B38311C0882D90E076
:10191000880F991F880F991F880F991F092E000C97
:10192000AA0BBB0BF80180839183A283B383882029
:1019300071F0882D813108F080E1882E912CA12C46
:10194000B12C81149104A104B10429F433C0812C79
:10195000912C54018394022D1D2D412C512C3201C8
:101960006E2D89E005DFF80181938F01FFEF4F1A9B
:101970005F0A6F0A7F0A481459046A047B0480F3E3
:1019800019C06E2D8DE0F4DE682F6F774E2D8DE03F
:10199000D3DEC3E00FC06E2D8DE0EADE682F6F77D7
:1019A0004E2D8DE0C9DE6E2D86E0E2DE8B7109F4EE
:1019B00084CFC3E08C2FDF91CF911F910F91FF90C7
:1019C000EF90DF90CF90BF90AF909F908F907F90DF
:1019D0006F905F904F903F902F900895CF93C82FB6
:1019E0001F921F921F9281E08F9383E08F9317D1F4
:1019F00084B3836084BB15BA2FEF89EF90E0215048
:101A000080409040E1F700C0000085B3836085BB53
:101A10004C2F6FE081E090DE4C2F6DE88AE28CDE87
:101A20004C2F6EE38BE288DE4C2F6EE18CE284DE7D
:101A30004C2F60E08DE280DE4C2F60E485E17CDE9F
:101A40004C2F6DE381E178DE6C2F84E191DE982FDD
:101A500093700F900F900F900F900F9029F4682FB4
:101A600063604C2F84E168DECF910895CF93DF93BC
:101A7000D82F682F87E37CDEC82F2FEF89EF90E007
:101A8000215080409040E1F700C00000D11106C015
:101A900086EC93E06DD1C23959F50FC082ED93E029
:101AA00067D1C23991F512C08EED93E061D141EF5B
:101AB00053E060E082E09FDDFFCF85E094E058D105
:101AC00049E254E060E082E096DD23C085E094E0E6
:101AD0004FD14EE354E060E082E08DDD1AC083E533
:101AE00094E046D149E254E060E082E084DD11C038
:101AF000C059C230C8F6F3CF83E594E039D14EE344
:101B000054E060E082E077DD04C0C059C23060F686
:101B1000F3CFDF91CF910895CF93C82F682F82E044
:101B200027DE682F60624C2F82E006DE6C2F83E098
:101B30001FDE682F60684C2F83E0FEDDCF91089593
:101B4000CF92DF92EF920F931F93CF93DF9300D04A
:101B500000D0CDB7DEB7182F6B01E42E67E08DE023
:101B6000EBDDF60110838E010F5F1F4F960141E000
:101B7000B6018CE016DE813059F449815A816B81BF
:101B80007C81403151056105710519F083E001C088
:101B900083E00F900F900F900F90DF91CF911F91E6
:101BA0000F91EF90DF90CF900895CF92DF92EF9258
:101BB0000F931F93CF93DF9300D000D0CDB7DEB744
:101BC0006C01E62E462F60E08DE0B6DD83E9F6017C
:101BD000808380E281838E010F5F1F4F960142E078
:101BE000B6018CE0DEDD813071F4F601A6014C5FB8
:101BF0005F4F90E0219192274E175F07D9F7F601CA
:101C00002481921383E00F900F900F900F90DF913B
:101C1000CF911F910F91EF90DF90CF900895CF93C8
:101C2000DF9300D01F92CDB7DEB78885833021F1D6
:101C3000811132C029C09C9112969193E217F3074B
:101C4000D1F79B81923020F11B821DB8833071F453
:101C5000C09A87B3876087BB99818A81892B806509
:101C60002EB19B81922B9EB98DB916C0811114C0E3
:101C7000BB9A80E48DB910C0DE011996FE01319641
:101C80009E012C5F3F4FD7CF9B819230E8F602C078
:101C90001DB8DECF1DB8ECCF0F900F900F90DF91E5
:101CA000CF9108958FB9779BFECF08951FB8779B8A
:101CB000FECF8FB10895BC9A8CE083BF8AEF81BFBD
:101CC00087B7826087BF089582E08FBD8AE18EBDAD
:101CD0001DBC1CBC81E087BD8FE886BD87B78460D2
:101CE00087BF0895139A80E480938B008AE18093E4
:101CF0008A00109289001092880010928100109240
:101D00008000089590938100809380000895CF9380
:101D1000DF93EC019B0140E050E060E472E48FE06F
:101D200090E04FD121503109209759F41098309309
:101D3000900029B988E18AB9579A86E08093950086
:101D400010C0219771F43093980020939900EAE92C
:101D5000F0E088E1808380818068808386E08093E2
:101D60009D00DF91CF9108955D9BFECF8CB90895C2
:101D7000CF93DF93EC018881882329F02196F4DF4B
:101D800089918111FCCFDF91CF910895EBE9F0E0CB
:101D9000908195FFFDCF80939C000895CF93DF93B2
:101DA000EC018881882329F02196F0DF8991811147
:101DB000FCCFDF91CF9108950F931F93CF93DF93C3
:101DC000CDB7DEB764970FB6F894DEBF0FBECDBFB8
:101DD0009F938F9387E794E09F938F938E010F5F7C
:101DE0001F4F1F930F934FD1B80188E196E03CD16C
:101DF0000F900F900F900F900F900F9088E196E04A
:101E000064960FB6F894DEBF0FBECDBFDF91CF91C1
:101E10001F910F9108950F931F93CF93DF93CDB729
:101E2000DEB764970FB6F894DEBF0FBECDBF1F922A
:101E30008F938CE794E09F938F938E010F5F1F4FDA
:101E40001F930F9320D1B80188E196E00DD10F9038
:101E50000F900F900F900F900F9088E196E064968E
:101E60000FB6F894DEBF0FBECDBFDF91CF911F91AB
:101E70000F910895CF92DF92EF92FF920F931F93ED
:101E8000CF93DF93CDB7DEB7C054D1090FB6F89426
:101E9000DEBF0FBECDBF6B017A0120E4E8E5F6E0BE
:101EA000DF011D922A95E9F7BC018E010F5F1F4FDC
:101EB000C801DAD0B601C801C3D0F80101900020F2
:101EC000E9F7319782E29CE29183808382E290E09D
:101ED00093838283B701C801B3D0F8010190002039
:101EE000E9F7319782E29DE0918380838AE090E078
:101EF00093838283B80188E596E0B6D088E596E0C2
:101F0000C05CDF4F0FB6F894DEBF0FBECDBFDF91D0
:101F1000CF911F910F91FF90EF90DF90CF90089598
:101F2000EF92FF920F931F93CF93DF93CDB7DEB75E
:101F3000C054D1090FB6F894DEBF0FBECDBF9C01CF
:101F40007B0180E4E8E5F6E0DF011D928A95E9F780
:101F500094E1E1E8F4E08E010F5F1F4FD80101909A
:101F60000D929A95E1F7B901C8016AD0F801019084
:101F70000020E9F7319782E29CE29183808312820C
:101F8000B701C8015DD0F80101900020E9F7319751
:101F90008DE09AE0918380831282B80188E596E013
:101FA00063D088E596E0C05CDF4F0FB6F894DEBFE3
:101FB0000FBECDBFDF91CF911F910F91FF90EF909A
:101FC0000895A1E21A2EAA1BBB1BFD010DC0AA1F7A
:101FD000BB1FEE1FFF1FA217B307E407F50720F092
:101FE000A21BB30BE40BF50B661F771F881F991F0D
:101FF0001A9469F760957095809590959B01AC0156
:10200000BD01CF010895FC0188279927E89421910B
:102010002032E9F3293010F02E30C8F32B3239F09A
:102020002D3231F4689403C026D0820F911D219186
:1020300020532A30C8F31EF4909581959F4F089540
:10204000FB01DC010D900020E9F7119701900D9242
:102050000020E1F70895FB01DC018D9101908019CA
:102060000110D9F3990B0895FB01DC0101900D9249
:102070000020E1F708957AE0979F902D879F802DAB
:10208000910D112408950F931F93CF93DF93CDB734
:10209000DEB72E970FB6F894DEBF0FBECDBF0D8909
:1020A0001E8986E08C831A8309838FEF9FE79E83C6
:1020B0008D83AE01475E5F4F6F89788DCE010196AB
:1020C00010D0EF81F885E00FF11F10822E960FB629
:1020D000F894DEBF0FBECDBFDF91CF911F910F915E
:1020E00008952F923F924F925F926F927F928F92BC
:1020F0009F92AF92BF92CF92DF92EF92FF920F9397
:102100001F93CF93DF93CDB7DEB72B970FB6F8941D
:10211000DEBF0FBECDBF6C017B018A01FC011782BF
:102120001682838181FFBFC1CE0101963C01F60179
:102130009381F70193FD859193FF81917F0188231E
:1021400009F4ADC1853239F493FD859193FF8191F6
:102150007F01853221F4B60190E0D6D1E8CF912CF1
:10216000212C312CFFE1F315D8F08B3279F038F4C3
:10217000803279F08332A1F4232D20611DC08D328D
:1021800061F0803369F4232D216016C0832D8260B5
:10219000382EE32DE4603E2E2AC0F32DF8601DC0DA
:1021A00037FC2DC020ED280F2A3040F08E32B9F4D4
:1021B00036FC75C1232D2064322E19C036FE06C0B0
:1021C0008AE0989E200D1124922E11C0EAE02E9EE6
:1021D000200D1124222EF32DF0623F2E08C08C36E4
:1021E00021F4832D8068382E02C0883641F4F7012F
:1021F00093FD859193FF81917F018111B3CF982F3A
:102200009F7D9554933028F40C5F1F4F9FE3998373
:102210000DC0833631F0833771F0833509F055C036
:1022200020C0F801808189830E5F1F4F882483942A
:10223000912C530112C02801F2E04F0E511CF801FD
:10224000A080B18036FE03C0692D70E002C06FEF40
:102250007FEFC5014ED14C018201F32DFF773F2E58
:1022600015C0280122E0420E511CF801A080B18067
:1022700036FE03C0692D70E002C06FEF7FEFC5012D
:102280002DD14C01F32DF0683F2E820133FC19C093
:10229000822D90E088169906A0F4B60180E290E0C5
:1022A00033D12A94F5CFF50137FC859137FE819122
:1022B0005F01B60190E028D121102A9421E0821A12
:1022C00091088114910479F7E1C0843611F08936C0
:1022D00039F5F80137FE07C06081718182819381F1
:1022E0000C5F1F4F08C060817181072E000C880BA6
:1022F000990B0E5F1F4FF32DFF763F2E97FF09C0FE
:1023000090958095709561957F4F8F4F9F4FF068A6
:102310003F2E2AE030E0A30133D1882E861844C036
:10232000853731F4232D2F7EB22E2AE030E025C0F0
:10233000932D997FB92E8F36C1F018F4883579F036
:10234000AEC0803719F0883721F0A9C0E92FE061CD
:10235000BE2EB4FE0DC0FB2DF460BF2E09C034FEAE
:102360000AC0292F2660B22E06C028E030E005C042
:1023700020E130E002C020E132E0F801B7FE07C002
:1023800060817181828193810C5F1F4F06C06081E3
:10239000718180E090E00E5F1F4FA301F1D0882E85
:1023A0008618FB2DFF773F2E36FE0DC0232D2E7F86
:1023B000A22E891458F434FE0BC032FC09C0832DC0
:1023C0008E7EA82E05C0B82CA32C03C0B82C01C04B
:1023D000B92CA4FE0FC0FE01E80DF11D80818033F1
:1023E00021F49A2D997EA92E09C0A2FE06C0B394AD
:1023F000B39404C08A2D867809F0B394A3FC10C06E
:10240000A0FE06C0B21480F4280C922C9B180DC0BC
:10241000B21458F4B60180E290E076D0B394F8CFCD
:10242000B21418F42B1802C0982C212CA4FE0FC053
:10243000B60180E390E068D0A2FE16C0A1FC03C004
:1024400088E790E002C088E590E0B6010CC08A2DD4
:10245000867851F0A1FE02C08BE201C080E2A7FCA9
:102460008DE2B60190E050D0891430F4B60180E3DB
:1024700090E04AD09A94F8CF8A94F301E80DF11DC8
:102480008081B60190E040D08110F6CF222009F47F
:102490004ECEB60180E290E037D02A94F7CFF60115
:1024A0008681978102C08FEF9FEF2B960FB6F8942D
:1024B000DEBF0FBECDBFDF91CF911F910F91FF9077
:1024C000EF90DF90CF90BF90AF909F908F907F90D4
:1024D0006F905F904F903F902F900895FC01059072
:1024E000615070400110D8F7809590958E0F9F1F16
:1024F0000895FC016150704001900110D8F780955B
:1025000090958E0F9F1F08950F931F93CF93DF9386
:10251000FB01238121FD03C08FEF9FEF2CC022FF21
:1025200016C046815781248135814217530744F4F0
:10253000A081B1819D012F5F3F4F318320838C9318
:10254000268137812F5F3F4F3783268314C08B014D
:10255000EC01FB010084F185E02D0995892BE1F662
:10256000D80116968D919C911797019617969C937A
:102570008E931697CE01DF91CF911F910F91089501
:10258000FA01AA27283051F1203181F1E8946F93A4
:102590006E7F6E5F7F4F8F4F9F4FAF4FB1E03ED04A
:1025A000B4E03CD0670F781F891F9A1FA11D680FE8
:1025B000791F8A1F911DA11D6A0F711D811D911D1B
:1025C000A11D20D009F468943F912AE0269F112490
:1025D0003019305D3193DEF6CF010895462F4770F4
:1025E000405D4193B3E00FD0C9F7F6CF462F4F704F
:1025F000405D4A3318F0495D31FD4052419302D0AD
:10260000A9F7EACFB4E0A695979587957795679552
:10261000BA95C9F700976105710508959B01AC0152
:102620000A2E06945795479537952795BA95C9F779
:10263000620F731F841F951FA01D0895F894FFCF8C
:10264000010058584E45525220436F64653A0000CD
:1026500000000000000000000000456D707479204B
:1026600053706163653D5B00000000000000204680
:1026700069726D77617265205665722000000000F6
:10268000000020202020204F4F4F4F4F4F4F4F4FE3
:102690004F2020202020000A0961736369693A20D5
:1026A000000A096465633A20000A096865783A20DF
:1026B00000496E697469616C206572722E00506CFD
:1026C0007A2C20547279696E672072657365742E56
:1026D0000041542B5253540D0A0041542B52535471
:1026E0000020202020204F4F4F5F5F5F5F5F5F5FC4
:1026F00020202020200041542B474D520D0A00413C
:10270000542B474D520041542B43574D4F44453DA8
:10271000310D0A0041542B43574D4F4445002020B2
:102720002020204F4F4F4F5F5F5F5F5F5F20202073
:1027300020200041542B43574D4F44453F0D0A0084
:1027400041542B43574D4F44453F0041542B435771
:102750004C41500D0A0041542B43574C415000202E
:10276000202020204F4F4F4F4F5F5F5F5F5F202043
:102770002020200041542B43574A41503D22004124
:10278000542B43574A41500020202020204F4F4FC8
:102790004F4F4F5F5F5F5F20202020200041542B70
:1027A00043494653520D0A0041542B434946535264
:1027B0000020202020204F4F4F4F4F4F4F5F5F5F33
:1027C00020202020200041542B4349505354415293
:1027D000540020202020204F4F4F4F4F4F4F4F5F2E
:1027E0005F20202020200020202020204F4F4F4F0E
:1027F0004F4F4F4F4F5F20202020200041542B434C
:10280000495053454E443D31310D0A0057656C63C4
:102810006F6D652C00416C7265616479205265634F
:102820006F676E697A656400536F7272792C005419
:102830006869732063617264206973006E6F74202D
:10284000726567697374657265642E003D3D3D3D38
:102850003D3D3D3D3D3D3D3D3D3D3D3D3D3D3D3DA8
:1028600000202053595354454D20424F4F54494E58
:10287000472E2E2E0020202020205F5F5F5F5F5FAD
:102880005F5F5F5F2020202020003233003137322D
:102890002E32302E31302E330068776877687768B3
:1028A00077303030300043686F69485700312E3937
:1028B00030760020205061726B696E672053797307
:1028C00074656D20202020004265666F7265206966
:1028D0003263206C636420496E697469616C697A43
:1028E000652E2E2E200D0A0069326320434C43448E
:1028F00020436F6E6E656374204F6B0D0A000000FD
:102900004000140054000A5B6368616E6E656C20C1
:1029100030000A5B6368616E6E656C203100204E8A
:102920006F2072656164657220666F756E645D0A02
:10293000004572726F722C20506C7A2043484B20F5
:1029400052464944002044657465637465642056AA
:10295000657273696F6E5D3A204D4946415245205C
:10296000524335323276320A0020202020204F5F39
:102970005F5F5F5F5F5F5F5F20202020200020207F
:102980002020204F4F5F5F5F5F5F5F5F5F202020F1
:102990002020002044657465637465642056657268
:1029A00073696F6E5D3A204D49464152452052434E
:1029B00035323276310A0025303264002530325803
:1029C0000041542B43495053544152543D225443E7
:0629D00050222C22000041
:00000001FF
