S02300007061726B696E675F73797374656D5F70726F6A6563745F302E31762E7372656357
S113000045C0000062C0000060C000005EC0000087
S11300105CC000005AC0000058C0000056C0000078
S113002054C0000052C0000050C000004EC0000088
S11300304CC000004AC0000048C00000B9C700001E
S113004044C0000042C0000041C000003EC00000A7
S11300503CC000003AC0000038C0000036C00000B8
S113006034C0000032C0000030C000002EC00000C8
S11300702CC000002AC0000038C0000026C00000C8
S113008024C0000022C0000020C0000011241FBEB4
S1130090CFEFD0E1DEBFCDBF14E0A0E0B1E0E6E6F3
S11300A0F8E200E00BBF02C007900D92A03DB1073B
S11300B0D9F726E0A0EDB4E001C01D92AA3CB20736
S11300C0E1F70E94A20A0C9431149ACF1F920F9266
S11300D00FB60F9211248F938CB180937B058F916F
S11300E00F900FBE0F901F9018951F920F920FB68E
S11300F00F9211240BB60F921F932F933F934F939C
S11301005F936F937F938F939F93AF93BF93EF937B
S1130110FF93CF93DF9300D01F92CDB7DEB710913A
S11301209C001E3321F481E08093F60442C01F3406
S113013021F481E08093E2043CC01B3451F48091AB
S1130140E204813009F087C08093F4041092E20441
S113015030C01092E2041B3221F481E08093E10468
S113016076C0193441F48091E104813011F582E0C4
S11301708093E1046CC0103541F48091E104823035
S1130180C1F483E08093E10462C0143441F48091AB
S1130190E104833071F484E08093E10458C01C329C
S11301A041F48091E104843021F485E08093E104FA
S11301B04EC08091E104853091F41093F30486E0FD
S11301C08093E1048091F30489831A82CE0101961D
S11301D00E9416119093B9068093B80638C08630F1
S11301E0C1F41A3371F08091F30489831A831B825A
S11301F0CE0101960E9416119093B9068093B80619
S113020026C01092E1041092E00481E08093DF04A0
S11302101EC08091DF048823C1F08091E004E82FA0
S1130220F0E0E458FA4F10838F5F8093E00420914C
S1130230B8063091B90690E08217930741F481E043
S11302408093F5041092DF0402C01092E104812F20
S11302500E94C70F03C01092E204ABCF0F900F901F
S11302600F90DF91CF91FF91EF91BF91AF919F914B
S11302708F917F916F915F914F913F912F911F913A
S11302800F900BBE0F900FBE0F901F9018958BEF21
S113029094E044E155E025E0ECE3F3E0DC01019077
S11302A00D922A95E1F7059684179507A1F747E47F
S11302B051E060E082E00E941C0C2FEF89E698E197
S11302C0215080409040E1F700C000000895CF9293
S11302D0DF92EF92FF920F931F93CF93C62F81303B
S11302E0910569F18230910509F455C0892B09F013
S11302F07EC08CE591E00E94CB0F06E916E00F2E3C
S1130300F8EAEF2EF6E0FF2EF02D0F2EFAE9CF2EAD
S1130310F6E0DF2EF02DC11105C0F80180810E94A6
S1130320C70F04C0F70180810E94C70F0F5F1F4FE2
S1130330FFEFEF1AFF0A0C151D0569F758C086E692
S113034091E00E94CB0F06E916E00F2EF8EAEF2E9B
S1130350F6E0FF2EF02D0F2EFAE9CF2EF6E0DF2E79
S1130360F02DC11108C0F801808190E00E94EF0FC8
S11303700E94CB0F07C0F701808190E00E94EF0F2D
S11303800E94CB0F0F5F1F4FFFEFEF1AFF0A0C15F0
S11303901D0539F72CC08EE691E00E94CB0F06E9CB
S11303A016E00F2EF8EAEF2EF6E0FF2EF02D0F2EBA
S11303B0FAE9CF2EF6E0DF2EF02DC11107C0F801C7
S11303C080810E941E100E94CB0F06C0F70180811D
S11303D00E941E100E94CB0F80E20E94C70F0F5F85
S11303E01F4FFFEFEF1AFF0A0C151D0531F7CF91D0
S11303F01F910F91FF90EF90DF90CF900895CF93CE
S11304008091DD04811109C040E066E976E082E56F
S11304100E94C10E8093DC041DC08091DB048823FC
S113042039F040E066E976E082E50E94C10E0CC036
S113043040E066E976E082E50E94C10E8093DC0428
S1130440833011F41092DD049091DB0481E089275C
S11304508093DB04C091DC04C13029F088E58093EB
S11304600801C0E02CC080910801883529F58FE48B
S11304708093080181E08093DD048093DB0460E0D5
S113048086E996E00E94F60E8093DC048130B1F494
S113049086E791E00E94CB0F60E080E090E017DFF8
S11304A060E081E090E013DF60E082E090E00FDF45
S11304B08AE00E94C70F03C0C0E001C0CFEF8C2FB9
S11304C0CF910895CF938091DA04811109C041E05E
S11304D068EA76E082E50E94C10E8093D9041DC0CB
S11304E08091D804882339F041E068EA76E082E517
S11304F00E94C10E0CC041E068EA76E082E50E94E9
S1130500C10E8093D904833011F41092DA049091CF
S1130510D80481E089278093D804C091D904C130DC
S113052029F088E580930701C0E02CC08091070181
S1130530883529F58FE48093070181E08093DA04FC
S11305408093D80461E088EA96E00E94F60E8093D6
S1130550D9048130B1F489E891E00E94CB0F61E0C5
S113056080E090E0B4DE61E081E090E0B0DE61E044
S113057082E090E0ACDE8AE00E94C70F03C0C0E0D6
S113058001C0CFEF8C2FCF910895CF93DF93EC016F
S11305906091BA067091BB068091BC069091BD062D
S11305A024E630E040E050E00E94F410672B682B12
S11305B0692B89F4988181E089278883811106C099
S11305C01EDF8093A60610929A0605C07BDF8093F7
S11305D0A6061092AC06DF91CF9108951092BE0644
S11305E01092BF061092C0061092C106823099F094
S11305F028F4882349F0813051F01CC0843099F0EC
S113060070F08530A1F016C01092140513C081E07B
S1130610809314050FC082E0809314050BC083E01F
S11306208093140507C084E08093140503C085E01B
S1130630809314051092BE061092BF061092C00655
S11306401092C1060895EBE8F0E080818F7B8083EF
S1130650109214050895009741F0EBE8F0E0208132
S1130660206420830C94950F0895EBE8F0E08081DA
S11306708F7B8083089580911405823009F476C0BD
S113068028F4882361F0813061F00895843009F4FE
S113069037C108F4D0C0853009F475C10895D3CFAB
S11306A008958091BE069091BF06A091C006B091B6
S11306B0C106883C9105A105B10520F48BE996E0BB
S11306C0CACF08958091BE069091BF06A091C0063E
S11306D0B091C106883C9105A105B10521F487EECE
S11306E095E0B9CF08958091BE069091BF06A09180
S11306F0C006B091C10680399140A105B10521F42D
S113070085E694E0A8CF08958091BE069091BF0637
S1130710A091C006B091C10688359240A105B105EB
S113072021F48DEF93E097CF08958091BE069091C8
S1130730BF06A091C006B091C10680329340A105C6
S1130740B10521F488EF92E086CF08958091BE062A
S11307509091BF06A091C006B091C106803B944021
S1130760A105B10509F050C16ECF08958091BE0670
S11307709091BF06A091C006B091C106883C910536
S1130780A105B10520F48BE996E065CF0895809129
S1130790BE069091BF06A091C006B091C106823DED
S11307A09105A105B10521F480E090E054CF0895AE
S11307B08091BE069091BF06A091C006B091C1067B
S11307C08C3D9105A105B10521F487EE95E043CF59
S11307D008958091BE069091BF06A091C006B09185
S11307E0C10680399140A105B10521F480E090E073
S11307F032CF08958091BE069091BF06A091C006A5
S1130800B091C1068E3A9140A105B10521F485E667
S113081094E021CF08958091BE069091BF06A091E7
S1130820C006B091C10688359240A105B10509F012
S1130830EBC009CF08958091BE069091BF06A091A8
S1130840C006B091C1068B349105A105B10520F411
S113085082E194E000CF08958091BE069091BF0696
S1130860A091C006B091C10686399105A105B105D4
S113087020F480E090E0EFCE08958091BE06909140
S1130880BF06A091C006B091C106813E9105A105A5
S1130890B10520F482E194E0DECE08958091BE0695
S11308A09091BF06A091C006B091C1068C329140D0
S11308B0A105B10520F480E090E0CDCE08958091AB
S11308C0BE069091BF06A091C006B091C1068737BD
S11308D09140A105B10520F482E194E0BCCE0895D5
S11308E08091BE069091BF06A091C006B091C1064A
S11308F0823C9140A105B10509F086C0A4CE0895BB
S11309008091BE069091BF06A091C006B091C10629
S113091084369105A105B10520F482E194E09BCED3
S113092008958091BE069091BF06A091C006B09133
S1130930C106883C9105A105B10520F480E090E052
S11309408ACE08958091BE069091BF06A091C006FC
S1130950B091C1068C329140A105B10520F482E129
S113096094E079CE08958091BE069091BF06A0913F
S1130970C006B091C106823C9140A105B10509F0C1
S113098043C061CE08958091BE069091BF06A091A8
S1130990C006B091C10684369105A105B10520F4C5
S11309A087E490E158CE08958091BE069091BF06E9
S11309B0A091C006B091C106883C9105A105B1057E
S11309C020F480E090E047CE08958091BE06909197
S11309D0BF06A091C006B091C1068C329140A1051A
S11309E0B10520F484E298E036CE08958091BE06E5
S11309F09091BF06A091C006B091C106823C91407F
S1130A00A105B10509F41FCE08951092C6061092EF
S1130A10C7061092C8061092C906109202011092DD
S1130A2001010895CF93DF93CDB7DEB765970FB675
S1130A30F894DEBF0FBECDBFBC019AE0EAE0F1E05E
S1130A40DE01119601900D929A95E1F7FE013B9615
S1130A508BE0DF011D928A95E9F7CE0101960E9491
S1130A603311F9D64CE951E060E081E0E5D649EA7A
S1130A7051E060E082E0E0D6AE014F5F5F4F60E09E
S1130A8083E0DAD665960FB6F894DEBF0FBECDBF0D
S1130A90DF91CF9108954091C6065091C7066091A9
S1130AA0C8067091C906413157426105710538F095
S1130AB021E030E03093020120930101B3DF809103
S1130AC00101909102010097F1F70895CF92DF920E
S1130AD0EF92FF920F931F93CF93DF937C016B01EF
S1130AE0EA01890192DF8CEB91E00E94E10F2FEF84
S1130AF081E19AE7215080409040E1F700C0000076
S1130B0085EC91E0C8DF4CEC51E060E082E094D6E3
S1130B107CDF81EE91E00E94E10F8091F404811169
S1130B2007C08AEE91E0B7DF8091F4048823C9F30B
S1130B301092F4046ADF81EF91E00E94E10F2FEF3D
S1130B4087EA91E6215080409040E1F700C0000020
S1130B501092F4048FEF91E09EDF49E052E060E0F0
S1130B6082E06AD652DF8EE192E00E94E10F80912A
S1130B70F404811107C08BE292E08DDF8091F404CC
S1130B808823C9F31092F40440DF86E392E00E94C4
S1130B90E10F8091F404811107C081E492E07BDFCE
S1130BA08091F4048823C9F31092F4044AE452E0D7
S1130BB060E082E041D629DFA601B7018FE592E02B
S1130BC00E944D100E94E10F8091F404811107C02E
S1130BD08AE692E060DF8091F4048823C9F31092DE
S1130BE0F40443E752E060E082E026D60EDF88E8B2
S1130BF092E00E94E10F8091F404811107C083E91F
S1130C0092E049DF8091F4048823C9F31092F4043C
S1130C104CE952E060E082E00FD6F7DEB801CE0185
S1130C200E94A3100E94E10F8091F404811107C077
S1130C3081EB92E030DF8091F4048823C9F31092B1
S1130C40F4044DEB52E060E082E0F6D52FEF81EE44
S1130C5094E0215080409040E1F700C0000042ED54
S1130C6052E060E082E0E8D5DF91CF911F910F91CF
S1130C70FF90EF90DF90CF900895AC9A0895AC98D0
S1130C8008950F931F93CF93DF93CDB7DEB7649787
S1130C900FB6F894DEBF0FBECDBF78948FE08ABB49
S1130CA0A49AF8940E947C0F0E94850F7894109265
S1130CB0BA061092BB061092BC061092BD06DFDF86
S1130CC060E875E280E090E00E949A0F60E875E2C7
S1130CD081E090E00E949A0F80E0A1D781E09FD745
S1130CE020D547EE52E060E080E0A6D54CEF52E01C
S1130CF060E081E0A1D540E153E060E082E09CD572
S1130D0047EE52E060E083E097D581E067DC2FEFA7
S1130D1081E19AE7215080409040E1F700C0000053
S1130D2080E0C5D780E00E94AD0E81E0C0D781E0AD
S1130D300E94AD0E25E233E048E253E064E373E041
S1130D4081E493E0C3DEA3DA8FE0EFE1F1E08E010A
S1130D500F5F1F4FD80101900D928A95E1F7FE01B4
S1130D60709685E0DF011D928A95E9F7D8010D9010
S1130D700020E9F7119786E0E8E4F3E001900D9292
S1130D808A95E1F747EE52E060E080E055D54EE405
S1130D9053E060E081E050D5A80160E082E04CD5EA
S1130DA047EE52E060E083E047D585E017DCBFEF13
S1130DB027EA81E6B15020408040E1F700C00000FE
S1130DC04AD54AD464960FB6F894DEBF0FBECDBFA1
S1130DD0DF91CF911F910F9108958130910531F0EA
S1130DE08230910529F1019689F513C01092EA0425
S1130DF01092E9041092EC041092EB0481E090E06C
S1130E009093EE048093ED049093F0048093EF04A8
S1130E1008951092EA041092E90481E090E090931E
S1130E20EC048093EB041092EE041092ED04089508
S1130E3081E090E09093EA048093E9041092EC043A
S1130E401092EB041092EE041092ED0408951092A7
S1130E50BA061092BB061092BC061092BD068130F1
S1130E60910541F41092C2061092C3061092C40672
S1130E701092C506B2CF089581309105A1F48091F6
S1130E80D2049091D304A091D404B091D5040196D6
S1130E90A11DB11D8093D2049093D304A093D404D4
S1130EA0B093D5041AC08F3F2FEF9207A1F480911D
S1130EB0D2049091D304A091D404B091D5040197A5
S1130EC0A109B1098093D2049093D304A093D404CC
S1130ED0B093D50402C0892B91F08091D2049091F3
S1130EE0D304A091D404B091D50483709927AA2780
S1130EF0BB27FC01ED5FFE4F80818BBB08951BBABD
S1130F0008958091F1049091F204892B09F44FC063
S1130F106091BA067091BB068091BC069091BD06A3
S1130F20409100012BE030E0241B3109032E000C1A
S1130F30440B550B0E94F410672B682B692BB9F5F1
S1130F402091E5043091E6048091E3049091E40457
S1130F50281739070CF58091E7049091E80401976C
S1130F6021F481E090E088DF0DC08091E704909146
S1130F70E804019621F48FEF9FEF7EDF03C080E049
S1130F8090E07ADF8091E5049091E60401969093D5
S1130F90E6048093E50408951092F2041092F1049B
S1130FA01092E6041092E50480E090E065CF089585
S1130FB01F920F920FB60F9211240BB60F922F931C
S1130FC03F934F935F936F937F938F939F93AF93CD
S1130FD0BF93EF93FF93EAEBF6E084819581A681BA
S1130FE0B7810196A11DB11D84839583A683B78320
S1130FF080819181A281B3810196A11DB11D80835D
S11310009183A283B38380859185A285B38501965C
S1131010A11DB11D80879187A287B387848595859B
S1131020A685B7850196A11DB11D84879587A687DE
S1131030B78721DB66DFFF91EF91BF91AF919F915D
S11310408F917F916F915F914F913F912F910F906D
S11310500BBE0F900FBE0F901F9018958130910515
S1131060B1F58091D0049091D1048130910509F4B7
S11310709EC08F3F2FEF920799F0892B09F581E0ED
S113108090E09093E8048093E70428EC30E03093F8
S1131090E4042093E3049093F2048093F10410C0D9
S11310A081E090E09093E8048093E70420E931E044
S11310B03093E4042093E3049093F2048093F104C6
S11310C081E090E09093D1048093D0040895009738
S11310D0A9F58091D0049091D104009709F467C0D8
S11310E08F3F2FEF9207A9F0019719F58FEF9FEF2C
S11310F09093E8048093E70488EC90E09093E404F0
S11311008093E30481E090E09093F2048093F104EF
S113111010C081E090E09093E8048093E70428EC09
S113112030E03093E4042093E3049093F20480933A
S1131130F1041092D1041092D00408950196B9F5E7
S11311408091D0049091D1048F3F2FEF920779F1D1
S11311500097A9F0019729F58FEF9FEF9093E8048A
S11311608093E70480E991E09093E4048093E3049E
S113117081E090E09093F2048093F10412C08FEF29
S11311809FEF9093E8048093E70488EC90E09093B9
S1131190E4048093E30481E090E09093F20480936C
S11311A0F1048FEF9FEF9093D1048093D0040895BE
S11311B0AF92BF92CF92DF92EF92FF920F931F9361
S11311C0CF93DF93CDB7DEB76C970FB6F894DEBF3D
S11311D00FBECDBF9C019091A606913009F09FC12E
S11311E0F9018081811148C183E693E0EAD68091B8
S11311F0F6048823E1F31092F60482E3ECE7F5E0C9
S1131200DF011D928A95E9F706E916E00F2EFAE947
S1131210EF2EF6E0FF2EF02DF80181918F010ED70D
S1131220D0D680E2C6D60E151F05B1F78FED93E038
S1131230C8D68091F5048823E1F31092F5048091D7
S11312407C058F3409F0CDC080E290E290937D0557
S113125080937C051092F8041092F7040BEF14E0CD
S1131260E12CF12CCC24C394D12C6CE373E0C801A1
S11312700E943E11892B49F4F092FA04E092F90499
S1131280D092F804C092F7040BC066E976E0C80176
S1131290F5D7892B29F41092F8041092F70487C02B
S11312A0FFEFEF1AFF0A0B5F1F4F85E0E816F1040A
S11312B0E1F68091F7049091F804892B09F477C042
S11312C08091F9049091FA049C01220F331F220F9C
S11312D0331F820F931F66E976E085509B4FD7D763
S11312E08091D6049091D704853091052CF4019611
S11312F09093D7048093D60485E090E070D6BC0127
S1131300CE014996C4D72091D6043091D70485E004
S113131090E0821B930B63D6BC01CE014596B7D7F0
S11313208EE0E3E3F1E08E010F5F1F4FD8010190DF
S11313300D928A95E1F7FE013F9686E0DF011D924A
S11313408A95E9F7BE016B5E7F4FC8018CD7F8011F
S113135001900020E9F731978FE290E09183808338
S1131360BE01675E7F4FC8017ED7F801019000205F
S1131370E9F731978DE590E0918380836CD243E760
S113138053E060E080E058D24CE755E060E081E053
S113139053D2A80160E082E04FD282E01FD981E0FD
S11313A090E055DD81E090E059DE67DC2FC053D238
S11313B043E753E060E080E03FD24CE755E062E071
S11313C081E03AD24CE753E060E082E035D282E03B
S11313D005D981E090E03BDD81E090E03FDE4DDC2B
S11313E015C039D24FE853E060E080E025D246E9E9
S11313F053E062E081E020D243EA53E062E082E01D
S11314001BD28FEF9FEF23DD83E0E8D88AE0BFD5BE
S113141083EB93E0C0D58CE795E0BDD58AE0B7D5E2
S11314200F2EFBEFCF2EF4E0DF2EF02D0F2EF4E184
S1131430AF2EF5E0BF2EF02D8BE5A9D5F6018191F5
S11314407F01FCD5A8D500E010E080E2A0D50F5FB5
S11314501F4FD7018D917D01F1D59DD50330110525
S1131460A1F78DE594D58AE092D5B5E0CB0ED11CD9
S1131470AC14BD0409F753C0813009F050C00F2EDD
S1131480FBEFCF2EF4E0DF2EF02D0F2EF4E1AF2E84
S1131490F5E0BF2EF02D860168EA76E0C801EED6AD
S11314A0892BC9F485E0ECE3F3E0D80101900D92B7
S11314B08A95E1F78091D6049091D704019790938F
S11314C0D7048093D60482E090E0C1DC8FEF9FEFD5
S11314D0C5DD82E083D80B5F1F4F0A151B05E1F6BB
S11314E08BE555D5F60181917F01A8D554D500E04F
S11314F010E080E24CD50F5F1F4FD7018D917D0125
S11315009DD549D503301105A1F78DE540D58AE075
S11315103ED5B5E0CB0ED11CCA14DB0409F71092FA
S1131520A6066C960FB6F894DEBF0FBECDBFDF9152
S1131530CF911F910F91FF90EF90DF90CF90BF90CC
S1131540AF9008959EDBE1E6F0E0808181608083C6
S1131550CAEBD6E002E610E0FF24F3948EED94E0AB
S113156014D88EED94E024DE8091EF049091F00481
S1131570892B71F088859985AA85BB858133954728
S1131580A105B10528F07BDB1092F0041092EF0462
S11315908091ED049091EE04892BF1F0888199817A
S11315A0AA81BB8188359B41A105B10531F48F2DFA
S11315B015D880E090E052DDD1CF88819981AA814D
S11315C0BB8180319742A105B10541F645D0109207
S11315D0EE041092ED04C2CF8091EB049091EC04E0
S11315E0892B81F088819981AA81BB8180349F41B4
S11315F0A105B10509F0B2CF2FD01092EC041092DE
S1131600EB04ACCF8091E9049091EA04892B09F4AE
S1131610A5CFF80180818F25808388819981AA8153
S1131620BB8188359B41A105B10539F48F2D0E94FA
S1131630EE0280E090E012DD91CF88819981AA8149
S1131640BB8180349F41A105B10509F087CF109279
S1131650EA041092E90482CFCF93DF9300D000D044
S1131660CDB7DEB784E089831A8284E18B8380E17D
S11316708C8344E050E0BE016F5F7F4F809109018D
S11316804AD18111F6CF8FE39CE90197F1F700C0AD
S113169000000F900F900F900F90DF91CF9108955D
S11316A0CF93DF9300D0CDB7DEB7807F982F9C60B7
S11316B0998388608A8342E050E0BE016F5F7F4F68
S11316C08091090128D18111F6CF0F900F90DF91FD
S11316D0CF910895CF93DF9300D000D0CDB7DEB77C
S11316E0982F907F292F2C60298398609A8320E17A
S11316F0829FC0011124982F9C609B8388608C83F7
S113170044E050E0BE016F5F7F4F8091090103D137
S11317108111F6CF0F900F900F900F90DF91CF9122
S11317200895BED02FEF89E698E121508040904083
S1131730E1F700C0000082EC93E02DD480E3B0DF39
S11317408FE19EE40197F1F700C0000080E3A8DF79
S11317508FE891E00197F1F700C0000080E3A0DF7B
S11317608FE891E00197F1F700C0000080E298DF74
S11317708FE891E00197F1F700C0000088E2AADF4A
S113178087EC90E00197F1F700C0000088E0A2DF49
S113179087EC90E00197F1F700C0000081E09ADF48
S11317A08FED9EE20197F1F700C0000086E092DF22
S11317B087EC90E00197F1F700C000008CE08ADF2D
S11317C087EC90E00197F1F700C0000082EE93E00F
S11317D0E2C30895CF93DF9300D000D0CDB7DEB736
S11317E0982F907F292F2D60298399609A8320E177
S11317F0829FC0011124982F9D609B8389608C83F4
S113180044E050E0BE016F5F7F4F8091090183D0B7
S11318108111F6CF0F900F900F900F90DF91CF9121
S11318200895E82FF0E0EE0FFF1FE850FC4F808191
S1131830860F80684FCF0895CF93DF93EA01F1DFDD
S11318408881882329F02196C5DF89918111FCCFF5
S1131850DF91CF910895CF93DF9300D000D0CDB71F
S1131860DEB78CE0898388E08A838CE18B8388E10E
S11318708C8344E050E0BE016F5F7F4F809109018B
S11318804AD08111F6CF8FE39CE90197F1F700C0AC
S113189000000F900F900F900F90DF91CF9108955B
S11318A088E4809370000895E4E7F0E0108294EAFD
S11318B0908390819923ECF790917100987F9830F0
S11318C0A1F48093730084E880937400E4E7F0E06B
S11318D080818823ECF790917100987F983139F0DA
S11318E081E0903429F480E0089581E0089580E057
S11318F008958093730084E880937400E4E7F0E033
S113190080818823ECF790917100987F81E0983270
S113191009F480E00895CF92DF92FF920F931F9312
S1131920CF93DF936B018A01BFDFF82E811117C0BB
S11319300115110581F0E6010C0D1D1D8991D9DFFA
S1131940811110C08FE99FE00197F1F700C00000FA
S11319500C171D0799F784E98093740005C0FF24D0
S1131960F39402C0FF24F3948F2DDF91CF911F9144
S11319700F91FF90DF90CF9008951F93CF93DF9343
S1131980162F95B3C1E0D0E002C0CC0FDD1F4A95FD
S1131990E2F72C2F2095922395BB880F8E77A3D244
S11319A0812FA1D285B3C82BC5BBDF91CF911F91E5
S11319B00895CF93DF9395B3C1E0D0E002C0CC0F7C
S11319C0DD1F6A95E2F72C2F2095922395BB880F93
S11319D08E77806888D28BD295B3C92BC5BBDF9133
S11319E0CF9108952F923F924F925F926F927F9280
S11319F08F929F92AF92BF92CF92DF92EF92FF921B
S1131A000F931F93CF93DF93F82EA62EB72E442E59
S1131A10222ED32E8CE0F81659F0EEE0FE1211C0FF
S1131A206894CC24C4F80F2EF2E13F2EF02D0BC0A5
S1131A300F2EF0E3CF2EF02D0F2EF7E73F2EF02DD3
S1131A4002C0C12C312C4E2D632D606882E095DFDD
S1131A506E2D84E0AEDF682F6F774E2D84E08DDF2E
S1131A606E2D8AE0A6DF682F60684E2D8AE085DF40
S1131A704E2D60E081E081DF512C612C712C4114EA
S1131A8051046104710499F0CA2DDB2D812C912C31
S1131A90540169914E2D89E070DFFFEF8F1A9F0A80
S1131AA0AF0ABF0A84149504A604B70490F34E2D1C
S1131AB06F2D81E062DF8CE0F81208C06E2D8DE09E
S1131AC078DF682F60684E2D8DE057DF6E2D84E03F
S1131AD070DFB82EC0E0D0E0EC2DE160CE2E0AC05D
S1131AE06E2D84E066DFB82E2196CF3CF7E0DF0749
S1131AF009F468C08C2D8B2199F36EC0832D8170FD
S1131B00B82211F0C2E001C0C1E08CE0F81273C049
S1131B106E2D8AE04EDF882E6E2D8CE04ADF282F52
S1131B202770A9F0882D90E00197880F991F880FDE
S1131B30991F880F991F820F911D092E000CAA0B63
S1131B40BB0BF80180839183A283B38311C0882DDA
S1131B5090E0880F991F880F991F880F991F092EED
S1131B60000CAA0BBB0BF80180839183A283B3837F
S1131B70882071F0882D813108F080E1882E912C25
S1131B80A12CB12C81149104A104B10429F433C013
S1131B90812C912C54018394022D1D2D412C512C08
S1131BA032016E2D89E005DFF80181938F01FFEF8B
S1131BB04F1A5F0A6F0A7F0A481459046A047B04A7
S1131BC080F319C06E2D8DE0F4DE682F6F774E2DF3
S1131BD08DE0D3DEC3E00FC06E2D8DE0EADE682F0A
S1131BE06F774E2D8DE0C9DE6E2D86E0E2DE8B71BF
S1131BF009F484CFC3E08C2FDF91CF911F910F9113
S1131C00FF90EF90DF90CF90BF90AF909F908F9018
S1131C107F906F905F904F903F902F900895CF9357
S1131C20C82F1F921F921F9281E08F9383E08F939E
S1131C3017D184B3836084BB15BA2FEF89EF90E08A
S1131C40215080409040E1F700C0000085B38360DC
S1131C5085BB4C2F6FE081E090DE4C2F6DE88AE26B
S1131C608CDE4C2F6EE38BE288DE4C2F6EE18CE22F
S1131C7084DE4C2F60E08DE280DE4C2F60E485E151
S1131C807CDE4C2F6DE381E178DE6C2F84E191DE04
S1131C90982F93700F900F900F900F900F9029F43E
S1131CA0682F63604C2F84E168DECF910895CF9351
S1131CB0DF93D82F682F87E37CDEC82F2FEF89EFBF
S1131CC090E0215080409040E1F700C00000D11125
S1131CD006C080E094E05FD1C23959F50FC08CE0B2
S1131CE094E059D1C23991F512C088E194E053D1FE
S1131CF04BE254E060E082E09FDDFFCF8FE394E0AD
S1131D004AD143E654E060E082E096DD23C08FE3ED
S1131D1094E041D148E754E060E082E08DDD1AC0F0
S1131D208DE894E038D143E654E060E082E084DD5D
S1131D3011C0C059C230C8F6F3CF8DE894E02BD15E
S1131D4048E754E060E082E077DD04C0C059C23067
S1131D5060F6F3CFDF91CF910895CF93C82F682F0A
S1131D6082E027DE682F60624C2F82E006DE6C2F53
S1131D7083E01FDE682F60684C2F83E0FEDDCF9187
S1131D800895CF92DF92EF920F931F93CF93DF9337
S1131D9000D000D0CDB7DEB7182F6B01E42E67E07A
S1131DA08DE0EBDDF60110838E010F5F1F4F96016E
S1131DB041E0B6018CE016DE813059F449815A8144
S1131DC06B817C81403151056105710519F083E017
S1131DD001C083E00F900F900F900F90DF91CF918F
S1131DE01F910F91EF90DF90CF900895CF92DF92E3
S1131DF0EF920F931F93CF93DF9300D000D0CDB712
S1131E00DEB76C01E62E462F60E08DE0B6DD83E997
S1131E10F601808380E281838E010F5F1F4F96015C
S1131E2042E0B6018CE0DEDD813071F4F601A601FA
S1131E304C5F5F4F90E0219192274E175F07D9F7CF
S1131E40F6012481921383E00F900F900F900F906E
S1131E50DF91CF911F910F91EF90DF90CF90089574
S1131E60CF93DF9300D01F92CDB7DEB78885833040
S1131E7021F1811132C029C09C9112969193E217ED
S1131E80F307D1F79B81923020F11B821DB8833078
S1131E9071F4C09A87B3876087BB99818A81892B43
S1131EA080652EB19B81922B9EB98DB916C081118C
S1131EB014C0BB9A80E48DB910C0DE011996FE01EE
S1131EC031969E012C5F3F4FD7CF9B819230E8F62D
S1131ED002C01DB8DECF1DB8ECCF0F900F900F904D
S1131EE0DF91CF9108958FB9779BFECF08951FB8E6
S1131EF0779BFECF8FB10895BC9A8CE083BF8AEFA5
S1131F0081BF87B7826087BF0895139A80E4809366
S1131F108B008AE180938A001092890010928800D5
S1131F201092810010928000089590938100809314
S1131F3080000895CF93DF93EC019B0140E050E0D3
S1131F4060E472E48FE090E04FD121503109209792
S1131F5059F410983093900029B988E18AB9579AB6
S1131F6086E08093950010C0219771F43093980017
S1131F7020939900EAE9F0E088E180838081806819
S1131F80808386E080939D00DF91CF9108955D9BCF
S1131F90FECF8CB90895CF93DF93EC018881882319
S1131FA029F02196F4DF89918111FCCFDF91CF9143
S1131FB00895EBE9F0E0908195FFFDCF80939C00BC
S1131FC00895CF93DF93EC018881882329F021962B
S1131FD0F0DF89918111FCCFDF91CF9108950F93A8
S1131FE01F93CF93DF93CDB7DEB764970FB6F89402
S1131FF0DEBF0FBECDBF9F938F9381EB94E09F9381
S11320008F938E010F5F1F4F1F930F934FD1B80112
S113201086E196E03CD10F900F900F900F900F90B7
S11320200F9086E196E064960FB6F894DEBF0FBE7B
S1132030CDBFDF91CF911F910F9108950F931F93FF
S1132040CF93DF93CDB7DEB764970FB6F894DEBFB6
S11320500FBECDBF1F928F9386EB94E09F938F9317
S11320608E010F5F1F4F1F930F9320D1B80186E19C
S113207096E00DD10F900F900F900F900F900F904E
S113208086E196E064960FB6F894DEBF0FBECDBF2E
S1132090DF91CF911F910F910895CF92DF92EF922C
S11320A0FF920F931F93CF93DF93CDB7DEB7C05446
S11320B0D1090FB6F894DEBF0FBECDBF6B017A0114
S11320C020E4E6E5F6E0DF011D922A95E9F7BC017C
S11320D08E010F5F1F4FC801DAD0B601C801C3D00B
S11320E0F80101900020E9F7319782E29CE29183A4
S11320F0808382E290E093838283B701C801B3D0E6
S1132100F80101900020E9F7319782E29DE0918384
S113211080838AE090E093838283B80186E596E029
S1132120B6D086E596E0C05CDF4F0FB6F894DEBF0C
S11321300FBECDBFDF91CF911F910F91FF90EF9014
S1132140DF90CF900895EF92FF920F931F93CF9358
S1132150DF93CDB7DEB7C054D1090FB6F894DEBF14
S11321600FBECDBF9C017B0180E4E6E5F6E0DF0114
S11321701D928A95E9F794E1EBEBF4E08E010F5F91
S11321801F4FD80101900D929A95E1F7B901C8014A
S11321906AD0F80101900020E9F7319782E29CE2CD
S11321A0918380831282B701C8015DD0F801019048
S11321B00020E9F731978DE09AE0918380831282C1
S11321C0B80186E596E063D086E596E0C05CDF4F13
S11321D00FB6F894DEBF0FBECDBFDF91CF911F9134
S11321E00F91FF90EF900895A1E21A2EAA1BBB1B3A
S11321F0FD010DC0AA1FBB1FEE1FFF1FA217B307CF
S1132200E407F50720F0A21BB30BE40BF50B661FE4
S1132210771F881F991F1A9469F7609570958095A8
S113222090959B01AC01BD01CF010895FC01882765
S11322309927E89421912032E9F3293010F02E30C7
S1132240C8F32B3239F02D3231F4689403C026D010
S1132250820F911D219120532A30C8F31EF49095CA
S113226081959F4F0895FB01DC010D900020E9F753
S1132270119701900D920020E1F70895FB01DC0114
S11322808D91019080190110D9F3990B0895FB01E8
S1132290DC0101900D920020E1F708957AE0979F08
S11322A0902D879F802D910D112408950F931F93D6
S11322B0CF93DF93CDB7DEB72E970FB6F894DEBF7A
S11322C00FBECDBF0D891E8986E08C831A830983D6
S11322D08FEF9FE79E838D83AE01475E5F4F6F89CB
S11322E0788DCE01019610D0EF81F885E00FF11FB3
S11322F010822E960FB6F894DEBF0FBECDBFDF91CD
S1132300CF911F910F9108952F923F924F925F9218
S11323106F927F928F929F92AF92BF92CF92DF92F1
S1132320EF92FF920F931F93CF93DF93CDB7DEB756
S11323302B970FB6F894DEBF0FBECDBF6C017B01A7
S11323408A01FC0117821682838181FFBFC1CE01FD
S113235001963C01F6019381F70193FD859193FF6A
S113236081917F01882309F4ADC1853239F493FD4D
S1132370859193FF81917F01853221F4B60190E02C
S1132380D6D1E8CF912C212C312CFFE1F315D8F0D4
S11323908B3279F038F4803279F08332A1F4232D32
S11323A020611DC08D3261F0803369F4232D2160DA
S11323B016C0832D8260382EE32DE4603E2E2AC0A1
S11323C0F32DF8601DC037FC2DC020ED280F2A30F6
S11323D040F08E32B9F436FC75C1232D2064322EC0
S11323E019C036FE06C08AE0989E200D1124922E54
S11323F011C0EAE02E9E200D1124222EF32DF0624E
S11324003F2E08C08C3621F4832D8068382E02C0FC
S1132410883641F4F70193FD859193FF81917F0103
S11324208111B3CF982F9F7D9554933028F40C5F7E
S11324301F4F9FE399830DC0833631F0833771F0CA
S1132440833509F055C020C0F801808189830E5F6F
S11324501F4F88248394912C530112C02801F2E069
S11324604F0E511CF801A080B18036FE03C0692DC7
S113247070E002C06FEF7FEFC5014ED14C018201C5
S1132480F32DFF773F2E15C0280122E0420E511C88
S1132490F801A080B18036FE03C0692D70E002C04F
S11324A06FEF7FEFC5012DD14C01F32DF0683F2E66
S11324B0820133FC19C0822D90E088169906A0F49D
S11324C0B60180E290E033D12A94F5CFF50137FCD0
S11324D0859137FE81915F01B60190E028D12110EA
S11324E02A9421E0821A91088114910479F7E1C0B9
S11324F0843611F0893639F5F80137FE07C060815A
S11325007181828193810C5F1F4F08C0608171814A
S1132510072E000C880B990B0E5F1F4FF32DFF76CF
S11325203F2E97FF09C090958095709561957F4FD8
S11325308F4F9F4FF0683F2E2AE030E0A30133D144
S1132540882E861844C0853731F4232D2F7EB22E71
S11325502AE030E025C0932D997FB92E8F36C1F043
S113256018F4883579F0AEC0803719F0883721F037
S1132570A9C0E92FE061BE2EB4FE0DC0FB2DF460AE
S1132580BF2E09C034FE0AC0292F2660B22E06C011
S113259028E030E005C020E130E002C020E132E074
S11325A0F801B7FE07C060817181828193810C5F5D
S11325B01F4F06C06081718180E090E00E5F1F4F65
S11325C0A301F1D0882E8618FB2DFF773F2E36FE0F
S11325D00DC0232D2E7FA22E891458F434FE0BC077
S11325E032FC09C0832D8E7EA82E05C0B82CA32CE6
S11325F003C0B82C01C0B92CA4FE0FC0FE01E80D25
S1132600F11D8081803321F49A2D997EA92E09C071
S1132610A2FE06C0B394B39404C08A2D867809F050
S1132620B394A3FC10C0A0FE06C0B21480F4280C1E
S1132630922C9B180DC0B21458F4B60180E290E0BD
S113264076D0B394F8CFB21418F42B1802C0982C97
S1132650212CA4FE0FC0B60180E390E068D0A2FE56
S113266016C0A1FC03C088E790E002C088E590E0B2
S1132670B6010CC08A2D867851F0A1FE02C08BE20F
S113268001C080E2A7FC8DE2B60190E050D089142D
S113269030F4B60180E390E04AD09A94F8CF8A945B
S11326A0F301E80DF11D8081B60190E040D0811066
S11326B0F6CF222009F44ECEB60180E290E037D066
S11326C02A94F7CFF6018681978102C08FEF9FEF9E
S11326D02B960FB6F894DEBF0FBECDBFDF91CF911E
S11326E01F910F91FF90EF90DF90CF90BF90AF902C
S11326F09F908F907F906F905F904F903F902F901E
S11327000895FC010590615070400110D8F7809540
S113271090958E0F9F1F0895FC01615070400190A9
S11327200110D8F7809590958E0F9F1F08950F93F1
S11327301F93CF93DF93FB01238121FD03C08FEF10
S11327409FEF2CC022FF16C046815781248135811A
S11327504217530744F4A081B1819D012F5F3F4F7D
S1132760318320838C93268137812F5F3F4F3783BA
S1132770268314C08B01EC01FB010084F185E02D5C
S11327800995892BE1F6D80116968D919C9117979E
S1132790019617969C938E931697CE01DF91CF9155
S11327A01F910F910895FA01AA27283051F1203181
S11327B081F1E8946F936E7F6E5F7F4F8F4F9F4FD1
S11327C0AF4FB1E03ED0B4E03CD0670F781F891F13
S11327D09A1FA11D680F791F8A1F911DA11D6A0FE1
S11327E0711D811D911DA11D20D009F468943F9194
S11327F02AE0269F11243019305D3193DEF6CF0193
S11328000895462F4770405D4193B3E00FD0C9F758
S1132810F6CF462F4F70405D4A3318F0495D31FDC5
S11328204052419302D0A9F7EACFB4E0A695979518
S1132830879577956795BA95C9F7009761057105EE
S113284008959B01AC010A2E069457954795379538
S11328502795BA95C9F7620F731F841F951FA01D92
S10928600895F894FFCF77
S113286609010005060A0958584E45525220436F7D
S113287664653A000000000000000000000000202B
S11328864669726D77617265205665722000000094
S1132896000000456D7074792053706163653D5B7B
S11328A60000000000000020202020204F4F4F4F42
S11328B64F4F4F4F4F4F2020202020000A096173AD
S11328C66369693A20000A096465633A20000A09C3
S11328D66865783A20005B434845434B2055494494
S11328E628434830295D3A20005B434845434B2042
S11328F655494428434831295D3A2000496E697494
S113290669616C206572722E00506C7A2C205472A8
S113291679696E672072657365742E0041542B5273
S113292653540D0A0041542B5253540020202020A6
S1132936204F4F4F5F5F5F5F5F5F5F202020202047
S11329460041542B474D520D0A0041542B474D521A
S11329560041542B43574D4F44453D310D0A004128
S1132966542B43574D4F44450020202020204F4FE1
S11329764F4F5F5F5F5F5F5F202020202000415440
S11329862B43574D4F44453F0D0A0041542B4357A3
S11329964D4F44453F0041542B43574C41500D0A7B
S11329A60041542B43574C41500020202020204FF7
S11329B64F4F4F4F5F5F5F5F5F2020202020004115
S11329C6542B43574A41503D220041542B43574A06
S11329D641500020202020204F4F4F4F4F4F5F5F24
S11329E65F5F20202020200041542B434946535248
S11329F60D0A0041542B43494653520020202020FF
S1132A06204F4F4F4F4F4F4F5F5F5F2020202020B6
S1132A160041542B43495053544152540020202022
S1132A2620204F4F4F4F4F4F4F4F5F5F20202020A6
S1132A36200020202020204F4F4F4F4F4F4F4F4F05
S1132A465F2020202020003D3D3D3D3D3D3D3D3D58
S1132A563D3D3D3D3D3D3D3D3D3D3D0020205359E1
S1132A665354454D20424F4F54494E472E2E2E0067
S1132A7620202020205F5F5F5F5F5F5F5F5F5F20D6
S1132A8620202020003233003137322E32302E31CE
S1132A96302E33006877687768776877303030305F
S1132AA60043686F69485700312E3930760020207C
S1132AB65061726B696E672053797374656D20205B
S1132AC620200041542B43495053454E443D313157
S1132AD60D0A0057656C636F6D652C00416C726559
S1132AE6616479205265636F676E697A6564005321
S1132AF66F7272792C005468697320636172642062
S1132B066973006E6F7420726567697374657265A4
S1132B16642E0046726F6D20736572766572203A74
S1132B2620004265666F726520693263206C6364B7
S1132B3620496E697469616C697A652E2E2E200DA2
S1132B460A0069326320434C434420436F6E6E652A
S1132B566374204F6B0D0A000000400014005400FB
S1132B660A5B6368616E6E656C2030000A5B63689D
S1132B76616E6E656C203100204E6F207265616453
S1132B86657220666F756E645D0A004572726F72B7
S1132B962C20506C7A2043484B205246494400204E
S1132BA644657465637465642056657273696F6EF3
S1132BB65D3A204D494641524520524335323276DC
S1132BC6320A0020202020204F5F5F5F5F5F5F5F37
S1132BD65F5F20202020200020202020204F4F5FF0
S1132BE65F5F5F5F5F5F5F202020202000204465D9
S1132BF67465637465642056657273696F6E5D3AB5
S1132C06204D494641524520524335323276310AE7
S1132C16002530326400253032580041542B434994
S1132C265053544152543D22544350222C22000006
S9030000FC
